{
	"DAO/DAO.sol": {
		"Dao": {
			"abi": [
				{
					"inputs": [
						{
							"internalType": "uint256",
							"name": "_contributionTimeEnd",
							"type": "uint256"
						},
						{
							"internalType": "uint256",
							"name": "_voteTime",
							"type": "uint256"
						},
						{
							"internalType": "uint256",
							"name": "_quorum",
							"type": "uint256"
						}
					],
					"stateMutability": "nonpayable",
					"type": "constructor"
				},
				{
					"inputs": [],
					"name": "ProposalList",
					"outputs": [
						{
							"components": [
								{
									"internalType": "uint256",
									"name": "id",
									"type": "uint256"
								},
								{
									"internalType": "string",
									"name": "description",
									"type": "string"
								},
								{
									"internalType": "uint256",
									"name": "amount",
									"type": "uint256"
								},
								{
									"internalType": "address payable",
									"name": "receipient",
									"type": "address"
								},
								{
									"internalType": "uint256",
									"name": "votes",
									"type": "uint256"
								},
								{
									"internalType": "uint256",
									"name": "end",
									"type": "uint256"
								},
								{
									"internalType": "bool",
									"name": "isExecuted",
									"type": "bool"
								}
							],
							"internalType": "struct Dao.Proposal[]",
							"name": "",
							"type": "tuple[]"
						}
					],
					"stateMutability": "view",
					"type": "function"
				},
				{
					"inputs": [],
					"name": "availableFunds",
					"outputs": [
						{
							"internalType": "uint256",
							"name": "",
							"type": "uint256"
						}
					],
					"stateMutability": "view",
					"type": "function"
				},
				{
					"inputs": [],
					"name": "contribution",
					"outputs": [],
					"stateMutability": "payable",
					"type": "function"
				},
				{
					"inputs": [],
					"name": "contributionTimeEnd",
					"outputs": [
						{
							"internalType": "uint256",
							"name": "",
							"type": "uint256"
						}
					],
					"stateMutability": "view",
					"type": "function"
				},
				{
					"inputs": [
						{
							"internalType": "string",
							"name": "description",
							"type": "string"
						},
						{
							"internalType": "uint256",
							"name": "amount",
							"type": "uint256"
						},
						{
							"internalType": "address payable",
							"name": "receipient",
							"type": "address"
						}
					],
					"name": "createProposal",
					"outputs": [],
					"stateMutability": "nonpayable",
					"type": "function"
				},
				{
					"inputs": [
						{
							"internalType": "uint256",
							"name": "proposalId",
							"type": "uint256"
						}
					],
					"name": "executeProposal",
					"outputs": [],
					"stateMutability": "nonpayable",
					"type": "function"
				},
				{
					"inputs": [
						{
							"internalType": "uint256",
							"name": "",
							"type": "uint256"
						}
					],
					"name": "investorsList",
					"outputs": [
						{
							"internalType": "address",
							"name": "",
							"type": "address"
						}
					],
					"stateMutability": "view",
					"type": "function"
				},
				{
					"inputs": [
						{
							"internalType": "address",
							"name": "",
							"type": "address"
						},
						{
							"internalType": "uint256",
							"name": "",
							"type": "uint256"
						}
					],
					"name": "isVoted",
					"outputs": [
						{
							"internalType": "bool",
							"name": "",
							"type": "bool"
						}
					],
					"stateMutability": "view",
					"type": "function"
				},
				{
					"inputs": [],
					"name": "manager",
					"outputs": [
						{
							"internalType": "address",
							"name": "",
							"type": "address"
						}
					],
					"stateMutability": "view",
					"type": "function"
				},
				{
					"inputs": [],
					"name": "nextProposalId",
					"outputs": [
						{
							"internalType": "uint256",
							"name": "",
							"type": "uint256"
						}
					],
					"stateMutability": "view",
					"type": "function"
				},
				{
					"inputs": [
						{
							"internalType": "address",
							"name": "",
							"type": "address"
						}
					],
					"name": "numOfShares",
					"outputs": [
						{
							"internalType": "uint256",
							"name": "",
							"type": "uint256"
						}
					],
					"stateMutability": "view",
					"type": "function"
				},
				{
					"inputs": [
						{
							"internalType": "uint256",
							"name": "",
							"type": "uint256"
						}
					],
					"name": "proposals",
					"outputs": [
						{
							"internalType": "uint256",
							"name": "id",
							"type": "uint256"
						},
						{
							"internalType": "string",
							"name": "description",
							"type": "string"
						},
						{
							"internalType": "uint256",
							"name": "amount",
							"type": "uint256"
						},
						{
							"internalType": "address payable",
							"name": "receipient",
							"type": "address"
						},
						{
							"internalType": "uint256",
							"name": "votes",
							"type": "uint256"
						},
						{
							"internalType": "uint256",
							"name": "end",
							"type": "uint256"
						},
						{
							"internalType": "bool",
							"name": "isExecuted",
							"type": "bool"
						}
					],
					"stateMutability": "view",
					"type": "function"
				},
				{
					"inputs": [],
					"name": "quorum",
					"outputs": [
						{
							"internalType": "uint256",
							"name": "",
							"type": "uint256"
						}
					],
					"stateMutability": "view",
					"type": "function"
				},
				{
					"inputs": [
						{
							"internalType": "uint256",
							"name": "amount",
							"type": "uint256"
						}
					],
					"name": "redeemShare",
					"outputs": [],
					"stateMutability": "nonpayable",
					"type": "function"
				},
				{
					"inputs": [],
					"name": "totalShares",
					"outputs": [
						{
							"internalType": "uint256",
							"name": "",
							"type": "uint256"
						}
					],
					"stateMutability": "view",
					"type": "function"
				},
				{
					"inputs": [
						{
							"internalType": "uint256",
							"name": "amount",
							"type": "uint256"
						},
						{
							"internalType": "address",
							"name": "to",
							"type": "address"
						}
					],
					"name": "transferShare",
					"outputs": [],
					"stateMutability": "nonpayable",
					"type": "function"
				},
				{
					"inputs": [
						{
							"internalType": "uint256",
							"name": "proposalId",
							"type": "uint256"
						}
					],
					"name": "voteProposal",
					"outputs": [],
					"stateMutability": "nonpayable",
					"type": "function"
				},
				{
					"inputs": [],
					"name": "voteTime",
					"outputs": [
						{
							"internalType": "uint256",
							"name": "",
							"type": "uint256"
						}
					],
					"stateMutability": "view",
					"type": "function"
				},
				{
					"inputs": [
						{
							"internalType": "address",
							"name": "",
							"type": "address"
						},
						{
							"internalType": "address",
							"name": "",
							"type": "address"
						}
					],
					"name": "withdrawlStatus",
					"outputs": [
						{
							"internalType": "bool",
							"name": "",
							"type": "bool"
						}
					],
					"stateMutability": "view",
					"type": "function"
				}
			],
			"devdoc": {
				"kind": "dev",
				"methods": {},
				"version": 1
			},
			"evm": {
				"assembly": "    /* \"DAO/DAO.sol\":58:4139  contract Dao {... */\n  mstore(0x40, 0x80)\n    /* \"DAO/DAO.sol\":838:1176  constructor(... */\n  callvalue\n  dup1\n  iszero\n  tag_1\n  jumpi\n  0x00\n  dup1\n  revert\ntag_1:\n  pop\n  mload(0x40)\n  sub(codesize, bytecodeSize)\n  dup1\n  bytecodeSize\n  dup4\n  codecopy\n  dup2\n  dup2\n  add\n  0x40\n  mstore\n  dup2\n  add\n  swap1\n  tag_2\n  swap2\n  swap1\n  tag_3\n  jump\t// in\ntag_2:\n    /* \"DAO/DAO.sol\":974:975  0 */\n  0x00\n    /* \"DAO/DAO.sol\":964:971  _quorum */\n  dup2\n    /* \"DAO/DAO.sol\":964:975  _quorum > 0 */\n  gt\n    /* \"DAO/DAO.sol\":964:992  _quorum > 0 && _quorum < 100 */\n  dup1\n  iszero\n  tag_6\n  jumpi\n  pop\n    /* \"DAO/DAO.sol\":989:992  100 */\n  0x64\n    /* \"DAO/DAO.sol\":979:986  _quorum */\n  dup2\n    /* \"DAO/DAO.sol\":979:992  _quorum < 100 */\n  lt\n    /* \"DAO/DAO.sol\":964:992  _quorum > 0 && _quorum < 100 */\ntag_6:\n    /* \"DAO/DAO.sol\":956:1013  require(_quorum > 0 && _quorum < 100, \"Not Valid Values\") */\n  tag_7\n  jumpi\n  mload(0x40)\n  0x08c379a000000000000000000000000000000000000000000000000000000000\n  dup2\n  mstore\n  0x04\n  add\n  tag_8\n  swap1\n  tag_9\n  jump\t// in\ntag_8:\n  mload(0x40)\n  dup1\n  swap2\n  sub\n  swap1\n  revert\ntag_7:\n    /* \"DAO/DAO.sol\":1063:1083  _contributionTimeEnd */\n  dup3\n    /* \"DAO/DAO.sol\":1045:1060  block.timestamp */\n  timestamp\n    /* \"DAO/DAO.sol\":1045:1083  block.timestamp + _contributionTimeEnd */\n  tag_10\n  swap2\n  swap1\n  tag_11\n  jump\t// in\ntag_10:\n    /* \"DAO/DAO.sol\":1023:1042  contributionTimeEnd */\n  0x08\n    /* \"DAO/DAO.sol\":1023:1083  contributionTimeEnd = block.timestamp + _contributionTimeEnd */\n  dup2\n  swap1\n  sstore\n  pop\n    /* \"DAO/DAO.sol\":1104:1113  _voteTime */\n  dup2\n    /* \"DAO/DAO.sol\":1093:1101  voteTime */\n  0x0a\n    /* \"DAO/DAO.sol\":1093:1113  voteTime = _voteTime */\n  dup2\n  swap1\n  sstore\n  pop\n    /* \"DAO/DAO.sol\":1133:1139  quorum */\n  sload(0x0b)\n    /* \"DAO/DAO.sol\":1123:1139  _quorum = quorum */\n  swap1\n  pop\n    /* \"DAO/DAO.sol\":1159:1169  msg.sender */\n  caller\n    /* \"DAO/DAO.sol\":1149:1156  manager */\n  0x0c\n  0x00\n    /* \"DAO/DAO.sol\":1149:1169  manager = msg.sender */\n  0x0100\n  exp\n  dup2\n  sload\n  dup2\n  0xffffffffffffffffffffffffffffffffffffffff\n  mul\n  not\n  and\n  swap1\n  dup4\n  0xffffffffffffffffffffffffffffffffffffffff\n  and\n  mul\n  or\n  swap1\n  sstore\n  pop\n    /* \"DAO/DAO.sol\":838:1176  constructor(... */\n  pop\n  pop\n  pop\n    /* \"DAO/DAO.sol\":58:4139  contract Dao {... */\n  jump(tag_12)\n    /* \"#utility.yul\":88:205   */\ntag_14:\n    /* \"#utility.yul\":197:198   */\n  0x00\n    /* \"#utility.yul\":194:195   */\n  dup1\n    /* \"#utility.yul\":187:199   */\n  revert\n    /* \"#utility.yul\":334:411   */\ntag_16:\n    /* \"#utility.yul\":371:378   */\n  0x00\n    /* \"#utility.yul\":400:405   */\n  dup2\n    /* \"#utility.yul\":389:405   */\n  swap1\n  pop\n    /* \"#utility.yul\":334:411   */\n  swap2\n  swap1\n  pop\n  jump\t// out\n    /* \"#utility.yul\":417:539   */\ntag_17:\n    /* \"#utility.yul\":490:514   */\n  tag_29\n    /* \"#utility.yul\":508:513   */\n  dup2\n    /* \"#utility.yul\":490:514   */\n  tag_16\n  jump\t// in\ntag_29:\n    /* \"#utility.yul\":483:488   */\n  dup2\n    /* \"#utility.yul\":480:515   */\n  eq\n    /* \"#utility.yul\":470:533   */\n  tag_30\n  jumpi\n    /* \"#utility.yul\":529:530   */\n  0x00\n    /* \"#utility.yul\":526:527   */\n  dup1\n    /* \"#utility.yul\":519:531   */\n  revert\n    /* \"#utility.yul\":470:533   */\ntag_30:\n    /* \"#utility.yul\":417:539   */\n  pop\n  jump\t// out\n    /* \"#utility.yul\":545:688   */\ntag_18:\n    /* \"#utility.yul\":602:607   */\n  0x00\n    /* \"#utility.yul\":633:639   */\n  dup2\n    /* \"#utility.yul\":627:640   */\n  mload\n    /* \"#utility.yul\":618:640   */\n  swap1\n  pop\n    /* \"#utility.yul\":649:682   */\n  tag_32\n    /* \"#utility.yul\":676:681   */\n  dup2\n    /* \"#utility.yul\":649:682   */\n  tag_17\n  jump\t// in\ntag_32:\n    /* \"#utility.yul\":545:688   */\n  swap3\n  swap2\n  pop\n  pop\n  jump\t// out\n    /* \"#utility.yul\":694:1357   */\ntag_3:\n    /* \"#utility.yul\":782:788   */\n  0x00\n    /* \"#utility.yul\":790:796   */\n  dup1\n    /* \"#utility.yul\":798:804   */\n  0x00\n    /* \"#utility.yul\":847:849   */\n  0x60\n    /* \"#utility.yul\":835:844   */\n  dup5\n    /* \"#utility.yul\":826:833   */\n  dup7\n    /* \"#utility.yul\":822:845   */\n  sub\n    /* \"#utility.yul\":818:850   */\n  slt\n    /* \"#utility.yul\":815:934   */\n  iszero\n  tag_34\n  jumpi\n    /* \"#utility.yul\":853:932   */\n  tag_35\n  tag_14\n  jump\t// in\ntag_35:\n    /* \"#utility.yul\":815:934   */\ntag_34:\n    /* \"#utility.yul\":973:974   */\n  0x00\n    /* \"#utility.yul\":998:1062   */\n  tag_36\n    /* \"#utility.yul\":1054:1061   */\n  dup7\n    /* \"#utility.yul\":1045:1051   */\n  dup3\n    /* \"#utility.yul\":1034:1043   */\n  dup8\n    /* \"#utility.yul\":1030:1052   */\n  add\n    /* \"#utility.yul\":998:1062   */\n  tag_18\n  jump\t// in\ntag_36:\n    /* \"#utility.yul\":988:1062   */\n  swap4\n  pop\n    /* \"#utility.yul\":944:1072   */\n  pop\n    /* \"#utility.yul\":1111:1113   */\n  0x20\n    /* \"#utility.yul\":1137:1201   */\n  tag_37\n    /* \"#utility.yul\":1193:1200   */\n  dup7\n    /* \"#utility.yul\":1184:1190   */\n  dup3\n    /* \"#utility.yul\":1173:1182   */\n  dup8\n    /* \"#utility.yul\":1169:1191   */\n  add\n    /* \"#utility.yul\":1137:1201   */\n  tag_18\n  jump\t// in\ntag_37:\n    /* \"#utility.yul\":1127:1201   */\n  swap3\n  pop\n    /* \"#utility.yul\":1082:1211   */\n  pop\n    /* \"#utility.yul\":1250:1252   */\n  0x40\n    /* \"#utility.yul\":1276:1340   */\n  tag_38\n    /* \"#utility.yul\":1332:1339   */\n  dup7\n    /* \"#utility.yul\":1323:1329   */\n  dup3\n    /* \"#utility.yul\":1312:1321   */\n  dup8\n    /* \"#utility.yul\":1308:1330   */\n  add\n    /* \"#utility.yul\":1276:1340   */\n  tag_18\n  jump\t// in\ntag_38:\n    /* \"#utility.yul\":1266:1340   */\n  swap2\n  pop\n    /* \"#utility.yul\":1221:1350   */\n  pop\n    /* \"#utility.yul\":694:1357   */\n  swap3\n  pop\n  swap3\n  pop\n  swap3\n  jump\t// out\n    /* \"#utility.yul\":1363:1532   */\ntag_19:\n    /* \"#utility.yul\":1447:1458   */\n  0x00\n    /* \"#utility.yul\":1481:1487   */\n  dup3\n    /* \"#utility.yul\":1476:1479   */\n  dup3\n    /* \"#utility.yul\":1469:1488   */\n  mstore\n    /* \"#utility.yul\":1521:1525   */\n  0x20\n    /* \"#utility.yul\":1516:1519   */\n  dup3\n    /* \"#utility.yul\":1512:1526   */\n  add\n    /* \"#utility.yul\":1497:1526   */\n  swap1\n  pop\n    /* \"#utility.yul\":1363:1532   */\n  swap3\n  swap2\n  pop\n  pop\n  jump\t// out\n    /* \"#utility.yul\":1538:1704   */\ntag_20:\n    /* \"#utility.yul\":1678:1696   */\n  0x4e6f742056616c69642056616c75657300000000000000000000000000000000\n    /* \"#utility.yul\":1674:1675   */\n  0x00\n    /* \"#utility.yul\":1666:1672   */\n  dup3\n    /* \"#utility.yul\":1662:1676   */\n  add\n    /* \"#utility.yul\":1655:1697   */\n  mstore\n    /* \"#utility.yul\":1538:1704   */\n  pop\n  jump\t// out\n    /* \"#utility.yul\":1710:2076   */\ntag_21:\n    /* \"#utility.yul\":1852:1855   */\n  0x00\n    /* \"#utility.yul\":1873:1940   */\n  tag_42\n    /* \"#utility.yul\":1937:1939   */\n  0x10\n    /* \"#utility.yul\":1932:1935   */\n  dup4\n    /* \"#utility.yul\":1873:1940   */\n  tag_19\n  jump\t// in\ntag_42:\n    /* \"#utility.yul\":1866:1940   */\n  swap2\n  pop\n    /* \"#utility.yul\":1949:2042   */\n  tag_43\n    /* \"#utility.yul\":2038:2041   */\n  dup3\n    /* \"#utility.yul\":1949:2042   */\n  tag_20\n  jump\t// in\ntag_43:\n    /* \"#utility.yul\":2067:2069   */\n  0x20\n    /* \"#utility.yul\":2062:2065   */\n  dup3\n    /* \"#utility.yul\":2058:2070   */\n  add\n    /* \"#utility.yul\":2051:2070   */\n  swap1\n  pop\n    /* \"#utility.yul\":1710:2076   */\n  swap2\n  swap1\n  pop\n  jump\t// out\n    /* \"#utility.yul\":2082:2501   */\ntag_9:\n    /* \"#utility.yul\":2248:2252   */\n  0x00\n    /* \"#utility.yul\":2286:2288   */\n  0x20\n    /* \"#utility.yul\":2275:2284   */\n  dup3\n    /* \"#utility.yul\":2271:2289   */\n  add\n    /* \"#utility.yul\":2263:2289   */\n  swap1\n  pop\n    /* \"#utility.yul\":2335:2344   */\n  dup2\n    /* \"#utility.yul\":2329:2333   */\n  dup2\n    /* \"#utility.yul\":2325:2345   */\n  sub\n    /* \"#utility.yul\":2321:2322   */\n  0x00\n    /* \"#utility.yul\":2310:2319   */\n  dup4\n    /* \"#utility.yul\":2306:2323   */\n  add\n    /* \"#utility.yul\":2299:2346   */\n  mstore\n    /* \"#utility.yul\":2363:2494   */\n  tag_45\n    /* \"#utility.yul\":2489:2493   */\n  dup2\n    /* \"#utility.yul\":2363:2494   */\n  tag_21\n  jump\t// in\ntag_45:\n    /* \"#utility.yul\":2355:2494   */\n  swap1\n  pop\n    /* \"#utility.yul\":2082:2501   */\n  swap2\n  swap1\n  pop\n  jump\t// out\n    /* \"#utility.yul\":2507:2687   */\ntag_22:\n    /* \"#utility.yul\":2555:2632   */\n  0x4e487b7100000000000000000000000000000000000000000000000000000000\n    /* \"#utility.yul\":2552:2553   */\n  0x00\n    /* \"#utility.yul\":2545:2633   */\n  mstore\n    /* \"#utility.yul\":2652:2656   */\n  0x11\n    /* \"#utility.yul\":2649:2650   */\n  0x04\n    /* \"#utility.yul\":2642:2657   */\n  mstore\n    /* \"#utility.yul\":2676:2680   */\n  0x24\n    /* \"#utility.yul\":2673:2674   */\n  0x00\n    /* \"#utility.yul\":2666:2681   */\n  revert\n    /* \"#utility.yul\":2693:2884   */\ntag_11:\n    /* \"#utility.yul\":2733:2736   */\n  0x00\n    /* \"#utility.yul\":2752:2772   */\n  tag_48\n    /* \"#utility.yul\":2770:2771   */\n  dup3\n    /* \"#utility.yul\":2752:2772   */\n  tag_16\n  jump\t// in\ntag_48:\n    /* \"#utility.yul\":2747:2772   */\n  swap2\n  pop\n    /* \"#utility.yul\":2786:2806   */\n  tag_49\n    /* \"#utility.yul\":2804:2805   */\n  dup4\n    /* \"#utility.yul\":2786:2806   */\n  tag_16\n  jump\t// in\ntag_49:\n    /* \"#utility.yul\":2781:2806   */\n  swap3\n  pop\n    /* \"#utility.yul\":2829:2830   */\n  dup3\n    /* \"#utility.yul\":2826:2827   */\n  dup3\n    /* \"#utility.yul\":2822:2831   */\n  add\n    /* \"#utility.yul\":2815:2831   */\n  swap1\n  pop\n    /* \"#utility.yul\":2850:2853   */\n  dup1\n    /* \"#utility.yul\":2847:2848   */\n  dup3\n    /* \"#utility.yul\":2844:2854   */\n  gt\n    /* \"#utility.yul\":2841:2877   */\n  iszero\n  tag_50\n  jumpi\n    /* \"#utility.yul\":2857:2875   */\n  tag_51\n  tag_22\n  jump\t// in\ntag_51:\n    /* \"#utility.yul\":2841:2877   */\ntag_50:\n    /* \"#utility.yul\":2693:2884   */\n  swap3\n  swap2\n  pop\n  pop\n  jump\t// out\n    /* \"DAO/DAO.sol\":58:4139  contract Dao {... */\ntag_12:\n  dataSize(sub_0)\n  dup1\n  dataOffset(sub_0)\n  0x00\n  codecopy\n  0x00\n  return\nstop\n\nsub_0: assembly {\n        /* \"DAO/DAO.sol\":58:4139  contract Dao {... */\n      mstore(0x40, 0x80)\n      jumpi(tag_1, lt(calldatasize, 0x04))\n      shr(0xe0, calldataload(0x00))\n      dup1\n      0x50520b1f\n      gt\n      tag_21\n      jumpi\n      dup1\n      0x868643df\n      gt\n      tag_22\n      jumpi\n      dup1\n      0x868643df\n      eq\n      tag_16\n      jumpi\n      dup1\n      0x8ee36f05\n      eq\n      tag_17\n      jumpi\n      dup1\n      0xafc8275b\n      eq\n      tag_18\n      jumpi\n      dup1\n      0xbcf93dd6\n      eq\n      tag_19\n      jumpi\n      dup1\n      0xdd5fee6f\n      eq\n      tag_20\n      jumpi\n      jump(tag_1)\n    tag_22:\n      dup1\n      0x50520b1f\n      eq\n      tag_11\n      jumpi\n      dup1\n      0x6a907803\n      eq\n      tag_12\n      jumpi\n      dup1\n      0x6ac1e01f\n      eq\n      tag_13\n      jumpi\n      dup1\n      0x6dfc1099\n      eq\n      tag_14\n      jumpi\n      dup1\n      0x807896d5\n      eq\n      tag_15\n      jumpi\n      jump(tag_1)\n    tag_21:\n      dup1\n      0x2ab09d14\n      gt\n      tag_23\n      jumpi\n      dup1\n      0x2ab09d14\n      eq\n      tag_6\n      jumpi\n      dup1\n      0x2ccc8727\n      eq\n      tag_7\n      jumpi\n      dup1\n      0x3a98ef39\n      eq\n      tag_8\n      jumpi\n      dup1\n      0x46fcff4c\n      eq\n      tag_9\n      jumpi\n      dup1\n      0x481c6a75\n      eq\n      tag_10\n      jumpi\n      jump(tag_1)\n    tag_23:\n      dup1\n      0x013cf08b\n      eq\n      tag_2\n      jumpi\n      dup1\n      0x039383e6\n      eq\n      tag_3\n      jumpi\n      dup1\n      0x0d61b519\n      eq\n      tag_4\n      jumpi\n      dup1\n      0x1703a018\n      eq\n      tag_5\n      jumpi\n    tag_1:\n      0x00\n      dup1\n      revert\n        /* \"DAO/DAO.sol\":559:604  mapping(uint256 => Proposal) public proposals */\n    tag_2:\n      callvalue\n      dup1\n      iszero\n      tag_24\n      jumpi\n      0x00\n      dup1\n      revert\n    tag_24:\n      pop\n      tag_25\n      0x04\n      dup1\n      calldatasize\n      sub\n      dup2\n      add\n      swap1\n      tag_26\n      swap2\n      swap1\n      tag_27\n      jump\t// in\n    tag_26:\n      tag_28\n      jump\t// in\n    tag_25:\n      mload(0x40)\n      tag_29\n      swap8\n      swap7\n      swap6\n      swap5\n      swap4\n      swap3\n      swap2\n      swap1\n      tag_30\n      jump\t// in\n    tag_29:\n      mload(0x40)\n      dup1\n      swap2\n      sub\n      swap1\n      return\n        /* \"DAO/DAO.sol\":2233:2675  function transferShare(uint amount,address to)public onlyInvestor(){... */\n    tag_3:\n      callvalue\n      dup1\n      iszero\n      tag_31\n      jumpi\n      0x00\n      dup1\n      revert\n    tag_31:\n      pop\n      tag_32\n      0x04\n      dup1\n      calldatasize\n      sub\n      dup2\n      add\n      swap1\n      tag_33\n      swap2\n      swap1\n      tag_34\n      jump\t// in\n    tag_33:\n      tag_35\n      jump\t// in\n    tag_32:\n      stop\n        /* \"DAO/DAO.sol\":3473:3777  function executeProposal(uint proposalId)public onlyManager(){... */\n    tag_4:\n      callvalue\n      dup1\n      iszero\n      tag_36\n      jumpi\n      0x00\n      dup1\n      revert\n    tag_36:\n      pop\n      tag_37\n      0x04\n      dup1\n      calldatasize\n      sub\n      dup2\n      add\n      swap1\n      tag_38\n      swap2\n      swap1\n      tag_27\n      jump\t// in\n    tag_38:\n      tag_39\n      jump\t// in\n    tag_37:\n      stop\n        /* \"DAO/DAO.sol\":782:803  uint256 public quorum */\n    tag_5:\n      callvalue\n      dup1\n      iszero\n      tag_40\n      jumpi\n      0x00\n      dup1\n      revert\n    tag_40:\n      pop\n      tag_41\n      tag_42\n      jump\t// in\n    tag_41:\n      mload(0x40)\n      tag_43\n      swap2\n      swap1\n      tag_44\n      jump\t// in\n    tag_43:\n      mload(0x40)\n      dup1\n      swap2\n      sub\n      swap1\n      return\n        /* \"DAO/DAO.sol\":718:747  uint256 public nextProposalId */\n    tag_6:\n      callvalue\n      dup1\n      iszero\n      tag_45\n      jumpi\n      0x00\n      dup1\n      revert\n    tag_45:\n      pop\n      tag_46\n      tag_47\n      jump\t// in\n    tag_46:\n      mload(0x40)\n      tag_48\n      swap2\n      swap1\n      tag_44\n      jump\t// in\n    tag_48:\n      mload(0x40)\n      dup1\n      swap2\n      sub\n      swap1\n      return\n        /* \"DAO/DAO.sol\":522:552  address[] public investorsList */\n    tag_7:\n      callvalue\n      dup1\n      iszero\n      tag_49\n      jumpi\n      0x00\n      dup1\n      revert\n    tag_49:\n      pop\n      tag_50\n      0x04\n      dup1\n      calldatasize\n      sub\n      dup2\n      add\n      swap1\n      tag_51\n      swap2\n      swap1\n      tag_27\n      jump\t// in\n    tag_51:\n      tag_52\n      jump\t// in\n    tag_50:\n      mload(0x40)\n      tag_53\n      swap2\n      swap1\n      tag_54\n      jump\t// in\n    tag_53:\n      mload(0x40)\n      dup1\n      swap2\n      sub\n      swap1\n      return\n        /* \"DAO/DAO.sol\":611:637  uint256 public totalShares */\n    tag_8:\n      callvalue\n      dup1\n      iszero\n      tag_55\n      jumpi\n      0x00\n      dup1\n      revert\n    tag_55:\n      pop\n      tag_56\n      tag_57\n      jump\t// in\n    tag_56:\n      mload(0x40)\n      tag_58\n      swap2\n      swap1\n      tag_44\n      jump\t// in\n    tag_58:\n      mload(0x40)\n      dup1\n      swap2\n      sub\n      swap1\n      return\n        /* \"DAO/DAO.sol\":643:672  uint256 public availableFunds */\n    tag_9:\n      callvalue\n      dup1\n      iszero\n      tag_59\n      jumpi\n      0x00\n      dup1\n      revert\n    tag_59:\n      pop\n      tag_60\n      tag_61\n      jump\t// in\n    tag_60:\n      mload(0x40)\n      tag_62\n      swap2\n      swap1\n      tag_44\n      jump\t// in\n    tag_62:\n      mload(0x40)\n      dup1\n      swap2\n      sub\n      swap1\n      return\n        /* \"DAO/DAO.sol\":809:831  address public manager */\n    tag_10:\n      callvalue\n      dup1\n      iszero\n      tag_63\n      jumpi\n      0x00\n      dup1\n      revert\n    tag_63:\n      pop\n      tag_64\n      tag_65\n      jump\t// in\n    tag_64:\n      mload(0x40)\n      tag_66\n      swap2\n      swap1\n      tag_54\n      jump\t// in\n    tag_66:\n      mload(0x40)\n      dup1\n      swap2\n      sub\n      swap1\n      return\n        /* \"DAO/DAO.sol\":1418:1813  function contribution() public payable {... */\n    tag_11:\n      tag_67\n      tag_68\n      jump\t// in\n    tag_67:\n      stop\n        /* \"DAO/DAO.sol\":332:378  mapping(address => uint256) public numOfShares */\n    tag_12:\n      callvalue\n      dup1\n      iszero\n      tag_69\n      jumpi\n      0x00\n      dup1\n      revert\n    tag_69:\n      pop\n      tag_70\n      0x04\n      dup1\n      calldatasize\n      sub\n      dup2\n      add\n      swap1\n      tag_71\n      swap2\n      swap1\n      tag_72\n      jump\t// in\n    tag_71:\n      tag_73\n      jump\t// in\n    tag_70:\n      mload(0x40)\n      tag_74\n      swap2\n      swap1\n      tag_44\n      jump\t// in\n    tag_74:\n      mload(0x40)\n      dup1\n      swap2\n      sub\n      swap1\n      return\n        /* \"DAO/DAO.sol\":2680:3005  function createProposal(string calldata description,uint amount,address payable receipient)public onlyManager{... */\n    tag_13:\n      callvalue\n      dup1\n      iszero\n      tag_75\n      jumpi\n      0x00\n      dup1\n      revert\n    tag_75:\n      pop\n      tag_76\n      0x04\n      dup1\n      calldatasize\n      sub\n      dup2\n      add\n      swap1\n      tag_77\n      swap2\n      swap1\n      tag_78\n      jump\t// in\n    tag_77:\n      tag_79\n      jump\t// in\n    tag_76:\n      stop\n        /* \"DAO/DAO.sol\":3896:4137  function ProposalList() public view returns(Proposal[] memory){... */\n    tag_14:\n      callvalue\n      dup1\n      iszero\n      tag_80\n      jumpi\n      0x00\n      dup1\n      revert\n    tag_80:\n      pop\n      tag_81\n      tag_82\n      jump\t// in\n    tag_81:\n      mload(0x40)\n      tag_83\n      swap2\n      swap1\n      tag_84\n      jump\t// in\n    tag_83:\n      mload(0x40)\n      dup1\n      swap2\n      sub\n      swap1\n      return\n        /* \"DAO/DAO.sol\":3010:3468  function voteProposal(uint proposalId)public onlyInvestor(){... */\n    tag_15:\n      callvalue\n      dup1\n      iszero\n      tag_85\n      jumpi\n      0x00\n      dup1\n      revert\n    tag_85:\n      pop\n      tag_86\n      0x04\n      dup1\n      calldatasize\n      sub\n      dup2\n      add\n      swap1\n      tag_87\n      swap2\n      swap1\n      tag_27\n      jump\t// in\n    tag_87:\n      tag_88\n      jump\t// in\n    tag_86:\n      stop\n        /* \"DAO/DAO.sol\":1818:2228  function redeemShare(uint amount)public onlyInvestor{... */\n    tag_16:\n      callvalue\n      dup1\n      iszero\n      tag_89\n      jumpi\n      0x00\n      dup1\n      revert\n    tag_89:\n      pop\n      tag_90\n      0x04\n      dup1\n      calldatasize\n      sub\n      dup2\n      add\n      swap1\n      tag_91\n      swap2\n      swap1\n      tag_27\n      jump\t// in\n    tag_91:\n      tag_92\n      jump\t// in\n    tag_90:\n      stop\n        /* \"DAO/DAO.sol\":384:443  mapping(address => mapping(uint256 => bool)) public isVoted */\n    tag_17:\n      callvalue\n      dup1\n      iszero\n      tag_93\n      jumpi\n      0x00\n      dup1\n      revert\n    tag_93:\n      pop\n      tag_94\n      0x04\n      dup1\n      calldatasize\n      sub\n      dup2\n      add\n      swap1\n      tag_95\n      swap2\n      swap1\n      tag_96\n      jump\t// in\n    tag_95:\n      tag_97\n      jump\t// in\n    tag_94:\n      mload(0x40)\n      tag_98\n      swap2\n      swap1\n      tag_99\n      jump\t// in\n    tag_98:\n      mload(0x40)\n      dup1\n      swap2\n      sub\n      swap1\n      return\n        /* \"DAO/DAO.sol\":678:712  uint256 public contributionTimeEnd */\n    tag_18:\n      callvalue\n      dup1\n      iszero\n      tag_100\n      jumpi\n      0x00\n      dup1\n      revert\n    tag_100:\n      pop\n      tag_101\n      tag_102\n      jump\t// in\n    tag_101:\n      mload(0x40)\n      tag_103\n      swap2\n      swap1\n      tag_44\n      jump\t// in\n    tag_103:\n      mload(0x40)\n      dup1\n      swap2\n      sub\n      swap1\n      return\n        /* \"DAO/DAO.sol\":753:776  uint256 public voteTime */\n    tag_19:\n      callvalue\n      dup1\n      iszero\n      tag_104\n      jumpi\n      0x00\n      dup1\n      revert\n    tag_104:\n      pop\n      tag_105\n      tag_106\n      jump\t// in\n    tag_105:\n      mload(0x40)\n      tag_107\n      swap2\n      swap1\n      tag_44\n      jump\t// in\n    tag_107:\n      mload(0x40)\n      dup1\n      swap2\n      sub\n      swap1\n      return\n        /* \"DAO/DAO.sol\":449:516  mapping(address => mapping(address => bool)) public withdrawlStatus */\n    tag_20:\n      callvalue\n      dup1\n      iszero\n      tag_108\n      jumpi\n      0x00\n      dup1\n      revert\n    tag_108:\n      pop\n      tag_109\n      0x04\n      dup1\n      calldatasize\n      sub\n      dup2\n      add\n      swap1\n      tag_110\n      swap2\n      swap1\n      tag_111\n      jump\t// in\n    tag_110:\n      tag_112\n      jump\t// in\n    tag_109:\n      mload(0x40)\n      tag_113\n      swap2\n      swap1\n      tag_99\n      jump\t// in\n    tag_113:\n      mload(0x40)\n      dup1\n      swap2\n      sub\n      swap1\n      return\n        /* \"DAO/DAO.sol\":559:604  mapping(uint256 => Proposal) public proposals */\n    tag_28:\n      mstore(0x20, 0x05)\n      dup1\n      0x00\n      mstore\n      keccak256(0x00, 0x40)\n      0x00\n      swap2\n      pop\n      swap1\n      pop\n      dup1\n      0x00\n      add\n      sload\n      swap1\n      dup1\n      0x01\n      add\n      dup1\n      sload\n      tag_114\n      swap1\n      tag_115\n      jump\t// in\n    tag_114:\n      dup1\n      0x1f\n      add\n      0x20\n      dup1\n      swap2\n      div\n      mul\n      0x20\n      add\n      mload(0x40)\n      swap1\n      dup2\n      add\n      0x40\n      mstore\n      dup1\n      swap3\n      swap2\n      swap1\n      dup2\n      dup2\n      mstore\n      0x20\n      add\n      dup3\n      dup1\n      sload\n      tag_116\n      swap1\n      tag_115\n      jump\t// in\n    tag_116:\n      dup1\n      iszero\n      tag_117\n      jumpi\n      dup1\n      0x1f\n      lt\n      tag_118\n      jumpi\n      0x0100\n      dup1\n      dup4\n      sload\n      div\n      mul\n      dup4\n      mstore\n      swap2\n      0x20\n      add\n      swap2\n      jump(tag_117)\n    tag_118:\n      dup3\n      add\n      swap2\n      swap1\n      0x00\n      mstore\n      keccak256(0x00, 0x20)\n      swap1\n    tag_119:\n      dup2\n      sload\n      dup2\n      mstore\n      swap1\n      0x01\n      add\n      swap1\n      0x20\n      add\n      dup1\n      dup4\n      gt\n      tag_119\n      jumpi\n      dup3\n      swap1\n      sub\n      0x1f\n      and\n      dup3\n      add\n      swap2\n    tag_117:\n      pop\n      pop\n      pop\n      pop\n      pop\n      swap1\n      dup1\n      0x02\n      add\n      sload\n      swap1\n      dup1\n      0x03\n      add\n      0x00\n      swap1\n      sload\n      swap1\n      0x0100\n      exp\n      swap1\n      div\n      0xffffffffffffffffffffffffffffffffffffffff\n      and\n      swap1\n      dup1\n      0x04\n      add\n      sload\n      swap1\n      dup1\n      0x05\n      add\n      sload\n      swap1\n      dup1\n      0x06\n      add\n      0x00\n      swap1\n      sload\n      swap1\n      0x0100\n      exp\n      swap1\n      div\n      0xff\n      and\n      swap1\n      pop\n      dup8\n      jump\t// out\n        /* \"DAO/DAO.sol\":2233:2675  function transferShare(uint amount,address to)public onlyInvestor(){... */\n    tag_35:\n        /* \"DAO/DAO.sol\":1250:1254  true */\n      0x01\n        /* \"DAO/DAO.sol\":1224:1254  isInvestor[msg.sender] == true */\n      iszero\n      iszero\n        /* \"DAO/DAO.sol\":1224:1234  isInvestor */\n      0x00\n        /* \"DAO/DAO.sol\":1224:1246  isInvestor[msg.sender] */\n      dup1\n        /* \"DAO/DAO.sol\":1235:1245  msg.sender */\n      caller\n        /* \"DAO/DAO.sol\":1224:1246  isInvestor[msg.sender] */\n      0xffffffffffffffffffffffffffffffffffffffff\n      and\n      0xffffffffffffffffffffffffffffffffffffffff\n      and\n      dup2\n      mstore\n      0x20\n      add\n      swap1\n      dup2\n      mstore\n      0x20\n      add\n      0x00\n      keccak256\n      0x00\n      swap1\n      sload\n      swap1\n      0x0100\n      exp\n      swap1\n      div\n      0xff\n      and\n        /* \"DAO/DAO.sol\":1224:1254  isInvestor[msg.sender] == true */\n      iszero\n      iszero\n      eq\n        /* \"DAO/DAO.sol\":1216:1282  require(isInvestor[msg.sender] == true, \"You are not an investor\") */\n      tag_121\n      jumpi\n      mload(0x40)\n      0x08c379a000000000000000000000000000000000000000000000000000000000\n      dup2\n      mstore\n      0x04\n      add\n      tag_122\n      swap1\n      tag_123\n      jump\t// in\n    tag_122:\n      mload(0x40)\n      dup1\n      swap2\n      sub\n      swap1\n      revert\n    tag_121:\n        /* \"DAO/DAO.sol\":2334:2340  amount */\n      dup2\n        /* \"DAO/DAO.sol\":2318:2332  availableFunds */\n      sload(0x07)\n        /* \"DAO/DAO.sol\":2318:2340  availableFunds>=amount */\n      lt\n      iszero\n        /* \"DAO/DAO.sol\":2310:2360  require(availableFunds>=amount,\"Not enough funds\") */\n      tag_125\n      jumpi\n      mload(0x40)\n      0x08c379a000000000000000000000000000000000000000000000000000000000\n      dup2\n      mstore\n      0x04\n      add\n      tag_126\n      swap1\n      tag_127\n      jump\t// in\n    tag_126:\n      mload(0x40)\n      dup1\n      swap2\n      sub\n      swap1\n      revert\n    tag_125:\n        /* \"DAO/DAO.sol\":2403:2409  amount */\n      dup2\n        /* \"DAO/DAO.sol\":2378:2389  numOfShares */\n      0x01\n        /* \"DAO/DAO.sol\":2378:2401  numOfShares[msg.sender] */\n      0x00\n        /* \"DAO/DAO.sol\":2390:2400  msg.sender */\n      caller\n        /* \"DAO/DAO.sol\":2378:2401  numOfShares[msg.sender] */\n      0xffffffffffffffffffffffffffffffffffffffff\n      and\n      0xffffffffffffffffffffffffffffffffffffffff\n      and\n      dup2\n      mstore\n      0x20\n      add\n      swap1\n      dup2\n      mstore\n      0x20\n      add\n      0x00\n      keccak256\n      sload\n        /* \"DAO/DAO.sol\":2378:2409  numOfShares[msg.sender]>=amount */\n      lt\n      iszero\n        /* \"DAO/DAO.sol\":2370:2440  require(numOfShares[msg.sender]>=amount,\"you dont have enough shares\") */\n      tag_128\n      jumpi\n      mload(0x40)\n      0x08c379a000000000000000000000000000000000000000000000000000000000\n      dup2\n      mstore\n      0x04\n      add\n      tag_129\n      swap1\n      tag_130\n      jump\t// in\n    tag_129:\n      mload(0x40)\n      dup1\n      swap2\n      sub\n      swap1\n      revert\n    tag_128:\n        /* \"DAO/DAO.sol\":2475:2481  amount */\n      dup2\n        /* \"DAO/DAO.sol\":2450:2461  numOfShares */\n      0x01\n        /* \"DAO/DAO.sol\":2450:2473  numOfShares[msg.sender] */\n      0x00\n        /* \"DAO/DAO.sol\":2462:2472  msg.sender */\n      caller\n        /* \"DAO/DAO.sol\":2450:2473  numOfShares[msg.sender] */\n      0xffffffffffffffffffffffffffffffffffffffff\n      and\n      0xffffffffffffffffffffffffffffffffffffffff\n      and\n      dup2\n      mstore\n      0x20\n      add\n      swap1\n      dup2\n      mstore\n      0x20\n      add\n      0x00\n      keccak256\n      0x00\n        /* \"DAO/DAO.sol\":2450:2481  numOfShares[msg.sender]-=amount */\n      dup3\n      dup3\n      sload\n      tag_131\n      swap2\n      swap1\n      tag_132\n      jump\t// in\n    tag_131:\n      swap3\n      pop\n      pop\n      dup2\n      swap1\n      sstore\n      pop\n        /* \"DAO/DAO.sol\":2519:2520  0 */\n      0x00\n        /* \"DAO/DAO.sol\":2494:2505  numOfShares */\n      0x01\n        /* \"DAO/DAO.sol\":2494:2517  numOfShares[msg.sender] */\n      0x00\n        /* \"DAO/DAO.sol\":2506:2516  msg.sender */\n      caller\n        /* \"DAO/DAO.sol\":2494:2517  numOfShares[msg.sender] */\n      0xffffffffffffffffffffffffffffffffffffffff\n      and\n      0xffffffffffffffffffffffffffffffffffffffff\n      and\n      dup2\n      mstore\n      0x20\n      add\n      swap1\n      dup2\n      mstore\n      0x20\n      add\n      0x00\n      keccak256\n      sload\n        /* \"DAO/DAO.sol\":2494:2520  numOfShares[msg.sender]==0 */\n      sub\n        /* \"DAO/DAO.sol\":2491:2574  if(numOfShares[msg.sender]==0){... */\n      tag_133\n      jumpi\n        /* \"DAO/DAO.sol\":2558:2563  false */\n      0x00\n        /* \"DAO/DAO.sol\":2535:2545  isInvestor */\n      dup1\n        /* \"DAO/DAO.sol\":2535:2557  isInvestor[msg.sender] */\n      0x00\n        /* \"DAO/DAO.sol\":2546:2556  msg.sender */\n      caller\n        /* \"DAO/DAO.sol\":2535:2557  isInvestor[msg.sender] */\n      0xffffffffffffffffffffffffffffffffffffffff\n      and\n      0xffffffffffffffffffffffffffffffffffffffff\n      and\n      dup2\n      mstore\n      0x20\n      add\n      swap1\n      dup2\n      mstore\n      0x20\n      add\n      0x00\n      keccak256\n      0x00\n        /* \"DAO/DAO.sol\":2535:2563  isInvestor[msg.sender]=false */\n      0x0100\n      exp\n      dup2\n      sload\n      dup2\n      0xff\n      mul\n      not\n      and\n      swap1\n      dup4\n      iszero\n      iszero\n      mul\n      or\n      swap1\n      sstore\n      pop\n        /* \"DAO/DAO.sol\":2491:2574  if(numOfShares[msg.sender]==0){... */\n    tag_133:\n        /* \"DAO/DAO.sol\":2600:2606  amount */\n      dup2\n        /* \"DAO/DAO.sol\":2583:2594  numOfShares */\n      0x01\n        /* \"DAO/DAO.sol\":2583:2598  numOfShares[to] */\n      0x00\n        /* \"DAO/DAO.sol\":2595:2597  to */\n      dup4\n        /* \"DAO/DAO.sol\":2583:2598  numOfShares[to] */\n      0xffffffffffffffffffffffffffffffffffffffff\n      and\n      0xffffffffffffffffffffffffffffffffffffffff\n      and\n      dup2\n      mstore\n      0x20\n      add\n      swap1\n      dup2\n      mstore\n      0x20\n      add\n      0x00\n      keccak256\n      0x00\n        /* \"DAO/DAO.sol\":2583:2606  numOfShares[to]+=amount */\n      dup3\n      dup3\n      sload\n      tag_134\n      swap2\n      swap1\n      tag_135\n      jump\t// in\n    tag_134:\n      swap3\n      pop\n      pop\n      dup2\n      swap1\n      sstore\n      pop\n        /* \"DAO/DAO.sol\":2631:2635  true */\n      0x01\n        /* \"DAO/DAO.sol\":2616:2626  isInvestor */\n      0x00\n        /* \"DAO/DAO.sol\":2616:2630  isInvestor[to] */\n      dup1\n        /* \"DAO/DAO.sol\":2627:2629  to */\n      dup4\n        /* \"DAO/DAO.sol\":2616:2630  isInvestor[to] */\n      0xffffffffffffffffffffffffffffffffffffffff\n      and\n      0xffffffffffffffffffffffffffffffffffffffff\n      and\n      dup2\n      mstore\n      0x20\n      add\n      swap1\n      dup2\n      mstore\n      0x20\n      add\n      0x00\n      keccak256\n      0x00\n        /* \"DAO/DAO.sol\":2616:2635  isInvestor[to]=true */\n      0x0100\n      exp\n      dup2\n      sload\n      dup2\n      0xff\n      mul\n      not\n      and\n      swap1\n      dup4\n      iszero\n      iszero\n      mul\n      or\n      swap1\n      sstore\n      pop\n        /* \"DAO/DAO.sol\":2645:2658  investorsList */\n      0x04\n        /* \"DAO/DAO.sol\":2664:2666  to */\n      dup2\n        /* \"DAO/DAO.sol\":2645:2667  investorsList.push(to) */\n      swap1\n      dup1\n      0x01\n      dup2\n      sload\n      add\n      dup1\n      dup3\n      sstore\n      dup1\n      swap2\n      pop\n      pop\n      0x01\n      swap1\n      sub\n      swap1\n      0x00\n      mstore\n      keccak256(0x00, 0x20)\n      add\n      0x00\n      swap1\n      swap2\n      swap1\n      swap2\n      swap1\n      swap2\n      0x0100\n      exp\n      dup2\n      sload\n      dup2\n      0xffffffffffffffffffffffffffffffffffffffff\n      mul\n      not\n      and\n      swap1\n      dup4\n      0xffffffffffffffffffffffffffffffffffffffff\n      and\n      mul\n      or\n      swap1\n      sstore\n      pop\n        /* \"DAO/DAO.sol\":2233:2675  function transferShare(uint amount,address to)public onlyInvestor(){... */\n      pop\n      pop\n      jump\t// out\n        /* \"DAO/DAO.sol\":3473:3777  function executeProposal(uint proposalId)public onlyManager(){... */\n    tag_39:\n        /* \"DAO/DAO.sol\":1357:1367  msg.sender */\n      caller\n        /* \"DAO/DAO.sol\":1346:1367  manager == msg.sender */\n      0xffffffffffffffffffffffffffffffffffffffff\n      and\n        /* \"DAO/DAO.sol\":1346:1353  manager */\n      0x0c\n      0x00\n      swap1\n      sload\n      swap1\n      0x0100\n      exp\n      swap1\n      div\n      0xffffffffffffffffffffffffffffffffffffffff\n      and\n        /* \"DAO/DAO.sol\":1346:1367  manager == msg.sender */\n      0xffffffffffffffffffffffffffffffffffffffff\n      and\n      eq\n        /* \"DAO/DAO.sol\":1338:1394  require(manager == msg.sender, \"You are not an manager\") */\n      tag_138\n      jumpi\n      mload(0x40)\n      0x08c379a000000000000000000000000000000000000000000000000000000000\n      dup2\n      mstore\n      0x04\n      add\n      tag_139\n      swap1\n      tag_140\n      jump\t// in\n    tag_139:\n      mload(0x40)\n      dup1\n      swap2\n      sub\n      swap1\n      revert\n    tag_138:\n        /* \"DAO/DAO.sol\":3544:3569  Proposal storage proposal */\n      0x00\n        /* \"DAO/DAO.sol\":3570:3579  proposals */\n      0x05\n        /* \"DAO/DAO.sol\":3570:3591  proposals[proposalId] */\n      0x00\n        /* \"DAO/DAO.sol\":3580:3590  proposalId */\n      dup4\n        /* \"DAO/DAO.sol\":3570:3591  proposals[proposalId] */\n      dup2\n      mstore\n      0x20\n      add\n      swap1\n      dup2\n      mstore\n      0x20\n      add\n      0x00\n      keccak256\n        /* \"DAO/DAO.sol\":3544:3591  Proposal storage proposal=proposals[proposalId] */\n      swap1\n      pop\n        /* \"DAO/DAO.sol\":3645:3651  quorum */\n      sload(0x0b)\n        /* \"DAO/DAO.sol\":3631:3642  totalShares */\n      sload(0x06)\n        /* \"DAO/DAO.sol\":3626:3629  100 */\n      0x64\n        /* \"DAO/DAO.sol\":3611:3619  proposal */\n      dup4\n        /* \"DAO/DAO.sol\":3611:3625  proposal.votes */\n      0x04\n      add\n      sload\n        /* \"DAO/DAO.sol\":3611:3629  proposal.votes*100 */\n      tag_142\n      swap2\n      swap1\n      tag_143\n      jump\t// in\n    tag_142:\n        /* \"DAO/DAO.sol\":3610:3642  (proposal.votes*100)/totalShares */\n      tag_144\n      swap2\n      swap1\n      tag_145\n      jump\t// in\n    tag_144:\n        /* \"DAO/DAO.sol\":3609:3651  ((proposal.votes*100)/totalShares)>=quorum */\n      lt\n      iszero\n        /* \"DAO/DAO.sol\":3601:3680  require(((proposal.votes*100)/totalShares)>=quorum,\"Majority does not support\") */\n      tag_146\n      jumpi\n      mload(0x40)\n      0x08c379a000000000000000000000000000000000000000000000000000000000\n      dup2\n      mstore\n      0x04\n      add\n      tag_147\n      swap1\n      tag_148\n      jump\t// in\n    tag_147:\n      mload(0x40)\n      dup1\n      swap2\n      sub\n      swap1\n      revert\n    tag_146:\n        /* \"DAO/DAO.sol\":3710:3714  true */\n      0x01\n        /* \"DAO/DAO.sol\":3690:3698  proposal */\n      dup2\n        /* \"DAO/DAO.sol\":3690:3709  proposal.isExecuted */\n      0x06\n      add\n      0x00\n        /* \"DAO/DAO.sol\":3690:3714  proposal.isExecuted=true */\n      0x0100\n      exp\n      dup2\n      sload\n      dup2\n      0xff\n      mul\n      not\n      and\n      swap1\n      dup4\n      iszero\n      iszero\n      mul\n      or\n      swap1\n      sstore\n      pop\n        /* \"DAO/DAO.sol\":3724:3770  _transfer(proposal.amount,proposal.receipient) */\n      tag_149\n        /* \"DAO/DAO.sol\":3734:3742  proposal */\n      dup2\n        /* \"DAO/DAO.sol\":3734:3749  proposal.amount */\n      0x02\n      add\n      sload\n        /* \"DAO/DAO.sol\":3750:3758  proposal */\n      dup3\n        /* \"DAO/DAO.sol\":3750:3769  proposal.receipient */\n      0x03\n      add\n      0x00\n      swap1\n      sload\n      swap1\n      0x0100\n      exp\n      swap1\n      div\n      0xffffffffffffffffffffffffffffffffffffffff\n      and\n        /* \"DAO/DAO.sol\":3724:3733  _transfer */\n      tag_150\n        /* \"DAO/DAO.sol\":3724:3770  _transfer(proposal.amount,proposal.receipient) */\n      jump\t// in\n    tag_149:\n        /* \"DAO/DAO.sol\":3534:3777  {... */\n      pop\n        /* \"DAO/DAO.sol\":3473:3777  function executeProposal(uint proposalId)public onlyManager(){... */\n      pop\n      jump\t// out\n        /* \"DAO/DAO.sol\":782:803  uint256 public quorum */\n    tag_42:\n      sload(0x0b)\n      dup2\n      jump\t// out\n        /* \"DAO/DAO.sol\":718:747  uint256 public nextProposalId */\n    tag_47:\n      sload(0x09)\n      dup2\n      jump\t// out\n        /* \"DAO/DAO.sol\":522:552  address[] public investorsList */\n    tag_52:\n      0x04\n      dup2\n      dup2\n      sload\n      dup2\n      lt\n      tag_151\n      jumpi\n      0x00\n      dup1\n      revert\n    tag_151:\n      swap1\n      0x00\n      mstore\n      keccak256(0x00, 0x20)\n      add\n      0x00\n      swap2\n      pop\n      sload\n      swap1\n      0x0100\n      exp\n      swap1\n      div\n      0xffffffffffffffffffffffffffffffffffffffff\n      and\n      dup2\n      jump\t// out\n        /* \"DAO/DAO.sol\":611:637  uint256 public totalShares */\n    tag_57:\n      sload(0x06)\n      dup2\n      jump\t// out\n        /* \"DAO/DAO.sol\":643:672  uint256 public availableFunds */\n    tag_61:\n      sload(0x07)\n      dup2\n      jump\t// out\n        /* \"DAO/DAO.sol\":809:831  address public manager */\n    tag_65:\n      0x0c\n      0x00\n      swap1\n      sload\n      swap1\n      0x0100\n      exp\n      swap1\n      div\n      0xffffffffffffffffffffffffffffffffffffffff\n      and\n      dup2\n      jump\t// out\n        /* \"DAO/DAO.sol\":1418:1813  function contribution() public payable {... */\n    tag_68:\n        /* \"DAO/DAO.sol\":1498:1513  block.timestamp */\n      timestamp\n        /* \"DAO/DAO.sol\":1475:1494  contributionTimeEnd */\n      sload(0x08)\n        /* \"DAO/DAO.sol\":1475:1513  contributionTimeEnd >= block.timestamp */\n      lt\n      iszero\n        /* \"DAO/DAO.sol\":1467:1540  require(contributionTimeEnd >= block.timestamp,\"Contribution time ended\") */\n      tag_154\n      jumpi\n      mload(0x40)\n      0x08c379a000000000000000000000000000000000000000000000000000000000\n      dup2\n      mstore\n      0x04\n      add\n      tag_155\n      swap1\n      tag_156\n      jump\t// in\n    tag_155:\n      mload(0x40)\n      dup1\n      swap2\n      sub\n      swap1\n      revert\n    tag_154:\n        /* \"DAO/DAO.sol\":1568:1569  0 */\n      0x00\n        /* \"DAO/DAO.sol\":1558:1567  msg.value */\n      callvalue\n        /* \"DAO/DAO.sol\":1558:1569  msg.value>0 */\n      gt\n        /* \"DAO/DAO.sol\":1550:1595  require(msg.value>0,\"Send more than 0 ether\") */\n      tag_157\n      jumpi\n      mload(0x40)\n      0x08c379a000000000000000000000000000000000000000000000000000000000\n      dup2\n      mstore\n      0x04\n      add\n      tag_158\n      swap1\n      tag_159\n      jump\t// in\n    tag_158:\n      mload(0x40)\n      dup1\n      swap2\n      sub\n      swap1\n      revert\n    tag_157:\n        /* \"DAO/DAO.sol\":1628:1632  true */\n      0x01\n        /* \"DAO/DAO.sol\":1605:1615  isInvestor */\n      0x00\n        /* \"DAO/DAO.sol\":1605:1627  isInvestor[msg.sender] */\n      dup1\n        /* \"DAO/DAO.sol\":1616:1626  msg.sender */\n      caller\n        /* \"DAO/DAO.sol\":1605:1627  isInvestor[msg.sender] */\n      0xffffffffffffffffffffffffffffffffffffffff\n      and\n      0xffffffffffffffffffffffffffffffffffffffff\n      and\n      dup2\n      mstore\n      0x20\n      add\n      swap1\n      dup2\n      mstore\n      0x20\n      add\n      0x00\n      keccak256\n      0x00\n        /* \"DAO/DAO.sol\":1605:1632  isInvestor[msg.sender]=true */\n      0x0100\n      exp\n      dup2\n      sload\n      dup2\n      0xff\n      mul\n      not\n      and\n      swap1\n      dup4\n      iszero\n      iszero\n      mul\n      or\n      swap1\n      sstore\n      pop\n        /* \"DAO/DAO.sol\":1690:1699  msg.value */\n      callvalue\n        /* \"DAO/DAO.sol\":1666:1677  numOfShares */\n      0x01\n        /* \"DAO/DAO.sol\":1666:1689  numOfShares[msg.sender] */\n      0x00\n        /* \"DAO/DAO.sol\":1678:1688  msg.sender */\n      caller\n        /* \"DAO/DAO.sol\":1666:1689  numOfShares[msg.sender] */\n      0xffffffffffffffffffffffffffffffffffffffff\n      and\n      0xffffffffffffffffffffffffffffffffffffffff\n      and\n      dup2\n      mstore\n      0x20\n      add\n      swap1\n      dup2\n      mstore\n      0x20\n      add\n      0x00\n      keccak256\n      sload\n        /* \"DAO/DAO.sol\":1666:1699  numOfShares[msg.sender]+msg.value */\n      tag_160\n      swap2\n      swap1\n      tag_135\n      jump\t// in\n    tag_160:\n        /* \"DAO/DAO.sol\":1642:1653  numOfShares */\n      0x01\n        /* \"DAO/DAO.sol\":1642:1665  numOfShares[msg.sender] */\n      0x00\n        /* \"DAO/DAO.sol\":1654:1664  msg.sender */\n      caller\n        /* \"DAO/DAO.sol\":1642:1665  numOfShares[msg.sender] */\n      0xffffffffffffffffffffffffffffffffffffffff\n      and\n      0xffffffffffffffffffffffffffffffffffffffff\n      and\n      dup2\n      mstore\n      0x20\n      add\n      swap1\n      dup2\n      mstore\n      0x20\n      add\n      0x00\n      keccak256\n        /* \"DAO/DAO.sol\":1642:1699  numOfShares[msg.sender]=numOfShares[msg.sender]+msg.value */\n      dup2\n      swap1\n      sstore\n      pop\n        /* \"DAO/DAO.sol\":1722:1731  msg.value */\n      callvalue\n        /* \"DAO/DAO.sol\":1709:1720  totalShares */\n      0x06\n      0x00\n        /* \"DAO/DAO.sol\":1709:1731  totalShares+=msg.value */\n      dup3\n      dup3\n      sload\n      tag_161\n      swap2\n      swap1\n      tag_135\n      jump\t// in\n    tag_161:\n      swap3\n      pop\n      pop\n      dup2\n      swap1\n      sstore\n      pop\n        /* \"DAO/DAO.sol\":1757:1766  msg.value */\n      callvalue\n        /* \"DAO/DAO.sol\":1741:1755  availableFunds */\n      0x07\n      0x00\n        /* \"DAO/DAO.sol\":1741:1766  availableFunds+=msg.value */\n      dup3\n      dup3\n      sload\n      tag_162\n      swap2\n      swap1\n      tag_135\n      jump\t// in\n    tag_162:\n      swap3\n      pop\n      pop\n      dup2\n      swap1\n      sstore\n      pop\n        /* \"DAO/DAO.sol\":1776:1789  investorsList */\n      0x04\n        /* \"DAO/DAO.sol\":1795:1805  msg.sender */\n      caller\n        /* \"DAO/DAO.sol\":1776:1806  investorsList.push(msg.sender) */\n      swap1\n      dup1\n      0x01\n      dup2\n      sload\n      add\n      dup1\n      dup3\n      sstore\n      dup1\n      swap2\n      pop\n      pop\n      0x01\n      swap1\n      sub\n      swap1\n      0x00\n      mstore\n      keccak256(0x00, 0x20)\n      add\n      0x00\n      swap1\n      swap2\n      swap1\n      swap2\n      swap1\n      swap2\n      0x0100\n      exp\n      dup2\n      sload\n      dup2\n      0xffffffffffffffffffffffffffffffffffffffff\n      mul\n      not\n      and\n      swap1\n      dup4\n      0xffffffffffffffffffffffffffffffffffffffff\n      and\n      mul\n      or\n      swap1\n      sstore\n      pop\n        /* \"DAO/DAO.sol\":1418:1813  function contribution() public payable {... */\n      jump\t// out\n        /* \"DAO/DAO.sol\":332:378  mapping(address => uint256) public numOfShares */\n    tag_73:\n      mstore(0x20, 0x01)\n      dup1\n      0x00\n      mstore\n      keccak256(0x00, 0x40)\n      0x00\n      swap2\n      pop\n      swap1\n      pop\n      sload\n      dup2\n      jump\t// out\n        /* \"DAO/DAO.sol\":2680:3005  function createProposal(string calldata description,uint amount,address payable receipient)public onlyManager{... */\n    tag_79:\n        /* \"DAO/DAO.sol\":1357:1367  msg.sender */\n      caller\n        /* \"DAO/DAO.sol\":1346:1367  manager == msg.sender */\n      0xffffffffffffffffffffffffffffffffffffffff\n      and\n        /* \"DAO/DAO.sol\":1346:1353  manager */\n      0x0c\n      0x00\n      swap1\n      sload\n      swap1\n      0x0100\n      exp\n      swap1\n      div\n      0xffffffffffffffffffffffffffffffffffffffff\n      and\n        /* \"DAO/DAO.sol\":1346:1367  manager == msg.sender */\n      0xffffffffffffffffffffffffffffffffffffffff\n      and\n      eq\n        /* \"DAO/DAO.sol\":1338:1394  require(manager == msg.sender, \"You are not an manager\") */\n      tag_165\n      jumpi\n      mload(0x40)\n      0x08c379a000000000000000000000000000000000000000000000000000000000\n      dup2\n      mstore\n      0x04\n      add\n      tag_166\n      swap1\n      tag_140\n      jump\t// in\n    tag_166:\n      mload(0x40)\n      dup1\n      swap2\n      sub\n      swap1\n      revert\n    tag_165:\n        /* \"DAO/DAO.sol\":2823:2829  amount */\n      dup2\n        /* \"DAO/DAO.sol\":2807:2821  availableFunds */\n      sload(0x07)\n        /* \"DAO/DAO.sol\":2807:2829  availableFunds>=amount */\n      lt\n      iszero\n        /* \"DAO/DAO.sol\":2799:2849  require(availableFunds>=amount,\"Not enough funds\") */\n      tag_168\n      jumpi\n      mload(0x40)\n      0x08c379a000000000000000000000000000000000000000000000000000000000\n      dup2\n      mstore\n      0x04\n      add\n      tag_169\n      swap1\n      tag_127\n      jump\t// in\n    tag_169:\n      mload(0x40)\n      dup1\n      swap2\n      sub\n      swap1\n      revert\n    tag_168:\n        /* \"DAO/DAO.sol\":2885:2972  Proposal(nextProposalId,description,amount,receipient,0,block.timestamp+voteTime,false) */\n      mload(0x40)\n      dup1\n      0xe0\n      add\n      0x40\n      mstore\n      dup1\n        /* \"DAO/DAO.sol\":2894:2908  nextProposalId */\n      sload(0x09)\n        /* \"DAO/DAO.sol\":2885:2972  Proposal(nextProposalId,description,amount,receipient,0,block.timestamp+voteTime,false) */\n      dup2\n      mstore\n      0x20\n      add\n        /* \"DAO/DAO.sol\":2909:2920  description */\n      dup6\n      dup6\n        /* \"DAO/DAO.sol\":2885:2972  Proposal(nextProposalId,description,amount,receipient,0,block.timestamp+voteTime,false) */\n      dup1\n      dup1\n      0x1f\n      add\n      0x20\n      dup1\n      swap2\n      div\n      mul\n      0x20\n      add\n      mload(0x40)\n      swap1\n      dup2\n      add\n      0x40\n      mstore\n      dup1\n      swap4\n      swap3\n      swap2\n      swap1\n      dup2\n      dup2\n      mstore\n      0x20\n      add\n      dup4\n      dup4\n      dup1\n      dup3\n      dup5\n      calldatacopy\n      0x00\n      dup2\n      dup5\n      add\n      mstore\n      not(0x1f)\n      0x1f\n      dup3\n      add\n      and\n      swap1\n      pop\n      dup1\n      dup4\n      add\n      swap3\n      pop\n      pop\n      pop\n      pop\n      pop\n      pop\n      pop\n      dup2\n      mstore\n      0x20\n      add\n        /* \"DAO/DAO.sol\":2921:2927  amount */\n      dup4\n        /* \"DAO/DAO.sol\":2885:2972  Proposal(nextProposalId,description,amount,receipient,0,block.timestamp+voteTime,false) */\n      dup2\n      mstore\n      0x20\n      add\n        /* \"DAO/DAO.sol\":2928:2938  receipient */\n      dup3\n        /* \"DAO/DAO.sol\":2885:2972  Proposal(nextProposalId,description,amount,receipient,0,block.timestamp+voteTime,false) */\n      0xffffffffffffffffffffffffffffffffffffffff\n      and\n      dup2\n      mstore\n      0x20\n      add\n        /* \"DAO/DAO.sol\":2939:2940  0 */\n      0x00\n        /* \"DAO/DAO.sol\":2885:2972  Proposal(nextProposalId,description,amount,receipient,0,block.timestamp+voteTime,false) */\n      dup2\n      mstore\n      0x20\n      add\n        /* \"DAO/DAO.sol\":2957:2965  voteTime */\n      sload(0x0a)\n        /* \"DAO/DAO.sol\":2941:2956  block.timestamp */\n      timestamp\n        /* \"DAO/DAO.sol\":2941:2965  block.timestamp+voteTime */\n      tag_170\n      swap2\n      swap1\n      tag_135\n      jump\t// in\n    tag_170:\n        /* \"DAO/DAO.sol\":2885:2972  Proposal(nextProposalId,description,amount,receipient,0,block.timestamp+voteTime,false) */\n      dup2\n      mstore\n      0x20\n      add\n        /* \"DAO/DAO.sol\":2966:2971  false */\n      0x00\n        /* \"DAO/DAO.sol\":2885:2972  Proposal(nextProposalId,description,amount,receipient,0,block.timestamp+voteTime,false) */\n      iszero\n      iszero\n      dup2\n      mstore\n      pop\n        /* \"DAO/DAO.sol\":2859:2868  proposals */\n      0x05\n        /* \"DAO/DAO.sol\":2859:2884  proposals[nextProposalId] */\n      0x00\n        /* \"DAO/DAO.sol\":2869:2883  nextProposalId */\n      sload(0x09)\n        /* \"DAO/DAO.sol\":2859:2884  proposals[nextProposalId] */\n      dup2\n      mstore\n      0x20\n      add\n      swap1\n      dup2\n      mstore\n      0x20\n      add\n      0x00\n      keccak256\n        /* \"DAO/DAO.sol\":2859:2972  proposals[nextProposalId]=Proposal(nextProposalId,description,amount,receipient,0,block.timestamp+voteTime,false) */\n      0x00\n      dup3\n      add\n      mload\n      dup2\n      0x00\n      add\n      sstore\n      0x20\n      dup3\n      add\n      mload\n      dup2\n      0x01\n      add\n      swap1\n      dup2\n      tag_171\n      swap2\n      swap1\n      tag_172\n      jump\t// in\n    tag_171:\n      pop\n      0x40\n      dup3\n      add\n      mload\n      dup2\n      0x02\n      add\n      sstore\n      0x60\n      dup3\n      add\n      mload\n      dup2\n      0x03\n      add\n      exp(0x0100, 0x00)\n      dup2\n      sload\n      dup2\n      0xffffffffffffffffffffffffffffffffffffffff\n      mul\n      not\n      and\n      swap1\n      dup4\n      0xffffffffffffffffffffffffffffffffffffffff\n      and\n      mul\n      or\n      swap1\n      sstore\n      pop\n      0x80\n      dup3\n      add\n      mload\n      dup2\n      0x04\n      add\n      sstore\n      0xa0\n      dup3\n      add\n      mload\n      dup2\n      0x05\n      add\n      sstore\n      0xc0\n      dup3\n      add\n      mload\n      dup2\n      0x06\n      add\n      exp(0x0100, 0x00)\n      dup2\n      sload\n      dup2\n      0xff\n      mul\n      not\n      and\n      swap1\n      dup4\n      iszero\n      iszero\n      mul\n      or\n      swap1\n      sstore\n      pop\n      swap1\n      pop\n      pop\n        /* \"DAO/DAO.sol\":2982:2996  nextProposalId */\n      0x09\n      0x00\n        /* \"DAO/DAO.sol\":2982:2998  nextProposalId++ */\n      dup2\n      sload\n      dup1\n      swap3\n      swap2\n      swap1\n      tag_173\n      swap1\n      tag_174\n      jump\t// in\n    tag_173:\n      swap2\n      swap1\n      pop\n      sstore\n      pop\n        /* \"DAO/DAO.sol\":2680:3005  function createProposal(string calldata description,uint amount,address payable receipient)public onlyManager{... */\n      pop\n      pop\n      pop\n      pop\n      jump\t// out\n        /* \"DAO/DAO.sol\":3896:4137  function ProposalList() public view returns(Proposal[] memory){... */\n    tag_82:\n        /* \"DAO/DAO.sol\":3940:3957  Proposal[] memory */\n      0x60\n        /* \"DAO/DAO.sol\":3968:3989  Proposal[] memory arr */\n      0x00\n        /* \"DAO/DAO.sol\":4021:4022  1 */\n      0x01\n        /* \"DAO/DAO.sol\":4006:4020  nextProposalId */\n      sload(0x09)\n        /* \"DAO/DAO.sol\":4006:4022  nextProposalId-1 */\n      tag_176\n      swap2\n      swap1\n      tag_132\n      jump\t// in\n    tag_176:\n        /* \"DAO/DAO.sol\":3991:4023  new Proposal[](nextProposalId-1) */\n      0xffffffffffffffff\n      dup2\n      gt\n      iszero\n      tag_177\n      jumpi\n      tag_178\n      tag_179\n      jump\t// in\n    tag_178:\n    tag_177:\n      mload(0x40)\n      swap1\n      dup1\n      dup3\n      mstore\n      dup1\n      0x20\n      mul\n      0x20\n      add\n      dup3\n      add\n      0x40\n      mstore\n      dup1\n      iszero\n      tag_180\n      jumpi\n      dup2\n      0x20\n      add\n    tag_181:\n      tag_182\n      tag_183\n      jump\t// in\n    tag_182:\n      dup2\n      mstore\n      0x20\n      add\n      swap1\n      0x01\n      swap1\n      sub\n      swap1\n      dup2\n      tag_181\n      jumpi\n      swap1\n      pop\n    tag_180:\n      pop\n        /* \"DAO/DAO.sol\":3968:4023  Proposal[] memory arr= new Proposal[](nextProposalId-1) */\n      swap1\n      pop\n        /* \"DAO/DAO.sol\":4037:4043  uint i */\n      0x00\n        /* \"DAO/DAO.sol\":4044:4045  1 */\n      0x01\n        /* \"DAO/DAO.sol\":4037:4045  uint i=1 */\n      swap1\n      pop\n        /* \"DAO/DAO.sol\":4033:4111  for(uint i=1;i<nextProposalId;i++){... */\n    tag_184:\n        /* \"DAO/DAO.sol\":4048:4062  nextProposalId */\n      sload(0x09)\n        /* \"DAO/DAO.sol\":4046:4047  i */\n      dup2\n        /* \"DAO/DAO.sol\":4046:4062  i<nextProposalId */\n      lt\n        /* \"DAO/DAO.sol\":4033:4111  for(uint i=1;i<nextProposalId;i++){... */\n      iszero\n      tag_185\n      jumpi\n        /* \"DAO/DAO.sol\":4088:4097  proposals */\n      0x05\n        /* \"DAO/DAO.sol\":4088:4100  proposals[i] */\n      0x00\n        /* \"DAO/DAO.sol\":4098:4099  i */\n      dup3\n        /* \"DAO/DAO.sol\":4088:4100  proposals[i] */\n      dup2\n      mstore\n      0x20\n      add\n      swap1\n      dup2\n      mstore\n      0x20\n      add\n      0x00\n      keccak256\n        /* \"DAO/DAO.sol\":4081:4100  arr[i]=proposals[i] */\n      mload(0x40)\n      dup1\n      0xe0\n      add\n      0x40\n      mstore\n      swap1\n      dup2\n      0x00\n      dup3\n      add\n      sload\n      dup2\n      mstore\n      0x20\n      add\n      0x01\n      dup3\n      add\n      dup1\n      sload\n      tag_187\n      swap1\n      tag_115\n      jump\t// in\n    tag_187:\n      dup1\n      0x1f\n      add\n      0x20\n      dup1\n      swap2\n      div\n      mul\n      0x20\n      add\n      mload(0x40)\n      swap1\n      dup2\n      add\n      0x40\n      mstore\n      dup1\n      swap3\n      swap2\n      swap1\n      dup2\n      dup2\n      mstore\n      0x20\n      add\n      dup3\n      dup1\n      sload\n      tag_188\n      swap1\n      tag_115\n      jump\t// in\n    tag_188:\n      dup1\n      iszero\n      tag_189\n      jumpi\n      dup1\n      0x1f\n      lt\n      tag_190\n      jumpi\n      0x0100\n      dup1\n      dup4\n      sload\n      div\n      mul\n      dup4\n      mstore\n      swap2\n      0x20\n      add\n      swap2\n      jump(tag_189)\n    tag_190:\n      dup3\n      add\n      swap2\n      swap1\n      0x00\n      mstore\n      keccak256(0x00, 0x20)\n      swap1\n    tag_191:\n      dup2\n      sload\n      dup2\n      mstore\n      swap1\n      0x01\n      add\n      swap1\n      0x20\n      add\n      dup1\n      dup4\n      gt\n      tag_191\n      jumpi\n      dup3\n      swap1\n      sub\n      0x1f\n      and\n      dup3\n      add\n      swap2\n    tag_189:\n      pop\n      pop\n      pop\n      pop\n      pop\n      dup2\n      mstore\n      0x20\n      add\n      0x02\n      dup3\n      add\n      sload\n      dup2\n      mstore\n      0x20\n      add\n      0x03\n      dup3\n      add\n      0x00\n      swap1\n      sload\n      swap1\n      0x0100\n      exp\n      swap1\n      div\n      0xffffffffffffffffffffffffffffffffffffffff\n      and\n      0xffffffffffffffffffffffffffffffffffffffff\n      and\n      0xffffffffffffffffffffffffffffffffffffffff\n      and\n      dup2\n      mstore\n      0x20\n      add\n      0x04\n      dup3\n      add\n      sload\n      dup2\n      mstore\n      0x20\n      add\n      0x05\n      dup3\n      add\n      sload\n      dup2\n      mstore\n      0x20\n      add\n      0x06\n      dup3\n      add\n      0x00\n      swap1\n      sload\n      swap1\n      0x0100\n      exp\n      swap1\n      div\n      0xff\n      and\n      iszero\n      iszero\n      iszero\n      iszero\n      dup2\n      mstore\n      pop\n      pop\n        /* \"DAO/DAO.sol\":4081:4084  arr */\n      dup3\n        /* \"DAO/DAO.sol\":4085:4086  i */\n      dup3\n        /* \"DAO/DAO.sol\":4081:4087  arr[i] */\n      dup2\n      mload\n      dup2\n      lt\n      tag_192\n      jumpi\n      tag_193\n      tag_194\n      jump\t// in\n    tag_193:\n    tag_192:\n      0x20\n      mul\n      0x20\n      add\n      add\n        /* \"DAO/DAO.sol\":4081:4100  arr[i]=proposals[i] */\n      dup2\n      swap1\n      mstore\n      pop\n        /* \"DAO/DAO.sol\":4063:4066  i++ */\n      dup1\n      dup1\n      0x01\n      add\n      swap2\n      pop\n      pop\n        /* \"DAO/DAO.sol\":4033:4111  for(uint i=1;i<nextProposalId;i++){... */\n      jump(tag_184)\n    tag_185:\n      pop\n        /* \"DAO/DAO.sol\":4127:4130  arr */\n      dup1\n        /* \"DAO/DAO.sol\":4120:4130  return arr */\n      swap2\n      pop\n      pop\n        /* \"DAO/DAO.sol\":3896:4137  function ProposalList() public view returns(Proposal[] memory){... */\n      swap1\n      jump\t// out\n        /* \"DAO/DAO.sol\":3010:3468  function voteProposal(uint proposalId)public onlyInvestor(){... */\n    tag_88:\n        /* \"DAO/DAO.sol\":1250:1254  true */\n      0x01\n        /* \"DAO/DAO.sol\":1224:1254  isInvestor[msg.sender] == true */\n      iszero\n      iszero\n        /* \"DAO/DAO.sol\":1224:1234  isInvestor */\n      0x00\n        /* \"DAO/DAO.sol\":1224:1246  isInvestor[msg.sender] */\n      dup1\n        /* \"DAO/DAO.sol\":1235:1245  msg.sender */\n      caller\n        /* \"DAO/DAO.sol\":1224:1246  isInvestor[msg.sender] */\n      0xffffffffffffffffffffffffffffffffffffffff\n      and\n      0xffffffffffffffffffffffffffffffffffffffff\n      and\n      dup2\n      mstore\n      0x20\n      add\n      swap1\n      dup2\n      mstore\n      0x20\n      add\n      0x00\n      keccak256\n      0x00\n      swap1\n      sload\n      swap1\n      0x0100\n      exp\n      swap1\n      div\n      0xff\n      and\n        /* \"DAO/DAO.sol\":1224:1254  isInvestor[msg.sender] == true */\n      iszero\n      iszero\n      eq\n        /* \"DAO/DAO.sol\":1216:1282  require(isInvestor[msg.sender] == true, \"You are not an investor\") */\n      tag_196\n      jumpi\n      mload(0x40)\n      0x08c379a000000000000000000000000000000000000000000000000000000000\n      dup2\n      mstore\n      0x04\n      add\n      tag_197\n      swap1\n      tag_123\n      jump\t// in\n    tag_197:\n      mload(0x40)\n      dup1\n      swap2\n      sub\n      swap1\n      revert\n    tag_196:\n        /* \"DAO/DAO.sol\":3079:3104  Proposal storage proposal */\n      0x00\n        /* \"DAO/DAO.sol\":3105:3114  proposals */\n      0x05\n        /* \"DAO/DAO.sol\":3105:3126  proposals[proposalId] */\n      0x00\n        /* \"DAO/DAO.sol\":3115:3125  proposalId */\n      dup4\n        /* \"DAO/DAO.sol\":3105:3126  proposals[proposalId] */\n      dup2\n      mstore\n      0x20\n      add\n      swap1\n      dup2\n      mstore\n      0x20\n      add\n      0x00\n      keccak256\n        /* \"DAO/DAO.sol\":3079:3126  Proposal storage proposal=proposals[proposalId] */\n      swap1\n      pop\n        /* \"DAO/DAO.sol\":3177:3182  false */\n      0x00\n        /* \"DAO/DAO.sol\":3144:3182  isVoted[msg.sender][proposalId]==false */\n      iszero\n      iszero\n        /* \"DAO/DAO.sol\":3144:3151  isVoted */\n      0x02\n        /* \"DAO/DAO.sol\":3144:3163  isVoted[msg.sender] */\n      0x00\n        /* \"DAO/DAO.sol\":3152:3162  msg.sender */\n      caller\n        /* \"DAO/DAO.sol\":3144:3163  isVoted[msg.sender] */\n      0xffffffffffffffffffffffffffffffffffffffff\n      and\n      0xffffffffffffffffffffffffffffffffffffffff\n      and\n      dup2\n      mstore\n      0x20\n      add\n      swap1\n      dup2\n      mstore\n      0x20\n      add\n      0x00\n      keccak256\n        /* \"DAO/DAO.sol\":3144:3175  isVoted[msg.sender][proposalId] */\n      0x00\n        /* \"DAO/DAO.sol\":3164:3174  proposalId */\n      dup5\n        /* \"DAO/DAO.sol\":3144:3175  isVoted[msg.sender][proposalId] */\n      dup2\n      mstore\n      0x20\n      add\n      swap1\n      dup2\n      mstore\n      0x20\n      add\n      0x00\n      keccak256\n      0x00\n      swap1\n      sload\n      swap1\n      0x0100\n      exp\n      swap1\n      div\n      0xff\n      and\n        /* \"DAO/DAO.sol\":3144:3182  isVoted[msg.sender][proposalId]==false */\n      iszero\n      iszero\n      eq\n        /* \"DAO/DAO.sol\":3136:3227  require(isVoted[msg.sender][proposalId]==false,\"You have already voted for this proposal \") */\n      tag_199\n      jumpi\n      mload(0x40)\n      0x08c379a000000000000000000000000000000000000000000000000000000000\n      dup2\n      mstore\n      0x04\n      add\n      tag_200\n      swap1\n      tag_201\n      jump\t// in\n    tag_200:\n      mload(0x40)\n      dup1\n      swap2\n      sub\n      swap1\n      revert\n    tag_199:\n        /* \"DAO/DAO.sol\":3259:3274  block.timestamp */\n      timestamp\n        /* \"DAO/DAO.sol\":3245:3253  proposal */\n      dup2\n        /* \"DAO/DAO.sol\":3245:3257  proposal.end */\n      0x05\n      add\n      sload\n        /* \"DAO/DAO.sol\":3245:3274  proposal.end>=block.timestamp */\n      lt\n      iszero\n        /* \"DAO/DAO.sol\":3237:3295  require(proposal.end>=block.timestamp,\"Voting time ended\") */\n      tag_202\n      jumpi\n      mload(0x40)\n      0x08c379a000000000000000000000000000000000000000000000000000000000\n      dup2\n      mstore\n      0x04\n      add\n      tag_203\n      swap1\n      tag_204\n      jump\t// in\n    tag_203:\n      mload(0x40)\n      dup1\n      swap2\n      sub\n      swap1\n      revert\n    tag_202:\n        /* \"DAO/DAO.sol\":3334:3339  false */\n      0x00\n        /* \"DAO/DAO.sol\":3313:3339  proposal.isExecuted==false */\n      iszero\n      iszero\n        /* \"DAO/DAO.sol\":3313:3321  proposal */\n      dup2\n        /* \"DAO/DAO.sol\":3313:3332  proposal.isExecuted */\n      0x06\n      add\n      0x00\n      swap1\n      sload\n      swap1\n      0x0100\n      exp\n      swap1\n      div\n      0xff\n      and\n        /* \"DAO/DAO.sol\":3313:3339  proposal.isExecuted==false */\n      iszero\n      iszero\n      eq\n        /* \"DAO/DAO.sol\":3305:3365  require(proposal.isExecuted==false,\"It is already executed\") */\n      tag_205\n      jumpi\n      mload(0x40)\n      0x08c379a000000000000000000000000000000000000000000000000000000000\n      dup2\n      mstore\n      0x04\n      add\n      tag_206\n      swap1\n      tag_207\n      jump\t// in\n    tag_206:\n      mload(0x40)\n      dup1\n      swap2\n      sub\n      swap1\n      revert\n    tag_205:\n        /* \"DAO/DAO.sol\":3407:3411  true */\n      0x01\n        /* \"DAO/DAO.sol\":3375:3382  isVoted */\n      0x02\n        /* \"DAO/DAO.sol\":3375:3394  isVoted[msg.sender] */\n      0x00\n        /* \"DAO/DAO.sol\":3383:3393  msg.sender */\n      caller\n        /* \"DAO/DAO.sol\":3375:3394  isVoted[msg.sender] */\n      0xffffffffffffffffffffffffffffffffffffffff\n      and\n      0xffffffffffffffffffffffffffffffffffffffff\n      and\n      dup2\n      mstore\n      0x20\n      add\n      swap1\n      dup2\n      mstore\n      0x20\n      add\n      0x00\n      keccak256\n        /* \"DAO/DAO.sol\":3375:3406  isVoted[msg.sender][proposalId] */\n      0x00\n        /* \"DAO/DAO.sol\":3395:3405  proposalId */\n      dup5\n        /* \"DAO/DAO.sol\":3375:3406  isVoted[msg.sender][proposalId] */\n      dup2\n      mstore\n      0x20\n      add\n      swap1\n      dup2\n      mstore\n      0x20\n      add\n      0x00\n      keccak256\n      0x00\n        /* \"DAO/DAO.sol\":3375:3411  isVoted[msg.sender][proposalId]=true */\n      0x0100\n      exp\n      dup2\n      sload\n      dup2\n      0xff\n      mul\n      not\n      and\n      swap1\n      dup4\n      iszero\n      iszero\n      mul\n      or\n      swap1\n      sstore\n      pop\n        /* \"DAO/DAO.sol\":3437:3448  numOfShares */\n      0x01\n        /* \"DAO/DAO.sol\":3437:3460  numOfShares[msg.sender] */\n      0x00\n        /* \"DAO/DAO.sol\":3449:3459  msg.sender */\n      caller\n        /* \"DAO/DAO.sol\":3437:3460  numOfShares[msg.sender] */\n      0xffffffffffffffffffffffffffffffffffffffff\n      and\n      0xffffffffffffffffffffffffffffffffffffffff\n      and\n      dup2\n      mstore\n      0x20\n      add\n      swap1\n      dup2\n      mstore\n      0x20\n      add\n      0x00\n      keccak256\n      sload\n        /* \"DAO/DAO.sol\":3421:3429  proposal */\n      dup2\n        /* \"DAO/DAO.sol\":3421:3435  proposal.votes */\n      0x04\n      add\n      0x00\n        /* \"DAO/DAO.sol\":3421:3460  proposal.votes+=numOfShares[msg.sender] */\n      dup3\n      dup3\n      sload\n      tag_208\n      swap2\n      swap1\n      tag_135\n      jump\t// in\n    tag_208:\n      swap3\n      pop\n      pop\n      dup2\n      swap1\n      sstore\n      pop\n        /* \"DAO/DAO.sol\":3069:3468  {... */\n      pop\n        /* \"DAO/DAO.sol\":3010:3468  function voteProposal(uint proposalId)public onlyInvestor(){... */\n      pop\n      jump\t// out\n        /* \"DAO/DAO.sol\":1818:2228  function redeemShare(uint amount)public onlyInvestor{... */\n    tag_92:\n        /* \"DAO/DAO.sol\":1250:1254  true */\n      0x01\n        /* \"DAO/DAO.sol\":1224:1254  isInvestor[msg.sender] == true */\n      iszero\n      iszero\n        /* \"DAO/DAO.sol\":1224:1234  isInvestor */\n      0x00\n        /* \"DAO/DAO.sol\":1224:1246  isInvestor[msg.sender] */\n      dup1\n        /* \"DAO/DAO.sol\":1235:1245  msg.sender */\n      caller\n        /* \"DAO/DAO.sol\":1224:1246  isInvestor[msg.sender] */\n      0xffffffffffffffffffffffffffffffffffffffff\n      and\n      0xffffffffffffffffffffffffffffffffffffffff\n      and\n      dup2\n      mstore\n      0x20\n      add\n      swap1\n      dup2\n      mstore\n      0x20\n      add\n      0x00\n      keccak256\n      0x00\n      swap1\n      sload\n      swap1\n      0x0100\n      exp\n      swap1\n      div\n      0xff\n      and\n        /* \"DAO/DAO.sol\":1224:1254  isInvestor[msg.sender] == true */\n      iszero\n      iszero\n      eq\n        /* \"DAO/DAO.sol\":1216:1282  require(isInvestor[msg.sender] == true, \"You are not an investor\") */\n      tag_210\n      jumpi\n      mload(0x40)\n      0x08c379a000000000000000000000000000000000000000000000000000000000\n      dup2\n      mstore\n      0x04\n      add\n      tag_211\n      swap1\n      tag_123\n      jump\t// in\n    tag_211:\n      mload(0x40)\n      dup1\n      swap2\n      sub\n      swap1\n      revert\n    tag_210:\n        /* \"DAO/DAO.sol\":1913:1919  amount */\n      dup1\n        /* \"DAO/DAO.sol\":1888:1899  numOfShares */\n      0x01\n        /* \"DAO/DAO.sol\":1888:1911  numOfShares[msg.sender] */\n      0x00\n        /* \"DAO/DAO.sol\":1900:1910  msg.sender */\n      caller\n        /* \"DAO/DAO.sol\":1888:1911  numOfShares[msg.sender] */\n      0xffffffffffffffffffffffffffffffffffffffff\n      and\n      0xffffffffffffffffffffffffffffffffffffffff\n      and\n      dup2\n      mstore\n      0x20\n      add\n      swap1\n      dup2\n      mstore\n      0x20\n      add\n      0x00\n      keccak256\n      sload\n        /* \"DAO/DAO.sol\":1888:1919  numOfShares[msg.sender]>=amount */\n      lt\n      iszero\n        /* \"DAO/DAO.sol\":1880:1950  require(numOfShares[msg.sender]>=amount,\"You dont have enough shares\") */\n      tag_213\n      jumpi\n      mload(0x40)\n      0x08c379a000000000000000000000000000000000000000000000000000000000\n      dup2\n      mstore\n      0x04\n      add\n      tag_214\n      swap1\n      tag_215\n      jump\t// in\n    tag_214:\n      mload(0x40)\n      dup1\n      swap2\n      sub\n      swap1\n      revert\n    tag_213:\n        /* \"DAO/DAO.sol\":1984:1990  amount */\n      dup1\n        /* \"DAO/DAO.sol\":1968:1982  availableFunds */\n      sload(0x07)\n        /* \"DAO/DAO.sol\":1968:1990  availableFunds>=amount */\n      lt\n      iszero\n        /* \"DAO/DAO.sol\":1960:2010  require(availableFunds>=amount,\"Not enough funds\") */\n      tag_216\n      jumpi\n      mload(0x40)\n      0x08c379a000000000000000000000000000000000000000000000000000000000\n      dup2\n      mstore\n      0x04\n      add\n      tag_217\n      swap1\n      tag_127\n      jump\t// in\n    tag_217:\n      mload(0x40)\n      dup1\n      swap2\n      sub\n      swap1\n      revert\n    tag_216:\n        /* \"DAO/DAO.sol\":2045:2051  amount */\n      dup1\n        /* \"DAO/DAO.sol\":2020:2031  numOfShares */\n      0x01\n        /* \"DAO/DAO.sol\":2020:2043  numOfShares[msg.sender] */\n      0x00\n        /* \"DAO/DAO.sol\":2032:2042  msg.sender */\n      caller\n        /* \"DAO/DAO.sol\":2020:2043  numOfShares[msg.sender] */\n      0xffffffffffffffffffffffffffffffffffffffff\n      and\n      0xffffffffffffffffffffffffffffffffffffffff\n      and\n      dup2\n      mstore\n      0x20\n      add\n      swap1\n      dup2\n      mstore\n      0x20\n      add\n      0x00\n      keccak256\n      0x00\n        /* \"DAO/DAO.sol\":2020:2051  numOfShares[msg.sender]-=amount */\n      dup3\n      dup3\n      sload\n      tag_218\n      swap2\n      swap1\n      tag_132\n      jump\t// in\n    tag_218:\n      swap3\n      pop\n      pop\n      dup2\n      swap1\n      sstore\n      pop\n        /* \"DAO/DAO.sol\":2089:2090  0 */\n      0x00\n        /* \"DAO/DAO.sol\":2064:2075  numOfShares */\n      0x01\n        /* \"DAO/DAO.sol\":2064:2087  numOfShares[msg.sender] */\n      0x00\n        /* \"DAO/DAO.sol\":2076:2086  msg.sender */\n      caller\n        /* \"DAO/DAO.sol\":2064:2087  numOfShares[msg.sender] */\n      0xffffffffffffffffffffffffffffffffffffffff\n      and\n      0xffffffffffffffffffffffffffffffffffffffff\n      and\n      dup2\n      mstore\n      0x20\n      add\n      swap1\n      dup2\n      mstore\n      0x20\n      add\n      0x00\n      keccak256\n      sload\n        /* \"DAO/DAO.sol\":2064:2090  numOfShares[msg.sender]==0 */\n      sub\n        /* \"DAO/DAO.sol\":2061:2144  if(numOfShares[msg.sender]==0){... */\n      tag_219\n      jumpi\n        /* \"DAO/DAO.sol\":2128:2133  false */\n      0x00\n        /* \"DAO/DAO.sol\":2105:2115  isInvestor */\n      dup1\n        /* \"DAO/DAO.sol\":2105:2127  isInvestor[msg.sender] */\n      0x00\n        /* \"DAO/DAO.sol\":2116:2126  msg.sender */\n      caller\n        /* \"DAO/DAO.sol\":2105:2127  isInvestor[msg.sender] */\n      0xffffffffffffffffffffffffffffffffffffffff\n      and\n      0xffffffffffffffffffffffffffffffffffffffff\n      and\n      dup2\n      mstore\n      0x20\n      add\n      swap1\n      dup2\n      mstore\n      0x20\n      add\n      0x00\n      keccak256\n      0x00\n        /* \"DAO/DAO.sol\":2105:2133  isInvestor[msg.sender]=false */\n      0x0100\n      exp\n      dup2\n      sload\n      dup2\n      0xff\n      mul\n      not\n      and\n      swap1\n      dup4\n      iszero\n      iszero\n      mul\n      or\n      swap1\n      sstore\n      pop\n        /* \"DAO/DAO.sol\":2061:2144  if(numOfShares[msg.sender]==0){... */\n    tag_219:\n        /* \"DAO/DAO.sol\":2169:2175  amount */\n      dup1\n        /* \"DAO/DAO.sol\":2153:2167  availableFunds */\n      0x07\n      0x00\n        /* \"DAO/DAO.sol\":2153:2175  availableFunds-=amount */\n      dup3\n      dup3\n      sload\n      tag_220\n      swap2\n      swap1\n      tag_132\n      jump\t// in\n    tag_220:\n      swap3\n      pop\n      pop\n      dup2\n      swap1\n      sstore\n      pop\n        /* \"DAO/DAO.sol\":2193:2203  msg.sender */\n      caller\n        /* \"DAO/DAO.sol\":2185:2213  payable(msg.sender).transfer */\n      0xffffffffffffffffffffffffffffffffffffffff\n      and\n        /* \"DAO/DAO.sol\":2185:2221  payable(msg.sender).transfer(amount) */\n      0x08fc\n        /* \"DAO/DAO.sol\":2214:2220  amount */\n      dup3\n        /* \"DAO/DAO.sol\":2185:2221  payable(msg.sender).transfer(amount) */\n      swap1\n      dup2\n      iszero\n      mul\n      swap1\n      mload(0x40)\n      0x00\n      mload(0x40)\n      dup1\n      dup4\n      sub\n      dup2\n      dup6\n      dup9\n      dup9\n      call\n      swap4\n      pop\n      pop\n      pop\n      pop\n      iszero\n      dup1\n      iszero\n      tag_222\n      jumpi\n      returndatasize\n      0x00\n      dup1\n      returndatacopy\n      revert(0x00, returndatasize)\n    tag_222:\n      pop\n        /* \"DAO/DAO.sol\":1818:2228  function redeemShare(uint amount)public onlyInvestor{... */\n      pop\n      jump\t// out\n        /* \"DAO/DAO.sol\":384:443  mapping(address => mapping(uint256 => bool)) public isVoted */\n    tag_97:\n      mstore(0x20, 0x02)\n      dup2\n      0x00\n      mstore\n      mstore(0x20, keccak256(0x00, 0x40))\n      dup1\n      0x00\n      mstore\n      keccak256(0x00, 0x40)\n      0x00\n      swap2\n      pop\n      swap2\n      pop\n      swap1\n      sload\n      swap1\n      0x0100\n      exp\n      swap1\n      div\n      0xff\n      and\n      dup2\n      jump\t// out\n        /* \"DAO/DAO.sol\":678:712  uint256 public contributionTimeEnd */\n    tag_102:\n      sload(0x08)\n      dup2\n      jump\t// out\n        /* \"DAO/DAO.sol\":753:776  uint256 public voteTime */\n    tag_106:\n      sload(0x0a)\n      dup2\n      jump\t// out\n        /* \"DAO/DAO.sol\":449:516  mapping(address => mapping(address => bool)) public withdrawlStatus */\n    tag_112:\n      mstore(0x20, 0x03)\n      dup2\n      0x00\n      mstore\n      mstore(0x20, keccak256(0x00, 0x40))\n      dup1\n      0x00\n      mstore\n      keccak256(0x00, 0x40)\n      0x00\n      swap2\n      pop\n      swap2\n      pop\n      swap1\n      sload\n      swap1\n      0x0100\n      exp\n      swap1\n      div\n      0xff\n      and\n      dup2\n      jump\t// out\n        /* \"DAO/DAO.sol\":3782:3891  function _transfer(uint amount,address payable receipient)private{... */\n    tag_150:\n        /* \"DAO/DAO.sol\":3857:3867  receipient */\n      dup1\n        /* \"DAO/DAO.sol\":3857:3876  receipient.transfer */\n      0xffffffffffffffffffffffffffffffffffffffff\n      and\n        /* \"DAO/DAO.sol\":3857:3884  receipient.transfer(amount) */\n      0x08fc\n        /* \"DAO/DAO.sol\":3877:3883  amount */\n      dup4\n        /* \"DAO/DAO.sol\":3857:3884  receipient.transfer(amount) */\n      swap1\n      dup2\n      iszero\n      mul\n      swap1\n      mload(0x40)\n      0x00\n      mload(0x40)\n      dup1\n      dup4\n      sub\n      dup2\n      dup6\n      dup9\n      dup9\n      call\n      swap4\n      pop\n      pop\n      pop\n      pop\n      iszero\n      dup1\n      iszero\n      tag_225\n      jumpi\n      returndatasize\n      0x00\n      dup1\n      returndatacopy\n      revert(0x00, returndatasize)\n    tag_225:\n      pop\n        /* \"DAO/DAO.sol\":3782:3891  function _transfer(uint amount,address payable receipient)private{... */\n      pop\n      pop\n      jump\t// out\n    tag_183:\n      mload(0x40)\n      dup1\n      0xe0\n      add\n      0x40\n      mstore\n      dup1\n      0x00\n      dup2\n      mstore\n      0x20\n      add\n      0x60\n      dup2\n      mstore\n      0x20\n      add\n      0x00\n      dup2\n      mstore\n      0x20\n      add\n      and(0xffffffffffffffffffffffffffffffffffffffff, 0x00)\n      dup2\n      mstore\n      0x20\n      add\n      0x00\n      dup2\n      mstore\n      0x20\n      add\n      0x00\n      dup2\n      mstore\n      0x20\n      add\n      iszero(iszero(0x00))\n      dup2\n      mstore\n      pop\n      swap1\n      jump\t// out\n        /* \"#utility.yul\":88:205   */\n    tag_227:\n        /* \"#utility.yul\":197:198   */\n      0x00\n        /* \"#utility.yul\":194:195   */\n      dup1\n        /* \"#utility.yul\":187:199   */\n      revert\n        /* \"#utility.yul\":211:328   */\n    tag_228:\n        /* \"#utility.yul\":320:321   */\n      0x00\n        /* \"#utility.yul\":317:318   */\n      dup1\n        /* \"#utility.yul\":310:322   */\n      revert\n        /* \"#utility.yul\":334:411   */\n    tag_229:\n        /* \"#utility.yul\":371:378   */\n      0x00\n        /* \"#utility.yul\":400:405   */\n      dup2\n        /* \"#utility.yul\":389:405   */\n      swap1\n      pop\n        /* \"#utility.yul\":334:411   */\n      swap2\n      swap1\n      pop\n      jump\t// out\n        /* \"#utility.yul\":417:539   */\n    tag_230:\n        /* \"#utility.yul\":490:514   */\n      tag_311\n        /* \"#utility.yul\":508:513   */\n      dup2\n        /* \"#utility.yul\":490:514   */\n      tag_229\n      jump\t// in\n    tag_311:\n        /* \"#utility.yul\":483:488   */\n      dup2\n        /* \"#utility.yul\":480:515   */\n      eq\n        /* \"#utility.yul\":470:533   */\n      tag_312\n      jumpi\n        /* \"#utility.yul\":529:530   */\n      0x00\n        /* \"#utility.yul\":526:527   */\n      dup1\n        /* \"#utility.yul\":519:531   */\n      revert\n        /* \"#utility.yul\":470:533   */\n    tag_312:\n        /* \"#utility.yul\":417:539   */\n      pop\n      jump\t// out\n        /* \"#utility.yul\":545:684   */\n    tag_231:\n        /* \"#utility.yul\":591:596   */\n      0x00\n        /* \"#utility.yul\":629:635   */\n      dup2\n        /* \"#utility.yul\":616:636   */\n      calldataload\n        /* \"#utility.yul\":607:636   */\n      swap1\n      pop\n        /* \"#utility.yul\":645:678   */\n      tag_314\n        /* \"#utility.yul\":672:677   */\n      dup2\n        /* \"#utility.yul\":645:678   */\n      tag_230\n      jump\t// in\n    tag_314:\n        /* \"#utility.yul\":545:684   */\n      swap3\n      swap2\n      pop\n      pop\n      jump\t// out\n        /* \"#utility.yul\":690:1019   */\n    tag_27:\n        /* \"#utility.yul\":749:755   */\n      0x00\n        /* \"#utility.yul\":798:800   */\n      0x20\n        /* \"#utility.yul\":786:795   */\n      dup3\n        /* \"#utility.yul\":777:784   */\n      dup5\n        /* \"#utility.yul\":773:796   */\n      sub\n        /* \"#utility.yul\":769:801   */\n      slt\n        /* \"#utility.yul\":766:885   */\n      iszero\n      tag_316\n      jumpi\n        /* \"#utility.yul\":804:883   */\n      tag_317\n      tag_227\n      jump\t// in\n    tag_317:\n        /* \"#utility.yul\":766:885   */\n    tag_316:\n        /* \"#utility.yul\":924:925   */\n      0x00\n        /* \"#utility.yul\":949:1002   */\n      tag_318\n        /* \"#utility.yul\":994:1001   */\n      dup5\n        /* \"#utility.yul\":985:991   */\n      dup3\n        /* \"#utility.yul\":974:983   */\n      dup6\n        /* \"#utility.yul\":970:992   */\n      add\n        /* \"#utility.yul\":949:1002   */\n      tag_231\n      jump\t// in\n    tag_318:\n        /* \"#utility.yul\":939:1002   */\n      swap2\n      pop\n        /* \"#utility.yul\":895:1012   */\n      pop\n        /* \"#utility.yul\":690:1019   */\n      swap3\n      swap2\n      pop\n      pop\n      jump\t// out\n        /* \"#utility.yul\":1025:1143   */\n    tag_232:\n        /* \"#utility.yul\":1112:1136   */\n      tag_320\n        /* \"#utility.yul\":1130:1135   */\n      dup2\n        /* \"#utility.yul\":1112:1136   */\n      tag_229\n      jump\t// in\n    tag_320:\n        /* \"#utility.yul\":1107:1110   */\n      dup3\n        /* \"#utility.yul\":1100:1137   */\n      mstore\n        /* \"#utility.yul\":1025:1143   */\n      pop\n      pop\n      jump\t// out\n        /* \"#utility.yul\":1149:1248   */\n    tag_233:\n        /* \"#utility.yul\":1201:1207   */\n      0x00\n        /* \"#utility.yul\":1235:1240   */\n      dup2\n        /* \"#utility.yul\":1229:1241   */\n      mload\n        /* \"#utility.yul\":1219:1241   */\n      swap1\n      pop\n        /* \"#utility.yul\":1149:1248   */\n      swap2\n      swap1\n      pop\n      jump\t// out\n        /* \"#utility.yul\":1254:1423   */\n    tag_234:\n        /* \"#utility.yul\":1338:1349   */\n      0x00\n        /* \"#utility.yul\":1372:1378   */\n      dup3\n        /* \"#utility.yul\":1367:1370   */\n      dup3\n        /* \"#utility.yul\":1360:1379   */\n      mstore\n        /* \"#utility.yul\":1412:1416   */\n      0x20\n        /* \"#utility.yul\":1407:1410   */\n      dup3\n        /* \"#utility.yul\":1403:1417   */\n      add\n        /* \"#utility.yul\":1388:1417   */\n      swap1\n      pop\n        /* \"#utility.yul\":1254:1423   */\n      swap3\n      swap2\n      pop\n      pop\n      jump\t// out\n        /* \"#utility.yul\":1429:1675   */\n    tag_235:\n        /* \"#utility.yul\":1510:1511   */\n      0x00\n        /* \"#utility.yul\":1520:1633   */\n    tag_324:\n        /* \"#utility.yul\":1534:1540   */\n      dup4\n        /* \"#utility.yul\":1531:1532   */\n      dup2\n        /* \"#utility.yul\":1528:1541   */\n      lt\n        /* \"#utility.yul\":1520:1633   */\n      iszero\n      tag_326\n      jumpi\n        /* \"#utility.yul\":1619:1620   */\n      dup1\n        /* \"#utility.yul\":1614:1617   */\n      dup3\n        /* \"#utility.yul\":1610:1621   */\n      add\n        /* \"#utility.yul\":1604:1622   */\n      mload\n        /* \"#utility.yul\":1600:1601   */\n      dup2\n        /* \"#utility.yul\":1595:1598   */\n      dup5\n        /* \"#utility.yul\":1591:1602   */\n      add\n        /* \"#utility.yul\":1584:1623   */\n      mstore\n        /* \"#utility.yul\":1556:1558   */\n      0x20\n        /* \"#utility.yul\":1553:1554   */\n      dup2\n        /* \"#utility.yul\":1549:1559   */\n      add\n        /* \"#utility.yul\":1544:1559   */\n      swap1\n      pop\n        /* \"#utility.yul\":1520:1633   */\n      jump(tag_324)\n    tag_326:\n        /* \"#utility.yul\":1667:1668   */\n      0x00\n        /* \"#utility.yul\":1658:1664   */\n      dup5\n        /* \"#utility.yul\":1653:1656   */\n      dup5\n        /* \"#utility.yul\":1649:1665   */\n      add\n        /* \"#utility.yul\":1642:1669   */\n      mstore\n        /* \"#utility.yul\":1491:1675   */\n      pop\n        /* \"#utility.yul\":1429:1675   */\n      pop\n      pop\n      pop\n      jump\t// out\n        /* \"#utility.yul\":1681:1783   */\n    tag_236:\n        /* \"#utility.yul\":1722:1728   */\n      0x00\n        /* \"#utility.yul\":1773:1775   */\n      0x1f\n        /* \"#utility.yul\":1769:1776   */\n      not\n        /* \"#utility.yul\":1764:1766   */\n      0x1f\n        /* \"#utility.yul\":1757:1762   */\n      dup4\n        /* \"#utility.yul\":1753:1767   */\n      add\n        /* \"#utility.yul\":1749:1777   */\n      and\n        /* \"#utility.yul\":1739:1777   */\n      swap1\n      pop\n        /* \"#utility.yul\":1681:1783   */\n      swap2\n      swap1\n      pop\n      jump\t// out\n        /* \"#utility.yul\":1789:2166   */\n    tag_237:\n        /* \"#utility.yul\":1877:1880   */\n      0x00\n        /* \"#utility.yul\":1905:1944   */\n      tag_329\n        /* \"#utility.yul\":1938:1943   */\n      dup3\n        /* \"#utility.yul\":1905:1944   */\n      tag_233\n      jump\t// in\n    tag_329:\n        /* \"#utility.yul\":1960:2031   */\n      tag_330\n        /* \"#utility.yul\":2024:2030   */\n      dup2\n        /* \"#utility.yul\":2019:2022   */\n      dup6\n        /* \"#utility.yul\":1960:2031   */\n      tag_234\n      jump\t// in\n    tag_330:\n        /* \"#utility.yul\":1953:2031   */\n      swap4\n      pop\n        /* \"#utility.yul\":2040:2105   */\n      tag_331\n        /* \"#utility.yul\":2098:2104   */\n      dup2\n        /* \"#utility.yul\":2093:2096   */\n      dup6\n        /* \"#utility.yul\":2086:2090   */\n      0x20\n        /* \"#utility.yul\":2079:2084   */\n      dup7\n        /* \"#utility.yul\":2075:2091   */\n      add\n        /* \"#utility.yul\":2040:2105   */\n      tag_235\n      jump\t// in\n    tag_331:\n        /* \"#utility.yul\":2130:2159   */\n      tag_332\n        /* \"#utility.yul\":2152:2158   */\n      dup2\n        /* \"#utility.yul\":2130:2159   */\n      tag_236\n      jump\t// in\n    tag_332:\n        /* \"#utility.yul\":2125:2128   */\n      dup5\n        /* \"#utility.yul\":2121:2160   */\n      add\n        /* \"#utility.yul\":2114:2160   */\n      swap2\n      pop\n        /* \"#utility.yul\":1881:2166   */\n      pop\n        /* \"#utility.yul\":1789:2166   */\n      swap3\n      swap2\n      pop\n      pop\n      jump\t// out\n        /* \"#utility.yul\":2172:2298   */\n    tag_238:\n        /* \"#utility.yul\":2209:2216   */\n      0x00\n        /* \"#utility.yul\":2249:2291   */\n      0xffffffffffffffffffffffffffffffffffffffff\n        /* \"#utility.yul\":2242:2247   */\n      dup3\n        /* \"#utility.yul\":2238:2292   */\n      and\n        /* \"#utility.yul\":2227:2292   */\n      swap1\n      pop\n        /* \"#utility.yul\":2172:2298   */\n      swap2\n      swap1\n      pop\n      jump\t// out\n        /* \"#utility.yul\":2304:2408   */\n    tag_239:\n        /* \"#utility.yul\":2349:2356   */\n      0x00\n        /* \"#utility.yul\":2378:2402   */\n      tag_335\n        /* \"#utility.yul\":2396:2401   */\n      dup3\n        /* \"#utility.yul\":2378:2402   */\n      tag_238\n      jump\t// in\n    tag_335:\n        /* \"#utility.yul\":2367:2402   */\n      swap1\n      pop\n        /* \"#utility.yul\":2304:2408   */\n      swap2\n      swap1\n      pop\n      jump\t// out\n        /* \"#utility.yul\":2414:2556   */\n    tag_240:\n        /* \"#utility.yul\":2517:2549   */\n      tag_337\n        /* \"#utility.yul\":2543:2548   */\n      dup2\n        /* \"#utility.yul\":2517:2549   */\n      tag_239\n      jump\t// in\n    tag_337:\n        /* \"#utility.yul\":2512:2515   */\n      dup3\n        /* \"#utility.yul\":2505:2550   */\n      mstore\n        /* \"#utility.yul\":2414:2556   */\n      pop\n      pop\n      jump\t// out\n        /* \"#utility.yul\":2562:2652   */\n    tag_241:\n        /* \"#utility.yul\":2596:2603   */\n      0x00\n        /* \"#utility.yul\":2639:2644   */\n      dup2\n        /* \"#utility.yul\":2632:2645   */\n      iszero\n        /* \"#utility.yul\":2625:2646   */\n      iszero\n        /* \"#utility.yul\":2614:2646   */\n      swap1\n      pop\n        /* \"#utility.yul\":2562:2652   */\n      swap2\n      swap1\n      pop\n      jump\t// out\n        /* \"#utility.yul\":2658:2767   */\n    tag_242:\n        /* \"#utility.yul\":2739:2760   */\n      tag_340\n        /* \"#utility.yul\":2754:2759   */\n      dup2\n        /* \"#utility.yul\":2739:2760   */\n      tag_241\n      jump\t// in\n    tag_340:\n        /* \"#utility.yul\":2734:2737   */\n      dup3\n        /* \"#utility.yul\":2727:2761   */\n      mstore\n        /* \"#utility.yul\":2658:2767   */\n      pop\n      pop\n      jump\t// out\n        /* \"#utility.yul\":2773:3770   */\n    tag_30:\n        /* \"#utility.yul\":3064:3068   */\n      0x00\n        /* \"#utility.yul\":3102:3105   */\n      0xe0\n        /* \"#utility.yul\":3091:3100   */\n      dup3\n        /* \"#utility.yul\":3087:3106   */\n      add\n        /* \"#utility.yul\":3079:3106   */\n      swap1\n      pop\n        /* \"#utility.yul\":3116:3187   */\n      tag_342\n        /* \"#utility.yul\":3184:3185   */\n      0x00\n        /* \"#utility.yul\":3173:3182   */\n      dup4\n        /* \"#utility.yul\":3169:3186   */\n      add\n        /* \"#utility.yul\":3160:3166   */\n      dup11\n        /* \"#utility.yul\":3116:3187   */\n      tag_232\n      jump\t// in\n    tag_342:\n        /* \"#utility.yul\":3234:3243   */\n      dup2\n        /* \"#utility.yul\":3228:3232   */\n      dup2\n        /* \"#utility.yul\":3224:3244   */\n      sub\n        /* \"#utility.yul\":3219:3221   */\n      0x20\n        /* \"#utility.yul\":3208:3217   */\n      dup4\n        /* \"#utility.yul\":3204:3222   */\n      add\n        /* \"#utility.yul\":3197:3245   */\n      mstore\n        /* \"#utility.yul\":3262:3340   */\n      tag_343\n        /* \"#utility.yul\":3335:3339   */\n      dup2\n        /* \"#utility.yul\":3326:3332   */\n      dup10\n        /* \"#utility.yul\":3262:3340   */\n      tag_237\n      jump\t// in\n    tag_343:\n        /* \"#utility.yul\":3254:3340   */\n      swap1\n      pop\n        /* \"#utility.yul\":3350:3422   */\n      tag_344\n        /* \"#utility.yul\":3418:3420   */\n      0x40\n        /* \"#utility.yul\":3407:3416   */\n      dup4\n        /* \"#utility.yul\":3403:3421   */\n      add\n        /* \"#utility.yul\":3394:3400   */\n      dup9\n        /* \"#utility.yul\":3350:3422   */\n      tag_232\n      jump\t// in\n    tag_344:\n        /* \"#utility.yul\":3432:3520   */\n      tag_345\n        /* \"#utility.yul\":3516:3518   */\n      0x60\n        /* \"#utility.yul\":3505:3514   */\n      dup4\n        /* \"#utility.yul\":3501:3519   */\n      add\n        /* \"#utility.yul\":3492:3498   */\n      dup8\n        /* \"#utility.yul\":3432:3520   */\n      tag_240\n      jump\t// in\n    tag_345:\n        /* \"#utility.yul\":3530:3603   */\n      tag_346\n        /* \"#utility.yul\":3598:3601   */\n      0x80\n        /* \"#utility.yul\":3587:3596   */\n      dup4\n        /* \"#utility.yul\":3583:3602   */\n      add\n        /* \"#utility.yul\":3574:3580   */\n      dup7\n        /* \"#utility.yul\":3530:3603   */\n      tag_232\n      jump\t// in\n    tag_346:\n        /* \"#utility.yul\":3613:3686   */\n      tag_347\n        /* \"#utility.yul\":3681:3684   */\n      0xa0\n        /* \"#utility.yul\":3670:3679   */\n      dup4\n        /* \"#utility.yul\":3666:3685   */\n      add\n        /* \"#utility.yul\":3657:3663   */\n      dup6\n        /* \"#utility.yul\":3613:3686   */\n      tag_232\n      jump\t// in\n    tag_347:\n        /* \"#utility.yul\":3696:3763   */\n      tag_348\n        /* \"#utility.yul\":3758:3761   */\n      0xc0\n        /* \"#utility.yul\":3747:3756   */\n      dup4\n        /* \"#utility.yul\":3743:3762   */\n      add\n        /* \"#utility.yul\":3734:3740   */\n      dup5\n        /* \"#utility.yul\":3696:3763   */\n      tag_242\n      jump\t// in\n    tag_348:\n        /* \"#utility.yul\":2773:3770   */\n      swap9\n      swap8\n      pop\n      pop\n      pop\n      pop\n      pop\n      pop\n      pop\n      pop\n      jump\t// out\n        /* \"#utility.yul\":3776:3872   */\n    tag_243:\n        /* \"#utility.yul\":3813:3820   */\n      0x00\n        /* \"#utility.yul\":3842:3866   */\n      tag_350\n        /* \"#utility.yul\":3860:3865   */\n      dup3\n        /* \"#utility.yul\":3842:3866   */\n      tag_238\n      jump\t// in\n    tag_350:\n        /* \"#utility.yul\":3831:3866   */\n      swap1\n      pop\n        /* \"#utility.yul\":3776:3872   */\n      swap2\n      swap1\n      pop\n      jump\t// out\n        /* \"#utility.yul\":3878:4000   */\n    tag_244:\n        /* \"#utility.yul\":3951:3975   */\n      tag_352\n        /* \"#utility.yul\":3969:3974   */\n      dup2\n        /* \"#utility.yul\":3951:3975   */\n      tag_243\n      jump\t// in\n    tag_352:\n        /* \"#utility.yul\":3944:3949   */\n      dup2\n        /* \"#utility.yul\":3941:3976   */\n      eq\n        /* \"#utility.yul\":3931:3994   */\n      tag_353\n      jumpi\n        /* \"#utility.yul\":3990:3991   */\n      0x00\n        /* \"#utility.yul\":3987:3988   */\n      dup1\n        /* \"#utility.yul\":3980:3992   */\n      revert\n        /* \"#utility.yul\":3931:3994   */\n    tag_353:\n        /* \"#utility.yul\":3878:4000   */\n      pop\n      jump\t// out\n        /* \"#utility.yul\":4006:4145   */\n    tag_245:\n        /* \"#utility.yul\":4052:4057   */\n      0x00\n        /* \"#utility.yul\":4090:4096   */\n      dup2\n        /* \"#utility.yul\":4077:4097   */\n      calldataload\n        /* \"#utility.yul\":4068:4097   */\n      swap1\n      pop\n        /* \"#utility.yul\":4106:4139   */\n      tag_355\n        /* \"#utility.yul\":4133:4138   */\n      dup2\n        /* \"#utility.yul\":4106:4139   */\n      tag_244\n      jump\t// in\n    tag_355:\n        /* \"#utility.yul\":4006:4145   */\n      swap3\n      swap2\n      pop\n      pop\n      jump\t// out\n        /* \"#utility.yul\":4151:4625   */\n    tag_34:\n        /* \"#utility.yul\":4219:4225   */\n      0x00\n        /* \"#utility.yul\":4227:4233   */\n      dup1\n        /* \"#utility.yul\":4276:4278   */\n      0x40\n        /* \"#utility.yul\":4264:4273   */\n      dup4\n        /* \"#utility.yul\":4255:4262   */\n      dup6\n        /* \"#utility.yul\":4251:4274   */\n      sub\n        /* \"#utility.yul\":4247:4279   */\n      slt\n        /* \"#utility.yul\":4244:4363   */\n      iszero\n      tag_357\n      jumpi\n        /* \"#utility.yul\":4282:4361   */\n      tag_358\n      tag_227\n      jump\t// in\n    tag_358:\n        /* \"#utility.yul\":4244:4363   */\n    tag_357:\n        /* \"#utility.yul\":4402:4403   */\n      0x00\n        /* \"#utility.yul\":4427:4480   */\n      tag_359\n        /* \"#utility.yul\":4472:4479   */\n      dup6\n        /* \"#utility.yul\":4463:4469   */\n      dup3\n        /* \"#utility.yul\":4452:4461   */\n      dup7\n        /* \"#utility.yul\":4448:4470   */\n      add\n        /* \"#utility.yul\":4427:4480   */\n      tag_231\n      jump\t// in\n    tag_359:\n        /* \"#utility.yul\":4417:4480   */\n      swap3\n      pop\n        /* \"#utility.yul\":4373:4490   */\n      pop\n        /* \"#utility.yul\":4529:4531   */\n      0x20\n        /* \"#utility.yul\":4555:4608   */\n      tag_360\n        /* \"#utility.yul\":4600:4607   */\n      dup6\n        /* \"#utility.yul\":4591:4597   */\n      dup3\n        /* \"#utility.yul\":4580:4589   */\n      dup7\n        /* \"#utility.yul\":4576:4598   */\n      add\n        /* \"#utility.yul\":4555:4608   */\n      tag_245\n      jump\t// in\n    tag_360:\n        /* \"#utility.yul\":4545:4608   */\n      swap2\n      pop\n        /* \"#utility.yul\":4500:4618   */\n      pop\n        /* \"#utility.yul\":4151:4625   */\n      swap3\n      pop\n      swap3\n      swap1\n      pop\n      jump\t// out\n        /* \"#utility.yul\":4631:4853   */\n    tag_44:\n        /* \"#utility.yul\":4724:4728   */\n      0x00\n        /* \"#utility.yul\":4762:4764   */\n      0x20\n        /* \"#utility.yul\":4751:4760   */\n      dup3\n        /* \"#utility.yul\":4747:4765   */\n      add\n        /* \"#utility.yul\":4739:4765   */\n      swap1\n      pop\n        /* \"#utility.yul\":4775:4846   */\n      tag_362\n        /* \"#utility.yul\":4843:4844   */\n      0x00\n        /* \"#utility.yul\":4832:4841   */\n      dup4\n        /* \"#utility.yul\":4828:4845   */\n      add\n        /* \"#utility.yul\":4819:4825   */\n      dup5\n        /* \"#utility.yul\":4775:4846   */\n      tag_232\n      jump\t// in\n    tag_362:\n        /* \"#utility.yul\":4631:4853   */\n      swap3\n      swap2\n      pop\n      pop\n      jump\t// out\n        /* \"#utility.yul\":4859:4977   */\n    tag_246:\n        /* \"#utility.yul\":4946:4970   */\n      tag_364\n        /* \"#utility.yul\":4964:4969   */\n      dup2\n        /* \"#utility.yul\":4946:4970   */\n      tag_243\n      jump\t// in\n    tag_364:\n        /* \"#utility.yul\":4941:4944   */\n      dup3\n        /* \"#utility.yul\":4934:4971   */\n      mstore\n        /* \"#utility.yul\":4859:4977   */\n      pop\n      pop\n      jump\t// out\n        /* \"#utility.yul\":4983:5205   */\n    tag_54:\n        /* \"#utility.yul\":5076:5080   */\n      0x00\n        /* \"#utility.yul\":5114:5116   */\n      0x20\n        /* \"#utility.yul\":5103:5112   */\n      dup3\n        /* \"#utility.yul\":5099:5117   */\n      add\n        /* \"#utility.yul\":5091:5117   */\n      swap1\n      pop\n        /* \"#utility.yul\":5127:5198   */\n      tag_366\n        /* \"#utility.yul\":5195:5196   */\n      0x00\n        /* \"#utility.yul\":5184:5193   */\n      dup4\n        /* \"#utility.yul\":5180:5197   */\n      add\n        /* \"#utility.yul\":5171:5177   */\n      dup5\n        /* \"#utility.yul\":5127:5198   */\n      tag_246\n      jump\t// in\n    tag_366:\n        /* \"#utility.yul\":4983:5205   */\n      swap3\n      swap2\n      pop\n      pop\n      jump\t// out\n        /* \"#utility.yul\":5211:5540   */\n    tag_72:\n        /* \"#utility.yul\":5270:5276   */\n      0x00\n        /* \"#utility.yul\":5319:5321   */\n      0x20\n        /* \"#utility.yul\":5307:5316   */\n      dup3\n        /* \"#utility.yul\":5298:5305   */\n      dup5\n        /* \"#utility.yul\":5294:5317   */\n      sub\n        /* \"#utility.yul\":5290:5322   */\n      slt\n        /* \"#utility.yul\":5287:5406   */\n      iszero\n      tag_368\n      jumpi\n        /* \"#utility.yul\":5325:5404   */\n      tag_369\n      tag_227\n      jump\t// in\n    tag_369:\n        /* \"#utility.yul\":5287:5406   */\n    tag_368:\n        /* \"#utility.yul\":5445:5446   */\n      0x00\n        /* \"#utility.yul\":5470:5523   */\n      tag_370\n        /* \"#utility.yul\":5515:5522   */\n      dup5\n        /* \"#utility.yul\":5506:5512   */\n      dup3\n        /* \"#utility.yul\":5495:5504   */\n      dup6\n        /* \"#utility.yul\":5491:5513   */\n      add\n        /* \"#utility.yul\":5470:5523   */\n      tag_245\n      jump\t// in\n    tag_370:\n        /* \"#utility.yul\":5460:5523   */\n      swap2\n      pop\n        /* \"#utility.yul\":5416:5533   */\n      pop\n        /* \"#utility.yul\":5211:5540   */\n      swap3\n      swap2\n      pop\n      pop\n      jump\t// out\n        /* \"#utility.yul\":5546:5663   */\n    tag_247:\n        /* \"#utility.yul\":5655:5656   */\n      0x00\n        /* \"#utility.yul\":5652:5653   */\n      dup1\n        /* \"#utility.yul\":5645:5657   */\n      revert\n        /* \"#utility.yul\":5669:5786   */\n    tag_248:\n        /* \"#utility.yul\":5778:5779   */\n      0x00\n        /* \"#utility.yul\":5775:5776   */\n      dup1\n        /* \"#utility.yul\":5768:5780   */\n      revert\n        /* \"#utility.yul\":5792:5909   */\n    tag_249:\n        /* \"#utility.yul\":5901:5902   */\n      0x00\n        /* \"#utility.yul\":5898:5899   */\n      dup1\n        /* \"#utility.yul\":5891:5903   */\n      revert\n        /* \"#utility.yul\":5929:6482   */\n    tag_250:\n        /* \"#utility.yul\":5987:5995   */\n      0x00\n        /* \"#utility.yul\":5997:6003   */\n      dup1\n        /* \"#utility.yul\":6047:6050   */\n      dup4\n        /* \"#utility.yul\":6040:6044   */\n      0x1f\n        /* \"#utility.yul\":6032:6038   */\n      dup5\n        /* \"#utility.yul\":6028:6045   */\n      add\n        /* \"#utility.yul\":6024:6051   */\n      slt\n        /* \"#utility.yul\":6014:6136   */\n      tag_375\n      jumpi\n        /* \"#utility.yul\":6055:6134   */\n      tag_376\n      tag_247\n      jump\t// in\n    tag_376:\n        /* \"#utility.yul\":6014:6136   */\n    tag_375:\n        /* \"#utility.yul\":6168:6174   */\n      dup3\n        /* \"#utility.yul\":6155:6175   */\n      calldataload\n        /* \"#utility.yul\":6145:6175   */\n      swap1\n      pop\n        /* \"#utility.yul\":6198:6216   */\n      0xffffffffffffffff\n        /* \"#utility.yul\":6190:6196   */\n      dup2\n        /* \"#utility.yul\":6187:6217   */\n      gt\n        /* \"#utility.yul\":6184:6301   */\n      iszero\n      tag_377\n      jumpi\n        /* \"#utility.yul\":6220:6299   */\n      tag_378\n      tag_248\n      jump\t// in\n    tag_378:\n        /* \"#utility.yul\":6184:6301   */\n    tag_377:\n        /* \"#utility.yul\":6334:6338   */\n      0x20\n        /* \"#utility.yul\":6326:6332   */\n      dup4\n        /* \"#utility.yul\":6322:6339   */\n      add\n        /* \"#utility.yul\":6310:6339   */\n      swap2\n      pop\n        /* \"#utility.yul\":6388:6391   */\n      dup4\n        /* \"#utility.yul\":6380:6384   */\n      0x01\n        /* \"#utility.yul\":6372:6378   */\n      dup3\n        /* \"#utility.yul\":6368:6385   */\n      mul\n        /* \"#utility.yul\":6358:6366   */\n      dup4\n        /* \"#utility.yul\":6354:6386   */\n      add\n        /* \"#utility.yul\":6351:6392   */\n      gt\n        /* \"#utility.yul\":6348:6476   */\n      iszero\n      tag_379\n      jumpi\n        /* \"#utility.yul\":6395:6474   */\n      tag_380\n      tag_249\n      jump\t// in\n    tag_380:\n        /* \"#utility.yul\":6348:6476   */\n    tag_379:\n        /* \"#utility.yul\":5929:6482   */\n      swap3\n      pop\n      swap3\n      swap1\n      pop\n      jump\t// out\n        /* \"#utility.yul\":6488:6626   */\n    tag_251:\n        /* \"#utility.yul\":6569:6601   */\n      tag_382\n        /* \"#utility.yul\":6595:6600   */\n      dup2\n        /* \"#utility.yul\":6569:6601   */\n      tag_239\n      jump\t// in\n    tag_382:\n        /* \"#utility.yul\":6562:6567   */\n      dup2\n        /* \"#utility.yul\":6559:6602   */\n      eq\n        /* \"#utility.yul\":6549:6620   */\n      tag_383\n      jumpi\n        /* \"#utility.yul\":6616:6617   */\n      0x00\n        /* \"#utility.yul\":6613:6614   */\n      dup1\n        /* \"#utility.yul\":6606:6618   */\n      revert\n        /* \"#utility.yul\":6549:6620   */\n    tag_383:\n        /* \"#utility.yul\":6488:6626   */\n      pop\n      jump\t// out\n        /* \"#utility.yul\":6632:6787   */\n    tag_252:\n        /* \"#utility.yul\":6686:6691   */\n      0x00\n        /* \"#utility.yul\":6724:6730   */\n      dup2\n        /* \"#utility.yul\":6711:6731   */\n      calldataload\n        /* \"#utility.yul\":6702:6731   */\n      swap1\n      pop\n        /* \"#utility.yul\":6740:6781   */\n      tag_385\n        /* \"#utility.yul\":6775:6780   */\n      dup2\n        /* \"#utility.yul\":6740:6781   */\n      tag_251\n      jump\t// in\n    tag_385:\n        /* \"#utility.yul\":6632:6787   */\n      swap3\n      swap2\n      pop\n      pop\n      jump\t// out\n        /* \"#utility.yul\":6793:7628   */\n    tag_78:\n        /* \"#utility.yul\":6890:6896   */\n      0x00\n        /* \"#utility.yul\":6898:6904   */\n      dup1\n        /* \"#utility.yul\":6906:6912   */\n      0x00\n        /* \"#utility.yul\":6914:6920   */\n      dup1\n        /* \"#utility.yul\":6963:6965   */\n      0x60\n        /* \"#utility.yul\":6951:6960   */\n      dup6\n        /* \"#utility.yul\":6942:6949   */\n      dup8\n        /* \"#utility.yul\":6938:6961   */\n      sub\n        /* \"#utility.yul\":6934:6966   */\n      slt\n        /* \"#utility.yul\":6931:7050   */\n      iszero\n      tag_387\n      jumpi\n        /* \"#utility.yul\":6969:7048   */\n      tag_388\n      tag_227\n      jump\t// in\n    tag_388:\n        /* \"#utility.yul\":6931:7050   */\n    tag_387:\n        /* \"#utility.yul\":7117:7118   */\n      0x00\n        /* \"#utility.yul\":7106:7115   */\n      dup6\n        /* \"#utility.yul\":7102:7119   */\n      add\n        /* \"#utility.yul\":7089:7120   */\n      calldataload\n        /* \"#utility.yul\":7147:7165   */\n      0xffffffffffffffff\n        /* \"#utility.yul\":7139:7145   */\n      dup2\n        /* \"#utility.yul\":7136:7166   */\n      gt\n        /* \"#utility.yul\":7133:7250   */\n      iszero\n      tag_389\n      jumpi\n        /* \"#utility.yul\":7169:7248   */\n      tag_390\n      tag_228\n      jump\t// in\n    tag_390:\n        /* \"#utility.yul\":7133:7250   */\n    tag_389:\n        /* \"#utility.yul\":7282:7347   */\n      tag_391\n        /* \"#utility.yul\":7339:7346   */\n      dup8\n        /* \"#utility.yul\":7330:7336   */\n      dup3\n        /* \"#utility.yul\":7319:7328   */\n      dup9\n        /* \"#utility.yul\":7315:7337   */\n      add\n        /* \"#utility.yul\":7282:7347   */\n      tag_250\n      jump\t// in\n    tag_391:\n        /* \"#utility.yul\":7264:7347   */\n      swap5\n      pop\n      swap5\n      pop\n        /* \"#utility.yul\":7060:7357   */\n      pop\n        /* \"#utility.yul\":7396:7398   */\n      0x20\n        /* \"#utility.yul\":7422:7475   */\n      tag_392\n        /* \"#utility.yul\":7467:7474   */\n      dup8\n        /* \"#utility.yul\":7458:7464   */\n      dup3\n        /* \"#utility.yul\":7447:7456   */\n      dup9\n        /* \"#utility.yul\":7443:7465   */\n      add\n        /* \"#utility.yul\":7422:7475   */\n      tag_231\n      jump\t// in\n    tag_392:\n        /* \"#utility.yul\":7412:7475   */\n      swap3\n      pop\n        /* \"#utility.yul\":7367:7485   */\n      pop\n        /* \"#utility.yul\":7524:7526   */\n      0x40\n        /* \"#utility.yul\":7550:7611   */\n      tag_393\n        /* \"#utility.yul\":7603:7610   */\n      dup8\n        /* \"#utility.yul\":7594:7600   */\n      dup3\n        /* \"#utility.yul\":7583:7592   */\n      dup9\n        /* \"#utility.yul\":7579:7601   */\n      add\n        /* \"#utility.yul\":7550:7611   */\n      tag_252\n      jump\t// in\n    tag_393:\n        /* \"#utility.yul\":7540:7611   */\n      swap2\n      pop\n        /* \"#utility.yul\":7495:7621   */\n      pop\n        /* \"#utility.yul\":6793:7628   */\n      swap3\n      swap6\n      swap2\n      swap5\n      pop\n      swap3\n      pop\n      jump\t// out\n        /* \"#utility.yul\":7634:7772   */\n    tag_253:\n        /* \"#utility.yul\":7725:7731   */\n      0x00\n        /* \"#utility.yul\":7759:7764   */\n      dup2\n        /* \"#utility.yul\":7753:7765   */\n      mload\n        /* \"#utility.yul\":7743:7765   */\n      swap1\n      pop\n        /* \"#utility.yul\":7634:7772   */\n      swap2\n      swap1\n      pop\n      jump\t// out\n        /* \"#utility.yul\":7778:7986   */\n    tag_254:\n        /* \"#utility.yul\":7901:7912   */\n      0x00\n        /* \"#utility.yul\":7935:7941   */\n      dup3\n        /* \"#utility.yul\":7930:7933   */\n      dup3\n        /* \"#utility.yul\":7923:7942   */\n      mstore\n        /* \"#utility.yul\":7975:7979   */\n      0x20\n        /* \"#utility.yul\":7970:7973   */\n      dup3\n        /* \"#utility.yul\":7966:7980   */\n      add\n        /* \"#utility.yul\":7951:7980   */\n      swap1\n      pop\n        /* \"#utility.yul\":7778:7986   */\n      swap3\n      swap2\n      pop\n      pop\n      jump\t// out\n        /* \"#utility.yul\":7992:8148   */\n    tag_255:\n        /* \"#utility.yul\":8083:8087   */\n      0x00\n        /* \"#utility.yul\":8106:8109   */\n      dup2\n        /* \"#utility.yul\":8098:8109   */\n      swap1\n      pop\n        /* \"#utility.yul\":8136:8140   */\n      0x20\n        /* \"#utility.yul\":8131:8134   */\n      dup3\n        /* \"#utility.yul\":8127:8141   */\n      add\n        /* \"#utility.yul\":8119:8141   */\n      swap1\n      pop\n        /* \"#utility.yul\":7992:8148   */\n      swap2\n      swap1\n      pop\n      jump\t// out\n        /* \"#utility.yul\":8154:8262   */\n    tag_256:\n        /* \"#utility.yul\":8231:8255   */\n      tag_398\n        /* \"#utility.yul\":8249:8254   */\n      dup2\n        /* \"#utility.yul\":8231:8255   */\n      tag_229\n      jump\t// in\n    tag_398:\n        /* \"#utility.yul\":8226:8229   */\n      dup3\n        /* \"#utility.yul\":8219:8256   */\n      mstore\n        /* \"#utility.yul\":8154:8262   */\n      pop\n      pop\n      jump\t// out\n        /* \"#utility.yul\":8268:8427   */\n    tag_257:\n        /* \"#utility.yul\":8342:8353   */\n      0x00\n        /* \"#utility.yul\":8376:8382   */\n      dup3\n        /* \"#utility.yul\":8371:8374   */\n      dup3\n        /* \"#utility.yul\":8364:8383   */\n      mstore\n        /* \"#utility.yul\":8416:8420   */\n      0x20\n        /* \"#utility.yul\":8411:8414   */\n      dup3\n        /* \"#utility.yul\":8407:8421   */\n      add\n        /* \"#utility.yul\":8392:8421   */\n      swap1\n      pop\n        /* \"#utility.yul\":8268:8427   */\n      swap3\n      swap2\n      pop\n      pop\n      jump\t// out\n        /* \"#utility.yul\":8433:8790   */\n    tag_258:\n        /* \"#utility.yul\":8511:8514   */\n      0x00\n        /* \"#utility.yul\":8539:8578   */\n      tag_401\n        /* \"#utility.yul\":8572:8577   */\n      dup3\n        /* \"#utility.yul\":8539:8578   */\n      tag_233\n      jump\t// in\n    tag_401:\n        /* \"#utility.yul\":8594:8655   */\n      tag_402\n        /* \"#utility.yul\":8648:8654   */\n      dup2\n        /* \"#utility.yul\":8643:8646   */\n      dup6\n        /* \"#utility.yul\":8594:8655   */\n      tag_257\n      jump\t// in\n    tag_402:\n        /* \"#utility.yul\":8587:8655   */\n      swap4\n      pop\n        /* \"#utility.yul\":8664:8729   */\n      tag_403\n        /* \"#utility.yul\":8722:8728   */\n      dup2\n        /* \"#utility.yul\":8717:8720   */\n      dup6\n        /* \"#utility.yul\":8710:8714   */\n      0x20\n        /* \"#utility.yul\":8703:8708   */\n      dup7\n        /* \"#utility.yul\":8699:8715   */\n      add\n        /* \"#utility.yul\":8664:8729   */\n      tag_235\n      jump\t// in\n    tag_403:\n        /* \"#utility.yul\":8754:8783   */\n      tag_404\n        /* \"#utility.yul\":8776:8782   */\n      dup2\n        /* \"#utility.yul\":8754:8783   */\n      tag_236\n      jump\t// in\n    tag_404:\n        /* \"#utility.yul\":8749:8752   */\n      dup5\n        /* \"#utility.yul\":8745:8784   */\n      add\n        /* \"#utility.yul\":8738:8784   */\n      swap2\n      pop\n        /* \"#utility.yul\":8515:8790   */\n      pop\n        /* \"#utility.yul\":8433:8790   */\n      swap3\n      swap2\n      pop\n      pop\n      jump\t// out\n        /* \"#utility.yul\":8796:8928   */\n    tag_259:\n        /* \"#utility.yul\":8889:8921   */\n      tag_406\n        /* \"#utility.yul\":8915:8920   */\n      dup2\n        /* \"#utility.yul\":8889:8921   */\n      tag_239\n      jump\t// in\n    tag_406:\n        /* \"#utility.yul\":8884:8887   */\n      dup3\n        /* \"#utility.yul\":8877:8922   */\n      mstore\n        /* \"#utility.yul\":8796:8928   */\n      pop\n      pop\n      jump\t// out\n        /* \"#utility.yul\":8934:9033   */\n    tag_260:\n        /* \"#utility.yul\":9005:9026   */\n      tag_408\n        /* \"#utility.yul\":9020:9025   */\n      dup2\n        /* \"#utility.yul\":9005:9026   */\n      tag_241\n      jump\t// in\n    tag_408:\n        /* \"#utility.yul\":9000:9003   */\n      dup3\n        /* \"#utility.yul\":8993:9027   */\n      mstore\n        /* \"#utility.yul\":8934:9033   */\n      pop\n      pop\n      jump\t// out\n        /* \"#utility.yul\":9089:10582   */\n    tag_261:\n        /* \"#utility.yul\":9196:9199   */\n      0x00\n        /* \"#utility.yul\":9232:9236   */\n      0xe0\n        /* \"#utility.yul\":9227:9230   */\n      dup4\n        /* \"#utility.yul\":9223:9237   */\n      add\n        /* \"#utility.yul\":9317:9321   */\n      0x00\n        /* \"#utility.yul\":9310:9315   */\n      dup4\n        /* \"#utility.yul\":9306:9322   */\n      add\n        /* \"#utility.yul\":9300:9323   */\n      mload\n        /* \"#utility.yul\":9336:9399   */\n      tag_410\n        /* \"#utility.yul\":9393:9397   */\n      0x00\n        /* \"#utility.yul\":9388:9391   */\n      dup7\n        /* \"#utility.yul\":9384:9398   */\n      add\n        /* \"#utility.yul\":9370:9382   */\n      dup3\n        /* \"#utility.yul\":9336:9399   */\n      tag_256\n      jump\t// in\n    tag_410:\n        /* \"#utility.yul\":9247:9409   */\n      pop\n        /* \"#utility.yul\":9498:9502   */\n      0x20\n        /* \"#utility.yul\":9491:9496   */\n      dup4\n        /* \"#utility.yul\":9487:9503   */\n      add\n        /* \"#utility.yul\":9481:9504   */\n      mload\n        /* \"#utility.yul\":9551:9554   */\n      dup5\n        /* \"#utility.yul\":9545:9549   */\n      dup3\n        /* \"#utility.yul\":9541:9555   */\n      sub\n        /* \"#utility.yul\":9534:9538   */\n      0x20\n        /* \"#utility.yul\":9529:9532   */\n      dup7\n        /* \"#utility.yul\":9525:9539   */\n      add\n        /* \"#utility.yul\":9518:9556   */\n      mstore\n        /* \"#utility.yul\":9577:9650   */\n      tag_411\n        /* \"#utility.yul\":9645:9649   */\n      dup3\n        /* \"#utility.yul\":9631:9643   */\n      dup3\n        /* \"#utility.yul\":9577:9650   */\n      tag_258\n      jump\t// in\n    tag_411:\n        /* \"#utility.yul\":9569:9650   */\n      swap2\n      pop\n        /* \"#utility.yul\":9419:9661   */\n      pop\n        /* \"#utility.yul\":9745:9749   */\n      0x40\n        /* \"#utility.yul\":9738:9743   */\n      dup4\n        /* \"#utility.yul\":9734:9750   */\n      add\n        /* \"#utility.yul\":9728:9751   */\n      mload\n        /* \"#utility.yul\":9764:9827   */\n      tag_412\n        /* \"#utility.yul\":9821:9825   */\n      0x40\n        /* \"#utility.yul\":9816:9819   */\n      dup7\n        /* \"#utility.yul\":9812:9826   */\n      add\n        /* \"#utility.yul\":9798:9810   */\n      dup3\n        /* \"#utility.yul\":9764:9827   */\n      tag_256\n      jump\t// in\n    tag_412:\n        /* \"#utility.yul\":9671:9837   */\n      pop\n        /* \"#utility.yul\":9925:9929   */\n      0x60\n        /* \"#utility.yul\":9918:9923   */\n      dup4\n        /* \"#utility.yul\":9914:9930   */\n      add\n        /* \"#utility.yul\":9908:9931   */\n      mload\n        /* \"#utility.yul\":9944:10023   */\n      tag_413\n        /* \"#utility.yul\":10017:10021   */\n      0x60\n        /* \"#utility.yul\":10012:10015   */\n      dup7\n        /* \"#utility.yul\":10008:10022   */\n      add\n        /* \"#utility.yul\":9994:10006   */\n      dup3\n        /* \"#utility.yul\":9944:10023   */\n      tag_259\n      jump\t// in\n    tag_413:\n        /* \"#utility.yul\":9847:10033   */\n      pop\n        /* \"#utility.yul\":10116:10120   */\n      0x80\n        /* \"#utility.yul\":10109:10114   */\n      dup4\n        /* \"#utility.yul\":10105:10121   */\n      add\n        /* \"#utility.yul\":10099:10122   */\n      mload\n        /* \"#utility.yul\":10135:10198   */\n      tag_414\n        /* \"#utility.yul\":10192:10196   */\n      0x80\n        /* \"#utility.yul\":10187:10190   */\n      dup7\n        /* \"#utility.yul\":10183:10197   */\n      add\n        /* \"#utility.yul\":10169:10181   */\n      dup3\n        /* \"#utility.yul\":10135:10198   */\n      tag_256\n      jump\t// in\n    tag_414:\n        /* \"#utility.yul\":10043:10208   */\n      pop\n        /* \"#utility.yul\":10289:10293   */\n      0xa0\n        /* \"#utility.yul\":10282:10287   */\n      dup4\n        /* \"#utility.yul\":10278:10294   */\n      add\n        /* \"#utility.yul\":10272:10295   */\n      mload\n        /* \"#utility.yul\":10308:10371   */\n      tag_415\n        /* \"#utility.yul\":10365:10369   */\n      0xa0\n        /* \"#utility.yul\":10360:10363   */\n      dup7\n        /* \"#utility.yul\":10356:10370   */\n      add\n        /* \"#utility.yul\":10342:10354   */\n      dup3\n        /* \"#utility.yul\":10308:10371   */\n      tag_256\n      jump\t// in\n    tag_415:\n        /* \"#utility.yul\":10218:10381   */\n      pop\n        /* \"#utility.yul\":10469:10473   */\n      0xc0\n        /* \"#utility.yul\":10462:10467   */\n      dup4\n        /* \"#utility.yul\":10458:10474   */\n      add\n        /* \"#utility.yul\":10452:10475   */\n      mload\n        /* \"#utility.yul\":10488:10545   */\n      tag_416\n        /* \"#utility.yul\":10539:10543   */\n      0xc0\n        /* \"#utility.yul\":10534:10537   */\n      dup7\n        /* \"#utility.yul\":10530:10544   */\n      add\n        /* \"#utility.yul\":10516:10528   */\n      dup3\n        /* \"#utility.yul\":10488:10545   */\n      tag_260\n      jump\t// in\n    tag_416:\n        /* \"#utility.yul\":10391:10555   */\n      pop\n        /* \"#utility.yul\":10572:10576   */\n      dup1\n        /* \"#utility.yul\":10565:10576   */\n      swap2\n      pop\n        /* \"#utility.yul\":9201:10582   */\n      pop\n        /* \"#utility.yul\":9089:10582   */\n      swap3\n      swap2\n      pop\n      pop\n      jump\t// out\n        /* \"#utility.yul\":10588:10840   */\n    tag_262:\n        /* \"#utility.yul\":10705:10715   */\n      0x00\n        /* \"#utility.yul\":10740:10834   */\n      tag_418\n        /* \"#utility.yul\":10830:10833   */\n      dup4\n        /* \"#utility.yul\":10822:10828   */\n      dup4\n        /* \"#utility.yul\":10740:10834   */\n      tag_261\n      jump\t// in\n    tag_418:\n        /* \"#utility.yul\":10726:10834   */\n      swap1\n      pop\n        /* \"#utility.yul\":10588:10840   */\n      swap3\n      swap2\n      pop\n      pop\n      jump\t// out\n        /* \"#utility.yul\":10846:10983   */\n    tag_263:\n        /* \"#utility.yul\":10940:10944   */\n      0x00\n        /* \"#utility.yul\":10972:10976   */\n      0x20\n        /* \"#utility.yul\":10967:10970   */\n      dup3\n        /* \"#utility.yul\":10963:10977   */\n      add\n        /* \"#utility.yul\":10955:10977   */\n      swap1\n      pop\n        /* \"#utility.yul\":10846:10983   */\n      swap2\n      swap1\n      pop\n      jump\t// out\n        /* \"#utility.yul\":11043:12146   */\n    tag_264:\n        /* \"#utility.yul\":11210:11213   */\n      0x00\n        /* \"#utility.yul\":11239:11317   */\n      tag_421\n        /* \"#utility.yul\":11311:11316   */\n      dup3\n        /* \"#utility.yul\":11239:11317   */\n      tag_253\n      jump\t// in\n    tag_421:\n        /* \"#utility.yul\":11333:11443   */\n      tag_422\n        /* \"#utility.yul\":11436:11442   */\n      dup2\n        /* \"#utility.yul\":11431:11434   */\n      dup6\n        /* \"#utility.yul\":11333:11443   */\n      tag_254\n      jump\t// in\n    tag_422:\n        /* \"#utility.yul\":11326:11443   */\n      swap4\n      pop\n        /* \"#utility.yul\":11469:11472   */\n      dup4\n        /* \"#utility.yul\":11514:11518   */\n      0x20\n        /* \"#utility.yul\":11506:11512   */\n      dup3\n        /* \"#utility.yul\":11502:11519   */\n      mul\n        /* \"#utility.yul\":11497:11500   */\n      dup6\n        /* \"#utility.yul\":11493:11520   */\n      add\n        /* \"#utility.yul\":11544:11624   */\n      tag_423\n        /* \"#utility.yul\":11618:11623   */\n      dup6\n        /* \"#utility.yul\":11544:11624   */\n      tag_255\n      jump\t// in\n    tag_423:\n        /* \"#utility.yul\":11647:11654   */\n      dup1\n        /* \"#utility.yul\":11678:11679   */\n      0x00\n        /* \"#utility.yul\":11663:12101   */\n    tag_424:\n        /* \"#utility.yul\":11688:11694   */\n      dup6\n        /* \"#utility.yul\":11685:11686   */\n      dup2\n        /* \"#utility.yul\":11682:11695   */\n      lt\n        /* \"#utility.yul\":11663:12101   */\n      iszero\n      tag_426\n      jumpi\n        /* \"#utility.yul\":11759:11768   */\n      dup5\n        /* \"#utility.yul\":11753:11757   */\n      dup5\n        /* \"#utility.yul\":11749:11769   */\n      sub\n        /* \"#utility.yul\":11744:11747   */\n      dup10\n        /* \"#utility.yul\":11737:11770   */\n      mstore\n        /* \"#utility.yul\":11810:11816   */\n      dup2\n        /* \"#utility.yul\":11804:11817   */\n      mload\n        /* \"#utility.yul\":11838:11950   */\n      tag_427\n        /* \"#utility.yul\":11945:11949   */\n      dup6\n        /* \"#utility.yul\":11930:11943   */\n      dup3\n        /* \"#utility.yul\":11838:11950   */\n      tag_262\n      jump\t// in\n    tag_427:\n        /* \"#utility.yul\":11830:11950   */\n      swap5\n      pop\n        /* \"#utility.yul\":11973:12057   */\n      tag_428\n        /* \"#utility.yul\":12050:12056   */\n      dup4\n        /* \"#utility.yul\":11973:12057   */\n      tag_263\n      jump\t// in\n    tag_428:\n        /* \"#utility.yul\":11963:12057   */\n      swap3\n      pop\n        /* \"#utility.yul\":12086:12090   */\n      0x20\n        /* \"#utility.yul\":12081:12084   */\n      dup11\n        /* \"#utility.yul\":12077:12091   */\n      add\n        /* \"#utility.yul\":12070:12091   */\n      swap10\n      pop\n        /* \"#utility.yul\":11723:12101   */\n      pop\n        /* \"#utility.yul\":11710:11711   */\n      0x01\n        /* \"#utility.yul\":11707:11708   */\n      dup2\n        /* \"#utility.yul\":11703:11712   */\n      add\n        /* \"#utility.yul\":11698:11712   */\n      swap1\n      pop\n        /* \"#utility.yul\":11663:12101   */\n      jump(tag_424)\n    tag_426:\n        /* \"#utility.yul\":11667:11681   */\n      pop\n        /* \"#utility.yul\":12117:12121   */\n      dup3\n        /* \"#utility.yul\":12110:12121   */\n      swap8\n      pop\n        /* \"#utility.yul\":12137:12140   */\n      dup8\n        /* \"#utility.yul\":12130:12140   */\n      swap6\n      pop\n        /* \"#utility.yul\":11215:12146   */\n      pop\n      pop\n      pop\n      pop\n      pop\n        /* \"#utility.yul\":11043:12146   */\n      swap3\n      swap2\n      pop\n      pop\n      jump\t// out\n        /* \"#utility.yul\":12152:12621   */\n    tag_84:\n        /* \"#utility.yul\":12343:12347   */\n      0x00\n        /* \"#utility.yul\":12381:12383   */\n      0x20\n        /* \"#utility.yul\":12370:12379   */\n      dup3\n        /* \"#utility.yul\":12366:12384   */\n      add\n        /* \"#utility.yul\":12358:12384   */\n      swap1\n      pop\n        /* \"#utility.yul\":12430:12439   */\n      dup2\n        /* \"#utility.yul\":12424:12428   */\n      dup2\n        /* \"#utility.yul\":12420:12440   */\n      sub\n        /* \"#utility.yul\":12416:12417   */\n      0x00\n        /* \"#utility.yul\":12405:12414   */\n      dup4\n        /* \"#utility.yul\":12401:12418   */\n      add\n        /* \"#utility.yul\":12394:12441   */\n      mstore\n        /* \"#utility.yul\":12458:12614   */\n      tag_430\n        /* \"#utility.yul\":12609:12613   */\n      dup2\n        /* \"#utility.yul\":12600:12606   */\n      dup5\n        /* \"#utility.yul\":12458:12614   */\n      tag_264\n      jump\t// in\n    tag_430:\n        /* \"#utility.yul\":12450:12614   */\n      swap1\n      pop\n        /* \"#utility.yul\":12152:12621   */\n      swap3\n      swap2\n      pop\n      pop\n      jump\t// out\n        /* \"#utility.yul\":12627:13101   */\n    tag_96:\n        /* \"#utility.yul\":12695:12701   */\n      0x00\n        /* \"#utility.yul\":12703:12709   */\n      dup1\n        /* \"#utility.yul\":12752:12754   */\n      0x40\n        /* \"#utility.yul\":12740:12749   */\n      dup4\n        /* \"#utility.yul\":12731:12738   */\n      dup6\n        /* \"#utility.yul\":12727:12750   */\n      sub\n        /* \"#utility.yul\":12723:12755   */\n      slt\n        /* \"#utility.yul\":12720:12839   */\n      iszero\n      tag_432\n      jumpi\n        /* \"#utility.yul\":12758:12837   */\n      tag_433\n      tag_227\n      jump\t// in\n    tag_433:\n        /* \"#utility.yul\":12720:12839   */\n    tag_432:\n        /* \"#utility.yul\":12878:12879   */\n      0x00\n        /* \"#utility.yul\":12903:12956   */\n      tag_434\n        /* \"#utility.yul\":12948:12955   */\n      dup6\n        /* \"#utility.yul\":12939:12945   */\n      dup3\n        /* \"#utility.yul\":12928:12937   */\n      dup7\n        /* \"#utility.yul\":12924:12946   */\n      add\n        /* \"#utility.yul\":12903:12956   */\n      tag_245\n      jump\t// in\n    tag_434:\n        /* \"#utility.yul\":12893:12956   */\n      swap3\n      pop\n        /* \"#utility.yul\":12849:12966   */\n      pop\n        /* \"#utility.yul\":13005:13007   */\n      0x20\n        /* \"#utility.yul\":13031:13084   */\n      tag_435\n        /* \"#utility.yul\":13076:13083   */\n      dup6\n        /* \"#utility.yul\":13067:13073   */\n      dup3\n        /* \"#utility.yul\":13056:13065   */\n      dup7\n        /* \"#utility.yul\":13052:13074   */\n      add\n        /* \"#utility.yul\":13031:13084   */\n      tag_231\n      jump\t// in\n    tag_435:\n        /* \"#utility.yul\":13021:13084   */\n      swap2\n      pop\n        /* \"#utility.yul\":12976:13094   */\n      pop\n        /* \"#utility.yul\":12627:13101   */\n      swap3\n      pop\n      swap3\n      swap1\n      pop\n      jump\t// out\n        /* \"#utility.yul\":13107:13317   */\n    tag_99:\n        /* \"#utility.yul\":13194:13198   */\n      0x00\n        /* \"#utility.yul\":13232:13234   */\n      0x20\n        /* \"#utility.yul\":13221:13230   */\n      dup3\n        /* \"#utility.yul\":13217:13235   */\n      add\n        /* \"#utility.yul\":13209:13235   */\n      swap1\n      pop\n        /* \"#utility.yul\":13245:13310   */\n      tag_437\n        /* \"#utility.yul\":13307:13308   */\n      0x00\n        /* \"#utility.yul\":13296:13305   */\n      dup4\n        /* \"#utility.yul\":13292:13309   */\n      add\n        /* \"#utility.yul\":13283:13289   */\n      dup5\n        /* \"#utility.yul\":13245:13310   */\n      tag_242\n      jump\t// in\n    tag_437:\n        /* \"#utility.yul\":13107:13317   */\n      swap3\n      swap2\n      pop\n      pop\n      jump\t// out\n        /* \"#utility.yul\":13323:13797   */\n    tag_111:\n        /* \"#utility.yul\":13391:13397   */\n      0x00\n        /* \"#utility.yul\":13399:13405   */\n      dup1\n        /* \"#utility.yul\":13448:13450   */\n      0x40\n        /* \"#utility.yul\":13436:13445   */\n      dup4\n        /* \"#utility.yul\":13427:13434   */\n      dup6\n        /* \"#utility.yul\":13423:13446   */\n      sub\n        /* \"#utility.yul\":13419:13451   */\n      slt\n        /* \"#utility.yul\":13416:13535   */\n      iszero\n      tag_439\n      jumpi\n        /* \"#utility.yul\":13454:13533   */\n      tag_440\n      tag_227\n      jump\t// in\n    tag_440:\n        /* \"#utility.yul\":13416:13535   */\n    tag_439:\n        /* \"#utility.yul\":13574:13575   */\n      0x00\n        /* \"#utility.yul\":13599:13652   */\n      tag_441\n        /* \"#utility.yul\":13644:13651   */\n      dup6\n        /* \"#utility.yul\":13635:13641   */\n      dup3\n        /* \"#utility.yul\":13624:13633   */\n      dup7\n        /* \"#utility.yul\":13620:13642   */\n      add\n        /* \"#utility.yul\":13599:13652   */\n      tag_245\n      jump\t// in\n    tag_441:\n        /* \"#utility.yul\":13589:13652   */\n      swap3\n      pop\n        /* \"#utility.yul\":13545:13662   */\n      pop\n        /* \"#utility.yul\":13701:13703   */\n      0x20\n        /* \"#utility.yul\":13727:13780   */\n      tag_442\n        /* \"#utility.yul\":13772:13779   */\n      dup6\n        /* \"#utility.yul\":13763:13769   */\n      dup3\n        /* \"#utility.yul\":13752:13761   */\n      dup7\n        /* \"#utility.yul\":13748:13770   */\n      add\n        /* \"#utility.yul\":13727:13780   */\n      tag_245\n      jump\t// in\n    tag_442:\n        /* \"#utility.yul\":13717:13780   */\n      swap2\n      pop\n        /* \"#utility.yul\":13672:13790   */\n      pop\n        /* \"#utility.yul\":13323:13797   */\n      swap3\n      pop\n      swap3\n      swap1\n      pop\n      jump\t// out\n        /* \"#utility.yul\":13803:13983   */\n    tag_265:\n        /* \"#utility.yul\":13851:13928   */\n      0x4e487b7100000000000000000000000000000000000000000000000000000000\n        /* \"#utility.yul\":13848:13849   */\n      0x00\n        /* \"#utility.yul\":13841:13929   */\n      mstore\n        /* \"#utility.yul\":13948:13952   */\n      0x22\n        /* \"#utility.yul\":13945:13946   */\n      0x04\n        /* \"#utility.yul\":13938:13953   */\n      mstore\n        /* \"#utility.yul\":13972:13976   */\n      0x24\n        /* \"#utility.yul\":13969:13970   */\n      0x00\n        /* \"#utility.yul\":13962:13977   */\n      revert\n        /* \"#utility.yul\":13989:14309   */\n    tag_115:\n        /* \"#utility.yul\":14033:14039   */\n      0x00\n        /* \"#utility.yul\":14070:14071   */\n      0x02\n        /* \"#utility.yul\":14064:14068   */\n      dup3\n        /* \"#utility.yul\":14060:14072   */\n      div\n        /* \"#utility.yul\":14050:14072   */\n      swap1\n      pop\n        /* \"#utility.yul\":14117:14118   */\n      0x01\n        /* \"#utility.yul\":14111:14115   */\n      dup3\n        /* \"#utility.yul\":14107:14119   */\n      and\n        /* \"#utility.yul\":14138:14156   */\n      dup1\n        /* \"#utility.yul\":14128:14209   */\n      tag_445\n      jumpi\n        /* \"#utility.yul\":14194:14198   */\n      0x7f\n        /* \"#utility.yul\":14186:14192   */\n      dup3\n        /* \"#utility.yul\":14182:14199   */\n      and\n        /* \"#utility.yul\":14172:14199   */\n      swap2\n      pop\n        /* \"#utility.yul\":14128:14209   */\n    tag_445:\n        /* \"#utility.yul\":14256:14258   */\n      0x20\n        /* \"#utility.yul\":14248:14254   */\n      dup3\n        /* \"#utility.yul\":14245:14259   */\n      lt\n        /* \"#utility.yul\":14225:14243   */\n      dup2\n        /* \"#utility.yul\":14222:14260   */\n      sub\n        /* \"#utility.yul\":14219:14303   */\n      tag_446\n      jumpi\n        /* \"#utility.yul\":14275:14293   */\n      tag_447\n      tag_265\n      jump\t// in\n    tag_447:\n        /* \"#utility.yul\":14219:14303   */\n    tag_446:\n        /* \"#utility.yul\":14040:14309   */\n      pop\n        /* \"#utility.yul\":13989:14309   */\n      swap2\n      swap1\n      pop\n      jump\t// out\n        /* \"#utility.yul\":14315:14488   */\n    tag_266:\n        /* \"#utility.yul\":14455:14480   */\n      0x596f7520617265206e6f7420616e20696e766573746f72000000000000000000\n        /* \"#utility.yul\":14451:14452   */\n      0x00\n        /* \"#utility.yul\":14443:14449   */\n      dup3\n        /* \"#utility.yul\":14439:14453   */\n      add\n        /* \"#utility.yul\":14432:14481   */\n      mstore\n        /* \"#utility.yul\":14315:14488   */\n      pop\n      jump\t// out\n        /* \"#utility.yul\":14494:14860   */\n    tag_267:\n        /* \"#utility.yul\":14636:14639   */\n      0x00\n        /* \"#utility.yul\":14657:14724   */\n      tag_450\n        /* \"#utility.yul\":14721:14723   */\n      0x17\n        /* \"#utility.yul\":14716:14719   */\n      dup4\n        /* \"#utility.yul\":14657:14724   */\n      tag_234\n      jump\t// in\n    tag_450:\n        /* \"#utility.yul\":14650:14724   */\n      swap2\n      pop\n        /* \"#utility.yul\":14733:14826   */\n      tag_451\n        /* \"#utility.yul\":14822:14825   */\n      dup3\n        /* \"#utility.yul\":14733:14826   */\n      tag_266\n      jump\t// in\n    tag_451:\n        /* \"#utility.yul\":14851:14853   */\n      0x20\n        /* \"#utility.yul\":14846:14849   */\n      dup3\n        /* \"#utility.yul\":14842:14854   */\n      add\n        /* \"#utility.yul\":14835:14854   */\n      swap1\n      pop\n        /* \"#utility.yul\":14494:14860   */\n      swap2\n      swap1\n      pop\n      jump\t// out\n        /* \"#utility.yul\":14866:15285   */\n    tag_123:\n        /* \"#utility.yul\":15032:15036   */\n      0x00\n        /* \"#utility.yul\":15070:15072   */\n      0x20\n        /* \"#utility.yul\":15059:15068   */\n      dup3\n        /* \"#utility.yul\":15055:15073   */\n      add\n        /* \"#utility.yul\":15047:15073   */\n      swap1\n      pop\n        /* \"#utility.yul\":15119:15128   */\n      dup2\n        /* \"#utility.yul\":15113:15117   */\n      dup2\n        /* \"#utility.yul\":15109:15129   */\n      sub\n        /* \"#utility.yul\":15105:15106   */\n      0x00\n        /* \"#utility.yul\":15094:15103   */\n      dup4\n        /* \"#utility.yul\":15090:15107   */\n      add\n        /* \"#utility.yul\":15083:15130   */\n      mstore\n        /* \"#utility.yul\":15147:15278   */\n      tag_453\n        /* \"#utility.yul\":15273:15277   */\n      dup2\n        /* \"#utility.yul\":15147:15278   */\n      tag_267\n      jump\t// in\n    tag_453:\n        /* \"#utility.yul\":15139:15278   */\n      swap1\n      pop\n        /* \"#utility.yul\":14866:15285   */\n      swap2\n      swap1\n      pop\n      jump\t// out\n        /* \"#utility.yul\":15291:15457   */\n    tag_268:\n        /* \"#utility.yul\":15431:15449   */\n      0x4e6f7420656e6f7567682066756e647300000000000000000000000000000000\n        /* \"#utility.yul\":15427:15428   */\n      0x00\n        /* \"#utility.yul\":15419:15425   */\n      dup3\n        /* \"#utility.yul\":15415:15429   */\n      add\n        /* \"#utility.yul\":15408:15450   */\n      mstore\n        /* \"#utility.yul\":15291:15457   */\n      pop\n      jump\t// out\n        /* \"#utility.yul\":15463:15829   */\n    tag_269:\n        /* \"#utility.yul\":15605:15608   */\n      0x00\n        /* \"#utility.yul\":15626:15693   */\n      tag_456\n        /* \"#utility.yul\":15690:15692   */\n      0x10\n        /* \"#utility.yul\":15685:15688   */\n      dup4\n        /* \"#utility.yul\":15626:15693   */\n      tag_234\n      jump\t// in\n    tag_456:\n        /* \"#utility.yul\":15619:15693   */\n      swap2\n      pop\n        /* \"#utility.yul\":15702:15795   */\n      tag_457\n        /* \"#utility.yul\":15791:15794   */\n      dup3\n        /* \"#utility.yul\":15702:15795   */\n      tag_268\n      jump\t// in\n    tag_457:\n        /* \"#utility.yul\":15820:15822   */\n      0x20\n        /* \"#utility.yul\":15815:15818   */\n      dup3\n        /* \"#utility.yul\":15811:15823   */\n      add\n        /* \"#utility.yul\":15804:15823   */\n      swap1\n      pop\n        /* \"#utility.yul\":15463:15829   */\n      swap2\n      swap1\n      pop\n      jump\t// out\n        /* \"#utility.yul\":15835:16254   */\n    tag_127:\n        /* \"#utility.yul\":16001:16005   */\n      0x00\n        /* \"#utility.yul\":16039:16041   */\n      0x20\n        /* \"#utility.yul\":16028:16037   */\n      dup3\n        /* \"#utility.yul\":16024:16042   */\n      add\n        /* \"#utility.yul\":16016:16042   */\n      swap1\n      pop\n        /* \"#utility.yul\":16088:16097   */\n      dup2\n        /* \"#utility.yul\":16082:16086   */\n      dup2\n        /* \"#utility.yul\":16078:16098   */\n      sub\n        /* \"#utility.yul\":16074:16075   */\n      0x00\n        /* \"#utility.yul\":16063:16072   */\n      dup4\n        /* \"#utility.yul\":16059:16076   */\n      add\n        /* \"#utility.yul\":16052:16099   */\n      mstore\n        /* \"#utility.yul\":16116:16247   */\n      tag_459\n        /* \"#utility.yul\":16242:16246   */\n      dup2\n        /* \"#utility.yul\":16116:16247   */\n      tag_269\n      jump\t// in\n    tag_459:\n        /* \"#utility.yul\":16108:16247   */\n      swap1\n      pop\n        /* \"#utility.yul\":15835:16254   */\n      swap2\n      swap1\n      pop\n      jump\t// out\n        /* \"#utility.yul\":16260:16437   */\n    tag_270:\n        /* \"#utility.yul\":16400:16429   */\n      0x796f7520646f6e74206861766520656e6f756768207368617265730000000000\n        /* \"#utility.yul\":16396:16397   */\n      0x00\n        /* \"#utility.yul\":16388:16394   */\n      dup3\n        /* \"#utility.yul\":16384:16398   */\n      add\n        /* \"#utility.yul\":16377:16430   */\n      mstore\n        /* \"#utility.yul\":16260:16437   */\n      pop\n      jump\t// out\n        /* \"#utility.yul\":16443:16809   */\n    tag_271:\n        /* \"#utility.yul\":16585:16588   */\n      0x00\n        /* \"#utility.yul\":16606:16673   */\n      tag_462\n        /* \"#utility.yul\":16670:16672   */\n      0x1b\n        /* \"#utility.yul\":16665:16668   */\n      dup4\n        /* \"#utility.yul\":16606:16673   */\n      tag_234\n      jump\t// in\n    tag_462:\n        /* \"#utility.yul\":16599:16673   */\n      swap2\n      pop\n        /* \"#utility.yul\":16682:16775   */\n      tag_463\n        /* \"#utility.yul\":16771:16774   */\n      dup3\n        /* \"#utility.yul\":16682:16775   */\n      tag_270\n      jump\t// in\n    tag_463:\n        /* \"#utility.yul\":16800:16802   */\n      0x20\n        /* \"#utility.yul\":16795:16798   */\n      dup3\n        /* \"#utility.yul\":16791:16803   */\n      add\n        /* \"#utility.yul\":16784:16803   */\n      swap1\n      pop\n        /* \"#utility.yul\":16443:16809   */\n      swap2\n      swap1\n      pop\n      jump\t// out\n        /* \"#utility.yul\":16815:17234   */\n    tag_130:\n        /* \"#utility.yul\":16981:16985   */\n      0x00\n        /* \"#utility.yul\":17019:17021   */\n      0x20\n        /* \"#utility.yul\":17008:17017   */\n      dup3\n        /* \"#utility.yul\":17004:17022   */\n      add\n        /* \"#utility.yul\":16996:17022   */\n      swap1\n      pop\n        /* \"#utility.yul\":17068:17077   */\n      dup2\n        /* \"#utility.yul\":17062:17066   */\n      dup2\n        /* \"#utility.yul\":17058:17078   */\n      sub\n        /* \"#utility.yul\":17054:17055   */\n      0x00\n        /* \"#utility.yul\":17043:17052   */\n      dup4\n        /* \"#utility.yul\":17039:17056   */\n      add\n        /* \"#utility.yul\":17032:17079   */\n      mstore\n        /* \"#utility.yul\":17096:17227   */\n      tag_465\n        /* \"#utility.yul\":17222:17226   */\n      dup2\n        /* \"#utility.yul\":17096:17227   */\n      tag_271\n      jump\t// in\n    tag_465:\n        /* \"#utility.yul\":17088:17227   */\n      swap1\n      pop\n        /* \"#utility.yul\":16815:17234   */\n      swap2\n      swap1\n      pop\n      jump\t// out\n        /* \"#utility.yul\":17240:17420   */\n    tag_272:\n        /* \"#utility.yul\":17288:17365   */\n      0x4e487b7100000000000000000000000000000000000000000000000000000000\n        /* \"#utility.yul\":17285:17286   */\n      0x00\n        /* \"#utility.yul\":17278:17366   */\n      mstore\n        /* \"#utility.yul\":17385:17389   */\n      0x11\n        /* \"#utility.yul\":17382:17383   */\n      0x04\n        /* \"#utility.yul\":17375:17390   */\n      mstore\n        /* \"#utility.yul\":17409:17413   */\n      0x24\n        /* \"#utility.yul\":17406:17407   */\n      0x00\n        /* \"#utility.yul\":17399:17414   */\n      revert\n        /* \"#utility.yul\":17426:17620   */\n    tag_132:\n        /* \"#utility.yul\":17466:17470   */\n      0x00\n        /* \"#utility.yul\":17486:17506   */\n      tag_468\n        /* \"#utility.yul\":17504:17505   */\n      dup3\n        /* \"#utility.yul\":17486:17506   */\n      tag_229\n      jump\t// in\n    tag_468:\n        /* \"#utility.yul\":17481:17506   */\n      swap2\n      pop\n        /* \"#utility.yul\":17520:17540   */\n      tag_469\n        /* \"#utility.yul\":17538:17539   */\n      dup4\n        /* \"#utility.yul\":17520:17540   */\n      tag_229\n      jump\t// in\n    tag_469:\n        /* \"#utility.yul\":17515:17540   */\n      swap3\n      pop\n        /* \"#utility.yul\":17564:17565   */\n      dup3\n        /* \"#utility.yul\":17561:17562   */\n      dup3\n        /* \"#utility.yul\":17557:17566   */\n      sub\n        /* \"#utility.yul\":17549:17566   */\n      swap1\n      pop\n        /* \"#utility.yul\":17588:17589   */\n      dup2\n        /* \"#utility.yul\":17582:17586   */\n      dup2\n        /* \"#utility.yul\":17579:17590   */\n      gt\n        /* \"#utility.yul\":17576:17613   */\n      iszero\n      tag_470\n      jumpi\n        /* \"#utility.yul\":17593:17611   */\n      tag_471\n      tag_272\n      jump\t// in\n    tag_471:\n        /* \"#utility.yul\":17576:17613   */\n    tag_470:\n        /* \"#utility.yul\":17426:17620   */\n      swap3\n      swap2\n      pop\n      pop\n      jump\t// out\n        /* \"#utility.yul\":17626:17817   */\n    tag_135:\n        /* \"#utility.yul\":17666:17669   */\n      0x00\n        /* \"#utility.yul\":17685:17705   */\n      tag_473\n        /* \"#utility.yul\":17703:17704   */\n      dup3\n        /* \"#utility.yul\":17685:17705   */\n      tag_229\n      jump\t// in\n    tag_473:\n        /* \"#utility.yul\":17680:17705   */\n      swap2\n      pop\n        /* \"#utility.yul\":17719:17739   */\n      tag_474\n        /* \"#utility.yul\":17737:17738   */\n      dup4\n        /* \"#utility.yul\":17719:17739   */\n      tag_229\n      jump\t// in\n    tag_474:\n        /* \"#utility.yul\":17714:17739   */\n      swap3\n      pop\n        /* \"#utility.yul\":17762:17763   */\n      dup3\n        /* \"#utility.yul\":17759:17760   */\n      dup3\n        /* \"#utility.yul\":17755:17764   */\n      add\n        /* \"#utility.yul\":17748:17764   */\n      swap1\n      pop\n        /* \"#utility.yul\":17783:17786   */\n      dup1\n        /* \"#utility.yul\":17780:17781   */\n      dup3\n        /* \"#utility.yul\":17777:17787   */\n      gt\n        /* \"#utility.yul\":17774:17810   */\n      iszero\n      tag_475\n      jumpi\n        /* \"#utility.yul\":17790:17808   */\n      tag_476\n      tag_272\n      jump\t// in\n    tag_476:\n        /* \"#utility.yul\":17774:17810   */\n    tag_475:\n        /* \"#utility.yul\":17626:17817   */\n      swap3\n      swap2\n      pop\n      pop\n      jump\t// out\n        /* \"#utility.yul\":17823:17995   */\n    tag_273:\n        /* \"#utility.yul\":17963:17987   */\n      0x596f7520617265206e6f7420616e206d616e6167657200000000000000000000\n        /* \"#utility.yul\":17959:17960   */\n      0x00\n        /* \"#utility.yul\":17951:17957   */\n      dup3\n        /* \"#utility.yul\":17947:17961   */\n      add\n        /* \"#utility.yul\":17940:17988   */\n      mstore\n        /* \"#utility.yul\":17823:17995   */\n      pop\n      jump\t// out\n        /* \"#utility.yul\":18001:18367   */\n    tag_274:\n        /* \"#utility.yul\":18143:18146   */\n      0x00\n        /* \"#utility.yul\":18164:18231   */\n      tag_479\n        /* \"#utility.yul\":18228:18230   */\n      0x16\n        /* \"#utility.yul\":18223:18226   */\n      dup4\n        /* \"#utility.yul\":18164:18231   */\n      tag_234\n      jump\t// in\n    tag_479:\n        /* \"#utility.yul\":18157:18231   */\n      swap2\n      pop\n        /* \"#utility.yul\":18240:18333   */\n      tag_480\n        /* \"#utility.yul\":18329:18332   */\n      dup3\n        /* \"#utility.yul\":18240:18333   */\n      tag_273\n      jump\t// in\n    tag_480:\n        /* \"#utility.yul\":18358:18360   */\n      0x20\n        /* \"#utility.yul\":18353:18356   */\n      dup3\n        /* \"#utility.yul\":18349:18361   */\n      add\n        /* \"#utility.yul\":18342:18361   */\n      swap1\n      pop\n        /* \"#utility.yul\":18001:18367   */\n      swap2\n      swap1\n      pop\n      jump\t// out\n        /* \"#utility.yul\":18373:18792   */\n    tag_140:\n        /* \"#utility.yul\":18539:18543   */\n      0x00\n        /* \"#utility.yul\":18577:18579   */\n      0x20\n        /* \"#utility.yul\":18566:18575   */\n      dup3\n        /* \"#utility.yul\":18562:18580   */\n      add\n        /* \"#utility.yul\":18554:18580   */\n      swap1\n      pop\n        /* \"#utility.yul\":18626:18635   */\n      dup2\n        /* \"#utility.yul\":18620:18624   */\n      dup2\n        /* \"#utility.yul\":18616:18636   */\n      sub\n        /* \"#utility.yul\":18612:18613   */\n      0x00\n        /* \"#utility.yul\":18601:18610   */\n      dup4\n        /* \"#utility.yul\":18597:18614   */\n      add\n        /* \"#utility.yul\":18590:18637   */\n      mstore\n        /* \"#utility.yul\":18654:18785   */\n      tag_482\n        /* \"#utility.yul\":18780:18784   */\n      dup2\n        /* \"#utility.yul\":18654:18785   */\n      tag_274\n      jump\t// in\n    tag_482:\n        /* \"#utility.yul\":18646:18785   */\n      swap1\n      pop\n        /* \"#utility.yul\":18373:18792   */\n      swap2\n      swap1\n      pop\n      jump\t// out\n        /* \"#utility.yul\":18798:19208   */\n    tag_143:\n        /* \"#utility.yul\":18838:18845   */\n      0x00\n        /* \"#utility.yul\":18861:18881   */\n      tag_484\n        /* \"#utility.yul\":18879:18880   */\n      dup3\n        /* \"#utility.yul\":18861:18881   */\n      tag_229\n      jump\t// in\n    tag_484:\n        /* \"#utility.yul\":18856:18881   */\n      swap2\n      pop\n        /* \"#utility.yul\":18895:18915   */\n      tag_485\n        /* \"#utility.yul\":18913:18914   */\n      dup4\n        /* \"#utility.yul\":18895:18915   */\n      tag_229\n      jump\t// in\n    tag_485:\n        /* \"#utility.yul\":18890:18915   */\n      swap3\n      pop\n        /* \"#utility.yul\":18950:18951   */\n      dup3\n        /* \"#utility.yul\":18947:18948   */\n      dup3\n        /* \"#utility.yul\":18943:18952   */\n      mul\n        /* \"#utility.yul\":18972:19002   */\n      tag_486\n        /* \"#utility.yul\":18990:19001   */\n      dup2\n        /* \"#utility.yul\":18972:19002   */\n      tag_229\n      jump\t// in\n    tag_486:\n        /* \"#utility.yul\":18961:19002   */\n      swap2\n      pop\n        /* \"#utility.yul\":19151:19152   */\n      dup3\n        /* \"#utility.yul\":19142:19149   */\n      dup3\n        /* \"#utility.yul\":19138:19153   */\n      div\n        /* \"#utility.yul\":19135:19136   */\n      dup5\n        /* \"#utility.yul\":19132:19154   */\n      eq\n        /* \"#utility.yul\":19112:19113   */\n      dup4\n        /* \"#utility.yul\":19105:19114   */\n      iszero\n        /* \"#utility.yul\":19085:19168   */\n      or\n        /* \"#utility.yul\":19062:19201   */\n      tag_487\n      jumpi\n        /* \"#utility.yul\":19181:19199   */\n      tag_488\n      tag_272\n      jump\t// in\n    tag_488:\n        /* \"#utility.yul\":19062:19201   */\n    tag_487:\n        /* \"#utility.yul\":18846:19208   */\n      pop\n        /* \"#utility.yul\":18798:19208   */\n      swap3\n      swap2\n      pop\n      pop\n      jump\t// out\n        /* \"#utility.yul\":19214:19394   */\n    tag_275:\n        /* \"#utility.yul\":19262:19339   */\n      0x4e487b7100000000000000000000000000000000000000000000000000000000\n        /* \"#utility.yul\":19259:19260   */\n      0x00\n        /* \"#utility.yul\":19252:19340   */\n      mstore\n        /* \"#utility.yul\":19359:19363   */\n      0x12\n        /* \"#utility.yul\":19356:19357   */\n      0x04\n        /* \"#utility.yul\":19349:19364   */\n      mstore\n        /* \"#utility.yul\":19383:19387   */\n      0x24\n        /* \"#utility.yul\":19380:19381   */\n      0x00\n        /* \"#utility.yul\":19373:19388   */\n      revert\n        /* \"#utility.yul\":19400:19585   */\n    tag_145:\n        /* \"#utility.yul\":19440:19441   */\n      0x00\n        /* \"#utility.yul\":19457:19477   */\n      tag_491\n        /* \"#utility.yul\":19475:19476   */\n      dup3\n        /* \"#utility.yul\":19457:19477   */\n      tag_229\n      jump\t// in\n    tag_491:\n        /* \"#utility.yul\":19452:19477   */\n      swap2\n      pop\n        /* \"#utility.yul\":19491:19511   */\n      tag_492\n        /* \"#utility.yul\":19509:19510   */\n      dup4\n        /* \"#utility.yul\":19491:19511   */\n      tag_229\n      jump\t// in\n    tag_492:\n        /* \"#utility.yul\":19486:19511   */\n      swap3\n      pop\n        /* \"#utility.yul\":19530:19531   */\n      dup3\n        /* \"#utility.yul\":19520:19555   */\n      tag_493\n      jumpi\n        /* \"#utility.yul\":19535:19553   */\n      tag_494\n      tag_275\n      jump\t// in\n    tag_494:\n        /* \"#utility.yul\":19520:19555   */\n    tag_493:\n        /* \"#utility.yul\":19577:19578   */\n      dup3\n        /* \"#utility.yul\":19574:19575   */\n      dup3\n        /* \"#utility.yul\":19570:19579   */\n      div\n        /* \"#utility.yul\":19565:19579   */\n      swap1\n      pop\n        /* \"#utility.yul\":19400:19585   */\n      swap3\n      swap2\n      pop\n      pop\n      jump\t// out\n        /* \"#utility.yul\":19591:19766   */\n    tag_276:\n        /* \"#utility.yul\":19731:19758   */\n      0x4d616a6f7269747920646f6573206e6f7420737570706f727400000000000000\n        /* \"#utility.yul\":19727:19728   */\n      0x00\n        /* \"#utility.yul\":19719:19725   */\n      dup3\n        /* \"#utility.yul\":19715:19729   */\n      add\n        /* \"#utility.yul\":19708:19759   */\n      mstore\n        /* \"#utility.yul\":19591:19766   */\n      pop\n      jump\t// out\n        /* \"#utility.yul\":19772:20138   */\n    tag_277:\n        /* \"#utility.yul\":19914:19917   */\n      0x00\n        /* \"#utility.yul\":19935:20002   */\n      tag_497\n        /* \"#utility.yul\":19999:20001   */\n      0x19\n        /* \"#utility.yul\":19994:19997   */\n      dup4\n        /* \"#utility.yul\":19935:20002   */\n      tag_234\n      jump\t// in\n    tag_497:\n        /* \"#utility.yul\":19928:20002   */\n      swap2\n      pop\n        /* \"#utility.yul\":20011:20104   */\n      tag_498\n        /* \"#utility.yul\":20100:20103   */\n      dup3\n        /* \"#utility.yul\":20011:20104   */\n      tag_276\n      jump\t// in\n    tag_498:\n        /* \"#utility.yul\":20129:20131   */\n      0x20\n        /* \"#utility.yul\":20124:20127   */\n      dup3\n        /* \"#utility.yul\":20120:20132   */\n      add\n        /* \"#utility.yul\":20113:20132   */\n      swap1\n      pop\n        /* \"#utility.yul\":19772:20138   */\n      swap2\n      swap1\n      pop\n      jump\t// out\n        /* \"#utility.yul\":20144:20563   */\n    tag_148:\n        /* \"#utility.yul\":20310:20314   */\n      0x00\n        /* \"#utility.yul\":20348:20350   */\n      0x20\n        /* \"#utility.yul\":20337:20346   */\n      dup3\n        /* \"#utility.yul\":20333:20351   */\n      add\n        /* \"#utility.yul\":20325:20351   */\n      swap1\n      pop\n        /* \"#utility.yul\":20397:20406   */\n      dup2\n        /* \"#utility.yul\":20391:20395   */\n      dup2\n        /* \"#utility.yul\":20387:20407   */\n      sub\n        /* \"#utility.yul\":20383:20384   */\n      0x00\n        /* \"#utility.yul\":20372:20381   */\n      dup4\n        /* \"#utility.yul\":20368:20385   */\n      add\n        /* \"#utility.yul\":20361:20408   */\n      mstore\n        /* \"#utility.yul\":20425:20556   */\n      tag_500\n        /* \"#utility.yul\":20551:20555   */\n      dup2\n        /* \"#utility.yul\":20425:20556   */\n      tag_277\n      jump\t// in\n    tag_500:\n        /* \"#utility.yul\":20417:20556   */\n      swap1\n      pop\n        /* \"#utility.yul\":20144:20563   */\n      swap2\n      swap1\n      pop\n      jump\t// out\n        /* \"#utility.yul\":20569:20742   */\n    tag_278:\n        /* \"#utility.yul\":20709:20734   */\n      0x436f6e747269627574696f6e2074696d6520656e646564000000000000000000\n        /* \"#utility.yul\":20705:20706   */\n      0x00\n        /* \"#utility.yul\":20697:20703   */\n      dup3\n        /* \"#utility.yul\":20693:20707   */\n      add\n        /* \"#utility.yul\":20686:20735   */\n      mstore\n        /* \"#utility.yul\":20569:20742   */\n      pop\n      jump\t// out\n        /* \"#utility.yul\":20748:21114   */\n    tag_279:\n        /* \"#utility.yul\":20890:20893   */\n      0x00\n        /* \"#utility.yul\":20911:20978   */\n      tag_503\n        /* \"#utility.yul\":20975:20977   */\n      0x17\n        /* \"#utility.yul\":20970:20973   */\n      dup4\n        /* \"#utility.yul\":20911:20978   */\n      tag_234\n      jump\t// in\n    tag_503:\n        /* \"#utility.yul\":20904:20978   */\n      swap2\n      pop\n        /* \"#utility.yul\":20987:21080   */\n      tag_504\n        /* \"#utility.yul\":21076:21079   */\n      dup3\n        /* \"#utility.yul\":20987:21080   */\n      tag_278\n      jump\t// in\n    tag_504:\n        /* \"#utility.yul\":21105:21107   */\n      0x20\n        /* \"#utility.yul\":21100:21103   */\n      dup3\n        /* \"#utility.yul\":21096:21108   */\n      add\n        /* \"#utility.yul\":21089:21108   */\n      swap1\n      pop\n        /* \"#utility.yul\":20748:21114   */\n      swap2\n      swap1\n      pop\n      jump\t// out\n        /* \"#utility.yul\":21120:21539   */\n    tag_156:\n        /* \"#utility.yul\":21286:21290   */\n      0x00\n        /* \"#utility.yul\":21324:21326   */\n      0x20\n        /* \"#utility.yul\":21313:21322   */\n      dup3\n        /* \"#utility.yul\":21309:21327   */\n      add\n        /* \"#utility.yul\":21301:21327   */\n      swap1\n      pop\n        /* \"#utility.yul\":21373:21382   */\n      dup2\n        /* \"#utility.yul\":21367:21371   */\n      dup2\n        /* \"#utility.yul\":21363:21383   */\n      sub\n        /* \"#utility.yul\":21359:21360   */\n      0x00\n        /* \"#utility.yul\":21348:21357   */\n      dup4\n        /* \"#utility.yul\":21344:21361   */\n      add\n        /* \"#utility.yul\":21337:21384   */\n      mstore\n        /* \"#utility.yul\":21401:21532   */\n      tag_506\n        /* \"#utility.yul\":21527:21531   */\n      dup2\n        /* \"#utility.yul\":21401:21532   */\n      tag_279\n      jump\t// in\n    tag_506:\n        /* \"#utility.yul\":21393:21532   */\n      swap1\n      pop\n        /* \"#utility.yul\":21120:21539   */\n      swap2\n      swap1\n      pop\n      jump\t// out\n        /* \"#utility.yul\":21545:21717   */\n    tag_280:\n        /* \"#utility.yul\":21685:21709   */\n      0x53656e64206d6f7265207468616e203020657468657200000000000000000000\n        /* \"#utility.yul\":21681:21682   */\n      0x00\n        /* \"#utility.yul\":21673:21679   */\n      dup3\n        /* \"#utility.yul\":21669:21683   */\n      add\n        /* \"#utility.yul\":21662:21710   */\n      mstore\n        /* \"#utility.yul\":21545:21717   */\n      pop\n      jump\t// out\n        /* \"#utility.yul\":21723:22089   */\n    tag_281:\n        /* \"#utility.yul\":21865:21868   */\n      0x00\n        /* \"#utility.yul\":21886:21953   */\n      tag_509\n        /* \"#utility.yul\":21950:21952   */\n      0x16\n        /* \"#utility.yul\":21945:21948   */\n      dup4\n        /* \"#utility.yul\":21886:21953   */\n      tag_234\n      jump\t// in\n    tag_509:\n        /* \"#utility.yul\":21879:21953   */\n      swap2\n      pop\n        /* \"#utility.yul\":21962:22055   */\n      tag_510\n        /* \"#utility.yul\":22051:22054   */\n      dup3\n        /* \"#utility.yul\":21962:22055   */\n      tag_280\n      jump\t// in\n    tag_510:\n        /* \"#utility.yul\":22080:22082   */\n      0x20\n        /* \"#utility.yul\":22075:22078   */\n      dup3\n        /* \"#utility.yul\":22071:22083   */\n      add\n        /* \"#utility.yul\":22064:22083   */\n      swap1\n      pop\n        /* \"#utility.yul\":21723:22089   */\n      swap2\n      swap1\n      pop\n      jump\t// out\n        /* \"#utility.yul\":22095:22514   */\n    tag_159:\n        /* \"#utility.yul\":22261:22265   */\n      0x00\n        /* \"#utility.yul\":22299:22301   */\n      0x20\n        /* \"#utility.yul\":22288:22297   */\n      dup3\n        /* \"#utility.yul\":22284:22302   */\n      add\n        /* \"#utility.yul\":22276:22302   */\n      swap1\n      pop\n        /* \"#utility.yul\":22348:22357   */\n      dup2\n        /* \"#utility.yul\":22342:22346   */\n      dup2\n        /* \"#utility.yul\":22338:22358   */\n      sub\n        /* \"#utility.yul\":22334:22335   */\n      0x00\n        /* \"#utility.yul\":22323:22332   */\n      dup4\n        /* \"#utility.yul\":22319:22336   */\n      add\n        /* \"#utility.yul\":22312:22359   */\n      mstore\n        /* \"#utility.yul\":22376:22507   */\n      tag_512\n        /* \"#utility.yul\":22502:22506   */\n      dup2\n        /* \"#utility.yul\":22376:22507   */\n      tag_281\n      jump\t// in\n    tag_512:\n        /* \"#utility.yul\":22368:22507   */\n      swap1\n      pop\n        /* \"#utility.yul\":22095:22514   */\n      swap2\n      swap1\n      pop\n      jump\t// out\n        /* \"#utility.yul\":22520:22700   */\n    tag_179:\n        /* \"#utility.yul\":22568:22645   */\n      0x4e487b7100000000000000000000000000000000000000000000000000000000\n        /* \"#utility.yul\":22565:22566   */\n      0x00\n        /* \"#utility.yul\":22558:22646   */\n      mstore\n        /* \"#utility.yul\":22665:22669   */\n      0x41\n        /* \"#utility.yul\":22662:22663   */\n      0x04\n        /* \"#utility.yul\":22655:22670   */\n      mstore\n        /* \"#utility.yul\":22689:22693   */\n      0x24\n        /* \"#utility.yul\":22686:22687   */\n      0x00\n        /* \"#utility.yul\":22679:22694   */\n      revert\n        /* \"#utility.yul\":22706:22847   */\n    tag_282:\n        /* \"#utility.yul\":22755:22759   */\n      0x00\n        /* \"#utility.yul\":22778:22781   */\n      dup2\n        /* \"#utility.yul\":22770:22781   */\n      swap1\n      pop\n        /* \"#utility.yul\":22801:22804   */\n      dup2\n        /* \"#utility.yul\":22798:22799   */\n      0x00\n        /* \"#utility.yul\":22791:22805   */\n      mstore\n        /* \"#utility.yul\":22835:22839   */\n      0x20\n        /* \"#utility.yul\":22832:22833   */\n      0x00\n        /* \"#utility.yul\":22822:22840   */\n      keccak256\n        /* \"#utility.yul\":22814:22840   */\n      swap1\n      pop\n        /* \"#utility.yul\":22706:22847   */\n      swap2\n      swap1\n      pop\n      jump\t// out\n        /* \"#utility.yul\":22853:22946   */\n    tag_283:\n        /* \"#utility.yul\":22890:22896   */\n      0x00\n        /* \"#utility.yul\":22937:22939   */\n      0x20\n        /* \"#utility.yul\":22932:22934   */\n      0x1f\n        /* \"#utility.yul\":22925:22930   */\n      dup4\n        /* \"#utility.yul\":22921:22935   */\n      add\n        /* \"#utility.yul\":22917:22940   */\n      div\n        /* \"#utility.yul\":22907:22940   */\n      swap1\n      pop\n        /* \"#utility.yul\":22853:22946   */\n      swap2\n      swap1\n      pop\n      jump\t// out\n        /* \"#utility.yul\":22952:23059   */\n    tag_284:\n        /* \"#utility.yul\":22996:23004   */\n      0x00\n        /* \"#utility.yul\":23046:23051   */\n      dup3\n        /* \"#utility.yul\":23040:23044   */\n      dup3\n        /* \"#utility.yul\":23036:23052   */\n      shl\n        /* \"#utility.yul\":23015:23052   */\n      swap1\n      pop\n        /* \"#utility.yul\":22952:23059   */\n      swap3\n      swap2\n      pop\n      pop\n      jump\t// out\n        /* \"#utility.yul\":23065:23458   */\n    tag_285:\n        /* \"#utility.yul\":23134:23140   */\n      0x00\n        /* \"#utility.yul\":23184:23185   */\n      0x08\n        /* \"#utility.yul\":23172:23182   */\n      dup4\n        /* \"#utility.yul\":23168:23186   */\n      mul\n        /* \"#utility.yul\":23207:23304   */\n      tag_518\n        /* \"#utility.yul\":23237:23303   */\n      0xffffffffffffffffffffffffffffffffffffffffffffffffffffffffffffffff\n        /* \"#utility.yul\":23226:23235   */\n      dup3\n        /* \"#utility.yul\":23207:23304   */\n      tag_284\n      jump\t// in\n    tag_518:\n        /* \"#utility.yul\":23325:23364   */\n      tag_519\n        /* \"#utility.yul\":23355:23363   */\n      dup7\n        /* \"#utility.yul\":23344:23353   */\n      dup4\n        /* \"#utility.yul\":23325:23364   */\n      tag_284\n      jump\t// in\n    tag_519:\n        /* \"#utility.yul\":23313:23364   */\n      swap6\n      pop\n        /* \"#utility.yul\":23397:23401   */\n      dup1\n        /* \"#utility.yul\":23393:23402   */\n      not\n        /* \"#utility.yul\":23386:23391   */\n      dup5\n        /* \"#utility.yul\":23382:23403   */\n      and\n        /* \"#utility.yul\":23373:23403   */\n      swap4\n      pop\n        /* \"#utility.yul\":23446:23450   */\n      dup1\n        /* \"#utility.yul\":23436:23444   */\n      dup7\n        /* \"#utility.yul\":23432:23451   */\n      and\n        /* \"#utility.yul\":23425:23430   */\n      dup5\n        /* \"#utility.yul\":23422:23452   */\n      or\n        /* \"#utility.yul\":23412:23452   */\n      swap3\n      pop\n        /* \"#utility.yul\":23141:23458   */\n      pop\n      pop\n        /* \"#utility.yul\":23065:23458   */\n      swap4\n      swap3\n      pop\n      pop\n      pop\n      jump\t// out\n        /* \"#utility.yul\":23464:23524   */\n    tag_286:\n        /* \"#utility.yul\":23492:23495   */\n      0x00\n        /* \"#utility.yul\":23513:23518   */\n      dup2\n        /* \"#utility.yul\":23506:23518   */\n      swap1\n      pop\n        /* \"#utility.yul\":23464:23524   */\n      swap2\n      swap1\n      pop\n      jump\t// out\n        /* \"#utility.yul\":23530:23672   */\n    tag_287:\n        /* \"#utility.yul\":23580:23589   */\n      0x00\n        /* \"#utility.yul\":23613:23666   */\n      tag_522\n        /* \"#utility.yul\":23631:23665   */\n      tag_523\n        /* \"#utility.yul\":23640:23664   */\n      tag_524\n        /* \"#utility.yul\":23658:23663   */\n      dup5\n        /* \"#utility.yul\":23640:23664   */\n      tag_229\n      jump\t// in\n    tag_524:\n        /* \"#utility.yul\":23631:23665   */\n      tag_286\n      jump\t// in\n    tag_523:\n        /* \"#utility.yul\":23613:23666   */\n      tag_229\n      jump\t// in\n    tag_522:\n        /* \"#utility.yul\":23600:23666   */\n      swap1\n      pop\n        /* \"#utility.yul\":23530:23672   */\n      swap2\n      swap1\n      pop\n      jump\t// out\n        /* \"#utility.yul\":23678:23753   */\n    tag_288:\n        /* \"#utility.yul\":23721:23724   */\n      0x00\n        /* \"#utility.yul\":23742:23747   */\n      dup2\n        /* \"#utility.yul\":23735:23747   */\n      swap1\n      pop\n        /* \"#utility.yul\":23678:23753   */\n      swap2\n      swap1\n      pop\n      jump\t// out\n        /* \"#utility.yul\":23759:24028   */\n    tag_289:\n        /* \"#utility.yul\":23869:23908   */\n      tag_527\n        /* \"#utility.yul\":23900:23907   */\n      dup4\n        /* \"#utility.yul\":23869:23908   */\n      tag_287\n      jump\t// in\n    tag_527:\n        /* \"#utility.yul\":23930:24021   */\n      tag_528\n        /* \"#utility.yul\":23979:24020   */\n      tag_529\n        /* \"#utility.yul\":24003:24019   */\n      dup3\n        /* \"#utility.yul\":23979:24020   */\n      tag_288\n      jump\t// in\n    tag_529:\n        /* \"#utility.yul\":23971:23977   */\n      dup5\n        /* \"#utility.yul\":23964:23968   */\n      dup5\n        /* \"#utility.yul\":23958:23969   */\n      sload\n        /* \"#utility.yul\":23930:24021   */\n      tag_285\n      jump\t// in\n    tag_528:\n        /* \"#utility.yul\":23924:23928   */\n      dup3\n        /* \"#utility.yul\":23917:24022   */\n      sstore\n        /* \"#utility.yul\":23835:24028   */\n      pop\n        /* \"#utility.yul\":23759:24028   */\n      pop\n      pop\n      pop\n      jump\t// out\n        /* \"#utility.yul\":24034:24107   */\n    tag_290:\n        /* \"#utility.yul\":24079:24082   */\n      0x00\n        /* \"#utility.yul\":24034:24107   */\n      swap1\n      jump\t// out\n        /* \"#utility.yul\":24113:24302   */\n    tag_291:\n        /* \"#utility.yul\":24190:24222   */\n      tag_532\n      tag_290\n      jump\t// in\n    tag_532:\n        /* \"#utility.yul\":24231:24296   */\n      tag_533\n        /* \"#utility.yul\":24289:24295   */\n      dup2\n        /* \"#utility.yul\":24281:24287   */\n      dup5\n        /* \"#utility.yul\":24275:24279   */\n      dup5\n        /* \"#utility.yul\":24231:24296   */\n      tag_289\n      jump\t// in\n    tag_533:\n        /* \"#utility.yul\":24166:24302   */\n      pop\n        /* \"#utility.yul\":24113:24302   */\n      pop\n      pop\n      jump\t// out\n        /* \"#utility.yul\":24308:24494   */\n    tag_292:\n        /* \"#utility.yul\":24368:24488   */\n    tag_535:\n        /* \"#utility.yul\":24385:24388   */\n      dup2\n        /* \"#utility.yul\":24378:24383   */\n      dup2\n        /* \"#utility.yul\":24375:24389   */\n      lt\n        /* \"#utility.yul\":24368:24488   */\n      iszero\n      tag_537\n      jumpi\n        /* \"#utility.yul\":24439:24478   */\n      tag_538\n        /* \"#utility.yul\":24476:24477   */\n      0x00\n        /* \"#utility.yul\":24469:24474   */\n      dup3\n        /* \"#utility.yul\":24439:24478   */\n      tag_291\n      jump\t// in\n    tag_538:\n        /* \"#utility.yul\":24412:24413   */\n      0x01\n        /* \"#utility.yul\":24405:24410   */\n      dup2\n        /* \"#utility.yul\":24401:24414   */\n      add\n        /* \"#utility.yul\":24392:24414   */\n      swap1\n      pop\n        /* \"#utility.yul\":24368:24488   */\n      jump(tag_535)\n    tag_537:\n        /* \"#utility.yul\":24308:24494   */\n      pop\n      pop\n      jump\t// out\n        /* \"#utility.yul\":24500:25043   */\n    tag_293:\n        /* \"#utility.yul\":24601:24603   */\n      0x1f\n        /* \"#utility.yul\":24596:24599   */\n      dup3\n        /* \"#utility.yul\":24593:24604   */\n      gt\n        /* \"#utility.yul\":24590:25036   */\n      iszero\n      tag_540\n      jumpi\n        /* \"#utility.yul\":24635:24673   */\n      tag_541\n        /* \"#utility.yul\":24667:24672   */\n      dup2\n        /* \"#utility.yul\":24635:24673   */\n      tag_282\n      jump\t// in\n    tag_541:\n        /* \"#utility.yul\":24719:24748   */\n      tag_542\n        /* \"#utility.yul\":24737:24747   */\n      dup5\n        /* \"#utility.yul\":24719:24748   */\n      tag_283\n      jump\t// in\n    tag_542:\n        /* \"#utility.yul\":24709:24717   */\n      dup2\n        /* \"#utility.yul\":24705:24749   */\n      add\n        /* \"#utility.yul\":24902:24904   */\n      0x20\n        /* \"#utility.yul\":24890:24900   */\n      dup6\n        /* \"#utility.yul\":24887:24905   */\n      lt\n        /* \"#utility.yul\":24884:24933   */\n      iszero\n      tag_543\n      jumpi\n        /* \"#utility.yul\":24923:24931   */\n      dup2\n        /* \"#utility.yul\":24908:24931   */\n      swap1\n      pop\n        /* \"#utility.yul\":24884:24933   */\n    tag_543:\n        /* \"#utility.yul\":24946:25026   */\n      tag_544\n        /* \"#utility.yul\":25002:25024   */\n      tag_545\n        /* \"#utility.yul\":25020:25023   */\n      dup6\n        /* \"#utility.yul\":25002:25024   */\n      tag_283\n      jump\t// in\n    tag_545:\n        /* \"#utility.yul\":24992:25000   */\n      dup4\n        /* \"#utility.yul\":24988:25025   */\n      add\n        /* \"#utility.yul\":24975:24986   */\n      dup3\n        /* \"#utility.yul\":24946:25026   */\n      tag_292\n      jump\t// in\n    tag_544:\n        /* \"#utility.yul\":24605:25036   */\n      pop\n      pop\n        /* \"#utility.yul\":24590:25036   */\n    tag_540:\n        /* \"#utility.yul\":24500:25043   */\n      pop\n      pop\n      pop\n      jump\t// out\n        /* \"#utility.yul\":25049:25166   */\n    tag_294:\n        /* \"#utility.yul\":25103:25111   */\n      0x00\n        /* \"#utility.yul\":25153:25158   */\n      dup3\n        /* \"#utility.yul\":25147:25151   */\n      dup3\n        /* \"#utility.yul\":25143:25159   */\n      shr\n        /* \"#utility.yul\":25122:25159   */\n      swap1\n      pop\n        /* \"#utility.yul\":25049:25166   */\n      swap3\n      swap2\n      pop\n      pop\n      jump\t// out\n        /* \"#utility.yul\":25172:25341   */\n    tag_295:\n        /* \"#utility.yul\":25216:25222   */\n      0x00\n        /* \"#utility.yul\":25249:25300   */\n      tag_548\n        /* \"#utility.yul\":25297:25298   */\n      0x00\n        /* \"#utility.yul\":25293:25299   */\n      not\n        /* \"#utility.yul\":25285:25290   */\n      dup5\n        /* \"#utility.yul\":25282:25283   */\n      0x08\n        /* \"#utility.yul\":25278:25291   */\n      mul\n        /* \"#utility.yul\":25249:25300   */\n      tag_294\n      jump\t// in\n    tag_548:\n        /* \"#utility.yul\":25245:25301   */\n      not\n        /* \"#utility.yul\":25330:25334   */\n      dup1\n        /* \"#utility.yul\":25324:25328   */\n      dup4\n        /* \"#utility.yul\":25320:25335   */\n      and\n        /* \"#utility.yul\":25310:25335   */\n      swap2\n      pop\n        /* \"#utility.yul\":25223:25341   */\n      pop\n        /* \"#utility.yul\":25172:25341   */\n      swap3\n      swap2\n      pop\n      pop\n      jump\t// out\n        /* \"#utility.yul\":25346:25641   */\n    tag_296:\n        /* \"#utility.yul\":25422:25426   */\n      0x00\n        /* \"#utility.yul\":25568:25597   */\n      tag_550\n        /* \"#utility.yul\":25593:25596   */\n      dup4\n        /* \"#utility.yul\":25587:25591   */\n      dup4\n        /* \"#utility.yul\":25568:25597   */\n      tag_295\n      jump\t// in\n    tag_550:\n        /* \"#utility.yul\":25560:25597   */\n      swap2\n      pop\n        /* \"#utility.yul\":25630:25633   */\n      dup3\n        /* \"#utility.yul\":25627:25628   */\n      0x02\n        /* \"#utility.yul\":25623:25634   */\n      mul\n        /* \"#utility.yul\":25617:25621   */\n      dup3\n        /* \"#utility.yul\":25614:25635   */\n      or\n        /* \"#utility.yul\":25606:25635   */\n      swap1\n      pop\n        /* \"#utility.yul\":25346:25641   */\n      swap3\n      swap2\n      pop\n      pop\n      jump\t// out\n        /* \"#utility.yul\":25646:27041   */\n    tag_172:\n        /* \"#utility.yul\":25763:25800   */\n      tag_552\n        /* \"#utility.yul\":25796:25799   */\n      dup3\n        /* \"#utility.yul\":25763:25800   */\n      tag_233\n      jump\t// in\n    tag_552:\n        /* \"#utility.yul\":25865:25883   */\n      0xffffffffffffffff\n        /* \"#utility.yul\":25857:25863   */\n      dup2\n        /* \"#utility.yul\":25854:25884   */\n      gt\n        /* \"#utility.yul\":25851:25907   */\n      iszero\n      tag_553\n      jumpi\n        /* \"#utility.yul\":25887:25905   */\n      tag_554\n      tag_179\n      jump\t// in\n    tag_554:\n        /* \"#utility.yul\":25851:25907   */\n    tag_553:\n        /* \"#utility.yul\":25931:25969   */\n      tag_555\n        /* \"#utility.yul\":25963:25967   */\n      dup3\n        /* \"#utility.yul\":25957:25968   */\n      sload\n        /* \"#utility.yul\":25931:25969   */\n      tag_115\n      jump\t// in\n    tag_555:\n        /* \"#utility.yul\":26016:26083   */\n      tag_556\n        /* \"#utility.yul\":26076:26082   */\n      dup3\n        /* \"#utility.yul\":26068:26074   */\n      dup3\n        /* \"#utility.yul\":26062:26066   */\n      dup6\n        /* \"#utility.yul\":26016:26083   */\n      tag_293\n      jump\t// in\n    tag_556:\n        /* \"#utility.yul\":26110:26111   */\n      0x00\n        /* \"#utility.yul\":26134:26138   */\n      0x20\n        /* \"#utility.yul\":26121:26138   */\n      swap1\n      pop\n        /* \"#utility.yul\":26166:26168   */\n      0x1f\n        /* \"#utility.yul\":26158:26164   */\n      dup4\n        /* \"#utility.yul\":26155:26169   */\n      gt\n        /* \"#utility.yul\":26183:26184   */\n      0x01\n        /* \"#utility.yul\":26178:26796   */\n      dup2\n      eq\n      tag_558\n      jumpi\n        /* \"#utility.yul\":26840:26841   */\n      0x00\n        /* \"#utility.yul\":26857:26863   */\n      dup5\n        /* \"#utility.yul\":26854:26931   */\n      iszero\n      tag_559\n      jumpi\n        /* \"#utility.yul\":26906:26915   */\n      dup3\n        /* \"#utility.yul\":26901:26904   */\n      dup8\n        /* \"#utility.yul\":26897:26916   */\n      add\n        /* \"#utility.yul\":26891:26917   */\n      mload\n        /* \"#utility.yul\":26882:26917   */\n      swap1\n      pop\n        /* \"#utility.yul\":26854:26931   */\n    tag_559:\n        /* \"#utility.yul\":26957:27024   */\n      tag_560\n        /* \"#utility.yul\":27017:27023   */\n      dup6\n        /* \"#utility.yul\":27010:27015   */\n      dup3\n        /* \"#utility.yul\":26957:27024   */\n      tag_296\n      jump\t// in\n    tag_560:\n        /* \"#utility.yul\":26951:26955   */\n      dup7\n        /* \"#utility.yul\":26944:27025   */\n      sstore\n        /* \"#utility.yul\":26813:27035   */\n      pop\n        /* \"#utility.yul\":26148:27035   */\n      jump(tag_557)\n        /* \"#utility.yul\":26178:26796   */\n    tag_558:\n        /* \"#utility.yul\":26230:26234   */\n      0x1f\n        /* \"#utility.yul\":26226:26235   */\n      not\n        /* \"#utility.yul\":26218:26224   */\n      dup5\n        /* \"#utility.yul\":26214:26236   */\n      and\n        /* \"#utility.yul\":26264:26301   */\n      tag_561\n        /* \"#utility.yul\":26296:26300   */\n      dup7\n        /* \"#utility.yul\":26264:26301   */\n      tag_282\n      jump\t// in\n    tag_561:\n        /* \"#utility.yul\":26323:26324   */\n      0x00\n        /* \"#utility.yul\":26337:26545   */\n    tag_562:\n        /* \"#utility.yul\":26351:26358   */\n      dup3\n        /* \"#utility.yul\":26348:26349   */\n      dup2\n        /* \"#utility.yul\":26345:26359   */\n      lt\n        /* \"#utility.yul\":26337:26545   */\n      iszero\n      tag_564\n      jumpi\n        /* \"#utility.yul\":26430:26439   */\n      dup5\n        /* \"#utility.yul\":26425:26428   */\n      dup10\n        /* \"#utility.yul\":26421:26440   */\n      add\n        /* \"#utility.yul\":26415:26441   */\n      mload\n        /* \"#utility.yul\":26407:26413   */\n      dup3\n        /* \"#utility.yul\":26400:26442   */\n      sstore\n        /* \"#utility.yul\":26481:26482   */\n      0x01\n        /* \"#utility.yul\":26473:26479   */\n      dup3\n        /* \"#utility.yul\":26469:26483   */\n      add\n        /* \"#utility.yul\":26459:26483   */\n      swap2\n      pop\n        /* \"#utility.yul\":26528:26530   */\n      0x20\n        /* \"#utility.yul\":26517:26526   */\n      dup6\n        /* \"#utility.yul\":26513:26531   */\n      add\n        /* \"#utility.yul\":26500:26531   */\n      swap5\n      pop\n        /* \"#utility.yul\":26374:26378   */\n      0x20\n        /* \"#utility.yul\":26371:26372   */\n      dup2\n        /* \"#utility.yul\":26367:26379   */\n      add\n        /* \"#utility.yul\":26362:26379   */\n      swap1\n      pop\n        /* \"#utility.yul\":26337:26545   */\n      jump(tag_562)\n    tag_564:\n        /* \"#utility.yul\":26573:26579   */\n      dup7\n        /* \"#utility.yul\":26564:26571   */\n      dup4\n        /* \"#utility.yul\":26561:26580   */\n      lt\n        /* \"#utility.yul\":26558:26737   */\n      iszero\n      tag_565\n      jumpi\n        /* \"#utility.yul\":26631:26640   */\n      dup5\n        /* \"#utility.yul\":26626:26629   */\n      dup10\n        /* \"#utility.yul\":26622:26641   */\n      add\n        /* \"#utility.yul\":26616:26642   */\n      mload\n        /* \"#utility.yul\":26674:26722   */\n      tag_566\n        /* \"#utility.yul\":26716:26720   */\n      0x1f\n        /* \"#utility.yul\":26708:26714   */\n      dup10\n        /* \"#utility.yul\":26704:26721   */\n      and\n        /* \"#utility.yul\":26693:26702   */\n      dup3\n        /* \"#utility.yul\":26674:26722   */\n      tag_295\n      jump\t// in\n    tag_566:\n        /* \"#utility.yul\":26666:26672   */\n      dup4\n        /* \"#utility.yul\":26659:26723   */\n      sstore\n        /* \"#utility.yul\":26581:26737   */\n      pop\n        /* \"#utility.yul\":26558:26737   */\n    tag_565:\n        /* \"#utility.yul\":26783:26784   */\n      0x01\n        /* \"#utility.yul\":26779:26780   */\n      0x02\n        /* \"#utility.yul\":26771:26777   */\n      dup9\n        /* \"#utility.yul\":26767:26781   */\n      mul\n        /* \"#utility.yul\":26763:26785   */\n      add\n        /* \"#utility.yul\":26757:26761   */\n      dup9\n        /* \"#utility.yul\":26750:26786   */\n      sstore\n        /* \"#utility.yul\":26185:26796   */\n      pop\n      pop\n      pop\n        /* \"#utility.yul\":26148:27035   */\n    tag_557:\n      pop\n        /* \"#utility.yul\":25738:27041   */\n      pop\n      pop\n      pop\n        /* \"#utility.yul\":25646:27041   */\n      pop\n      pop\n      jump\t// out\n        /* \"#utility.yul\":27047:27280   */\n    tag_174:\n        /* \"#utility.yul\":27086:27089   */\n      0x00\n        /* \"#utility.yul\":27109:27133   */\n      tag_568\n        /* \"#utility.yul\":27127:27132   */\n      dup3\n        /* \"#utility.yul\":27109:27133   */\n      tag_229\n      jump\t// in\n    tag_568:\n        /* \"#utility.yul\":27100:27133   */\n      swap2\n      pop\n        /* \"#utility.yul\":27155:27221   */\n      0xffffffffffffffffffffffffffffffffffffffffffffffffffffffffffffffff\n        /* \"#utility.yul\":27148:27153   */\n      dup3\n        /* \"#utility.yul\":27145:27222   */\n      sub\n        /* \"#utility.yul\":27142:27245   */\n      tag_569\n      jumpi\n        /* \"#utility.yul\":27225:27243   */\n      tag_570\n      tag_272\n      jump\t// in\n    tag_570:\n        /* \"#utility.yul\":27142:27245   */\n    tag_569:\n        /* \"#utility.yul\":27272:27273   */\n      0x01\n        /* \"#utility.yul\":27265:27270   */\n      dup3\n        /* \"#utility.yul\":27261:27274   */\n      add\n        /* \"#utility.yul\":27254:27274   */\n      swap1\n      pop\n        /* \"#utility.yul\":27047:27280   */\n      swap2\n      swap1\n      pop\n      jump\t// out\n        /* \"#utility.yul\":27286:27466   */\n    tag_194:\n        /* \"#utility.yul\":27334:27411   */\n      0x4e487b7100000000000000000000000000000000000000000000000000000000\n        /* \"#utility.yul\":27331:27332   */\n      0x00\n        /* \"#utility.yul\":27324:27412   */\n      mstore\n        /* \"#utility.yul\":27431:27435   */\n      0x32\n        /* \"#utility.yul\":27428:27429   */\n      0x04\n        /* \"#utility.yul\":27421:27436   */\n      mstore\n        /* \"#utility.yul\":27455:27459   */\n      0x24\n        /* \"#utility.yul\":27452:27453   */\n      0x00\n        /* \"#utility.yul\":27445:27460   */\n      revert\n        /* \"#utility.yul\":27472:27700   */\n    tag_297:\n        /* \"#utility.yul\":27612:27646   */\n      0x596f75206861766520616c726561647920766f74656420666f72207468697320\n        /* \"#utility.yul\":27608:27609   */\n      0x00\n        /* \"#utility.yul\":27600:27606   */\n      dup3\n        /* \"#utility.yul\":27596:27610   */\n      add\n        /* \"#utility.yul\":27589:27647   */\n      mstore\n        /* \"#utility.yul\":27681:27692   */\n      0x70726f706f73616c200000000000000000000000000000000000000000000000\n        /* \"#utility.yul\":27676:27678   */\n      0x20\n        /* \"#utility.yul\":27668:27674   */\n      dup3\n        /* \"#utility.yul\":27664:27679   */\n      add\n        /* \"#utility.yul\":27657:27693   */\n      mstore\n        /* \"#utility.yul\":27472:27700   */\n      pop\n      jump\t// out\n        /* \"#utility.yul\":27706:28072   */\n    tag_298:\n        /* \"#utility.yul\":27848:27851   */\n      0x00\n        /* \"#utility.yul\":27869:27936   */\n      tag_574\n        /* \"#utility.yul\":27933:27935   */\n      0x29\n        /* \"#utility.yul\":27928:27931   */\n      dup4\n        /* \"#utility.yul\":27869:27936   */\n      tag_234\n      jump\t// in\n    tag_574:\n        /* \"#utility.yul\":27862:27936   */\n      swap2\n      pop\n        /* \"#utility.yul\":27945:28038   */\n      tag_575\n        /* \"#utility.yul\":28034:28037   */\n      dup3\n        /* \"#utility.yul\":27945:28038   */\n      tag_297\n      jump\t// in\n    tag_575:\n        /* \"#utility.yul\":28063:28065   */\n      0x40\n        /* \"#utility.yul\":28058:28061   */\n      dup3\n        /* \"#utility.yul\":28054:28066   */\n      add\n        /* \"#utility.yul\":28047:28066   */\n      swap1\n      pop\n        /* \"#utility.yul\":27706:28072   */\n      swap2\n      swap1\n      pop\n      jump\t// out\n        /* \"#utility.yul\":28078:28497   */\n    tag_201:\n        /* \"#utility.yul\":28244:28248   */\n      0x00\n        /* \"#utility.yul\":28282:28284   */\n      0x20\n        /* \"#utility.yul\":28271:28280   */\n      dup3\n        /* \"#utility.yul\":28267:28285   */\n      add\n        /* \"#utility.yul\":28259:28285   */\n      swap1\n      pop\n        /* \"#utility.yul\":28331:28340   */\n      dup2\n        /* \"#utility.yul\":28325:28329   */\n      dup2\n        /* \"#utility.yul\":28321:28341   */\n      sub\n        /* \"#utility.yul\":28317:28318   */\n      0x00\n        /* \"#utility.yul\":28306:28315   */\n      dup4\n        /* \"#utility.yul\":28302:28319   */\n      add\n        /* \"#utility.yul\":28295:28342   */\n      mstore\n        /* \"#utility.yul\":28359:28490   */\n      tag_577\n        /* \"#utility.yul\":28485:28489   */\n      dup2\n        /* \"#utility.yul\":28359:28490   */\n      tag_298\n      jump\t// in\n    tag_577:\n        /* \"#utility.yul\":28351:28490   */\n      swap1\n      pop\n        /* \"#utility.yul\":28078:28497   */\n      swap2\n      swap1\n      pop\n      jump\t// out\n        /* \"#utility.yul\":28503:28670   */\n    tag_299:\n        /* \"#utility.yul\":28643:28662   */\n      0x566f74696e672074696d6520656e646564000000000000000000000000000000\n        /* \"#utility.yul\":28639:28640   */\n      0x00\n        /* \"#utility.yul\":28631:28637   */\n      dup3\n        /* \"#utility.yul\":28627:28641   */\n      add\n        /* \"#utility.yul\":28620:28663   */\n      mstore\n        /* \"#utility.yul\":28503:28670   */\n      pop\n      jump\t// out\n        /* \"#utility.yul\":28676:29042   */\n    tag_300:\n        /* \"#utility.yul\":28818:28821   */\n      0x00\n        /* \"#utility.yul\":28839:28906   */\n      tag_580\n        /* \"#utility.yul\":28903:28905   */\n      0x11\n        /* \"#utility.yul\":28898:28901   */\n      dup4\n        /* \"#utility.yul\":28839:28906   */\n      tag_234\n      jump\t// in\n    tag_580:\n        /* \"#utility.yul\":28832:28906   */\n      swap2\n      pop\n        /* \"#utility.yul\":28915:29008   */\n      tag_581\n        /* \"#utility.yul\":29004:29007   */\n      dup3\n        /* \"#utility.yul\":28915:29008   */\n      tag_299\n      jump\t// in\n    tag_581:\n        /* \"#utility.yul\":29033:29035   */\n      0x20\n        /* \"#utility.yul\":29028:29031   */\n      dup3\n        /* \"#utility.yul\":29024:29036   */\n      add\n        /* \"#utility.yul\":29017:29036   */\n      swap1\n      pop\n        /* \"#utility.yul\":28676:29042   */\n      swap2\n      swap1\n      pop\n      jump\t// out\n        /* \"#utility.yul\":29048:29467   */\n    tag_204:\n        /* \"#utility.yul\":29214:29218   */\n      0x00\n        /* \"#utility.yul\":29252:29254   */\n      0x20\n        /* \"#utility.yul\":29241:29250   */\n      dup3\n        /* \"#utility.yul\":29237:29255   */\n      add\n        /* \"#utility.yul\":29229:29255   */\n      swap1\n      pop\n        /* \"#utility.yul\":29301:29310   */\n      dup2\n        /* \"#utility.yul\":29295:29299   */\n      dup2\n        /* \"#utility.yul\":29291:29311   */\n      sub\n        /* \"#utility.yul\":29287:29288   */\n      0x00\n        /* \"#utility.yul\":29276:29285   */\n      dup4\n        /* \"#utility.yul\":29272:29289   */\n      add\n        /* \"#utility.yul\":29265:29312   */\n      mstore\n        /* \"#utility.yul\":29329:29460   */\n      tag_583\n        /* \"#utility.yul\":29455:29459   */\n      dup2\n        /* \"#utility.yul\":29329:29460   */\n      tag_300\n      jump\t// in\n    tag_583:\n        /* \"#utility.yul\":29321:29460   */\n      swap1\n      pop\n        /* \"#utility.yul\":29048:29467   */\n      swap2\n      swap1\n      pop\n      jump\t// out\n        /* \"#utility.yul\":29473:29645   */\n    tag_301:\n        /* \"#utility.yul\":29613:29637   */\n      0x497420697320616c726561647920657865637574656400000000000000000000\n        /* \"#utility.yul\":29609:29610   */\n      0x00\n        /* \"#utility.yul\":29601:29607   */\n      dup3\n        /* \"#utility.yul\":29597:29611   */\n      add\n        /* \"#utility.yul\":29590:29638   */\n      mstore\n        /* \"#utility.yul\":29473:29645   */\n      pop\n      jump\t// out\n        /* \"#utility.yul\":29651:30017   */\n    tag_302:\n        /* \"#utility.yul\":29793:29796   */\n      0x00\n        /* \"#utility.yul\":29814:29881   */\n      tag_586\n        /* \"#utility.yul\":29878:29880   */\n      0x16\n        /* \"#utility.yul\":29873:29876   */\n      dup4\n        /* \"#utility.yul\":29814:29881   */\n      tag_234\n      jump\t// in\n    tag_586:\n        /* \"#utility.yul\":29807:29881   */\n      swap2\n      pop\n        /* \"#utility.yul\":29890:29983   */\n      tag_587\n        /* \"#utility.yul\":29979:29982   */\n      dup3\n        /* \"#utility.yul\":29890:29983   */\n      tag_301\n      jump\t// in\n    tag_587:\n        /* \"#utility.yul\":30008:30010   */\n      0x20\n        /* \"#utility.yul\":30003:30006   */\n      dup3\n        /* \"#utility.yul\":29999:30011   */\n      add\n        /* \"#utility.yul\":29992:30011   */\n      swap1\n      pop\n        /* \"#utility.yul\":29651:30017   */\n      swap2\n      swap1\n      pop\n      jump\t// out\n        /* \"#utility.yul\":30023:30442   */\n    tag_207:\n        /* \"#utility.yul\":30189:30193   */\n      0x00\n        /* \"#utility.yul\":30227:30229   */\n      0x20\n        /* \"#utility.yul\":30216:30225   */\n      dup3\n        /* \"#utility.yul\":30212:30230   */\n      add\n        /* \"#utility.yul\":30204:30230   */\n      swap1\n      pop\n        /* \"#utility.yul\":30276:30285   */\n      dup2\n        /* \"#utility.yul\":30270:30274   */\n      dup2\n        /* \"#utility.yul\":30266:30286   */\n      sub\n        /* \"#utility.yul\":30262:30263   */\n      0x00\n        /* \"#utility.yul\":30251:30260   */\n      dup4\n        /* \"#utility.yul\":30247:30264   */\n      add\n        /* \"#utility.yul\":30240:30287   */\n      mstore\n        /* \"#utility.yul\":30304:30435   */\n      tag_589\n        /* \"#utility.yul\":30430:30434   */\n      dup2\n        /* \"#utility.yul\":30304:30435   */\n      tag_302\n      jump\t// in\n    tag_589:\n        /* \"#utility.yul\":30296:30435   */\n      swap1\n      pop\n        /* \"#utility.yul\":30023:30442   */\n      swap2\n      swap1\n      pop\n      jump\t// out\n        /* \"#utility.yul\":30448:30625   */\n    tag_303:\n        /* \"#utility.yul\":30588:30617   */\n      0x596f7520646f6e74206861766520656e6f756768207368617265730000000000\n        /* \"#utility.yul\":30584:30585   */\n      0x00\n        /* \"#utility.yul\":30576:30582   */\n      dup3\n        /* \"#utility.yul\":30572:30586   */\n      add\n        /* \"#utility.yul\":30565:30618   */\n      mstore\n        /* \"#utility.yul\":30448:30625   */\n      pop\n      jump\t// out\n        /* \"#utility.yul\":30631:30997   */\n    tag_304:\n        /* \"#utility.yul\":30773:30776   */\n      0x00\n        /* \"#utility.yul\":30794:30861   */\n      tag_592\n        /* \"#utility.yul\":30858:30860   */\n      0x1b\n        /* \"#utility.yul\":30853:30856   */\n      dup4\n        /* \"#utility.yul\":30794:30861   */\n      tag_234\n      jump\t// in\n    tag_592:\n        /* \"#utility.yul\":30787:30861   */\n      swap2\n      pop\n        /* \"#utility.yul\":30870:30963   */\n      tag_593\n        /* \"#utility.yul\":30959:30962   */\n      dup3\n        /* \"#utility.yul\":30870:30963   */\n      tag_303\n      jump\t// in\n    tag_593:\n        /* \"#utility.yul\":30988:30990   */\n      0x20\n        /* \"#utility.yul\":30983:30986   */\n      dup3\n        /* \"#utility.yul\":30979:30991   */\n      add\n        /* \"#utility.yul\":30972:30991   */\n      swap1\n      pop\n        /* \"#utility.yul\":30631:30997   */\n      swap2\n      swap1\n      pop\n      jump\t// out\n        /* \"#utility.yul\":31003:31422   */\n    tag_215:\n        /* \"#utility.yul\":31169:31173   */\n      0x00\n        /* \"#utility.yul\":31207:31209   */\n      0x20\n        /* \"#utility.yul\":31196:31205   */\n      dup3\n        /* \"#utility.yul\":31192:31210   */\n      add\n        /* \"#utility.yul\":31184:31210   */\n      swap1\n      pop\n        /* \"#utility.yul\":31256:31265   */\n      dup2\n        /* \"#utility.yul\":31250:31254   */\n      dup2\n        /* \"#utility.yul\":31246:31266   */\n      sub\n        /* \"#utility.yul\":31242:31243   */\n      0x00\n        /* \"#utility.yul\":31231:31240   */\n      dup4\n        /* \"#utility.yul\":31227:31244   */\n      add\n        /* \"#utility.yul\":31220:31267   */\n      mstore\n        /* \"#utility.yul\":31284:31415   */\n      tag_595\n        /* \"#utility.yul\":31410:31414   */\n      dup2\n        /* \"#utility.yul\":31284:31415   */\n      tag_304\n      jump\t// in\n    tag_595:\n        /* \"#utility.yul\":31276:31415   */\n      swap1\n      pop\n        /* \"#utility.yul\":31003:31422   */\n      swap2\n      swap1\n      pop\n      jump\t// out\n\n    auxdata: 0xa26469706673582212205f0ddc310f67268d84bbf9659c8000c9329d423427f31dc4e5d21af772f7035164736f6c63430008170033\n}\n",
				"bytecode": {
					"linkReferences": {},
					"object": "608060405234801562000010575f80fd5b50604051620028f4380380620028f483398181016040528101906200003691906200012d565b5f81118015620000465750606481105b62000088576040517f08c379a00000000000000000000000000000000000000000000000000000000081526004016200007f90620001e4565b60405180910390fd5b824262000096919062000231565b60088190555081600a81905550600b54905033600c5f6101000a81548173ffffffffffffffffffffffffffffffffffffffff021916908373ffffffffffffffffffffffffffffffffffffffff1602179055505050506200026b565b5f80fd5b5f819050919050565b6200010981620000f5565b811462000114575f80fd5b50565b5f815190506200012781620000fe565b92915050565b5f805f60608486031215620001475762000146620000f1565b5b5f620001568682870162000117565b9350506020620001698682870162000117565b92505060406200017c8682870162000117565b9150509250925092565b5f82825260208201905092915050565b7f4e6f742056616c69642056616c756573000000000000000000000000000000005f82015250565b5f620001cc60108362000186565b9150620001d98262000196565b602082019050919050565b5f6020820190508181035f830152620001fd81620001be565b9050919050565b7f4e487b71000000000000000000000000000000000000000000000000000000005f52601160045260245ffd5b5f6200023d82620000f5565b91506200024a83620000f5565b925082820190508082111562000265576200026462000204565b5b92915050565b61267b80620002795f395ff3fe608060405260043610610113575f3560e01c806350520b1f1161009f578063868643df11610063578063868643df146103775780638ee36f051461039f578063afc8275b146103db578063bcf93dd614610405578063dd5fee6f1461042f57610113565b806350520b1f146102b75780636a907803146102c15780636ac1e01f146102fd5780636dfc109914610325578063807896d51461034f57610113565b80632ab09d14116100e65780632ab09d14146101d35780632ccc8727146101fd5780633a98ef391461023957806346fcff4c14610263578063481c6a751461028d57610113565b8063013cf08b14610117578063039383e6146101595780630d61b519146101815780631703a018146101a9575b5f80fd5b348015610122575f80fd5b5061013d6004803603810190610138919061171c565b61046b565b6040516101509796959493929190611839565b60405180910390f35b348015610164575f80fd5b5061017f600480360381019061017a91906118e8565b61055a565b005b34801561018c575f80fd5b506101a760048036038101906101a2919061171c565b6108a4565b005b3480156101b4575f80fd5b506101bd6109fa565b6040516101ca9190611926565b60405180910390f35b3480156101de575f80fd5b506101e7610a00565b6040516101f49190611926565b60405180910390f35b348015610208575f80fd5b50610223600480360381019061021e919061171c565b610a06565b604051610230919061194e565b60405180910390f35b348015610244575f80fd5b5061024d610a41565b60405161025a9190611926565b60405180910390f35b34801561026e575f80fd5b50610277610a47565b6040516102849190611926565b60405180910390f35b348015610298575f80fd5b506102a1610a4d565b6040516102ae919061194e565b60405180910390f35b6102bf610a72565b005b3480156102cc575f80fd5b506102e760048036038101906102e29190611967565b610c69565b6040516102f49190611926565b60405180910390f35b348015610308575f80fd5b50610323600480360381019061031e9190611a1d565b610c7e565b005b348015610330575f80fd5b50610339610ec3565b6040516103469190611c57565b60405180910390f35b34801561035a575f80fd5b506103756004803603810190610370919061171c565b6110af565b005b348015610382575f80fd5b5061039d6004803603810190610398919061171c565b61134c565b005b3480156103aa575f80fd5b506103c560048036038101906103c09190611c77565b6115ea565b6040516103d29190611cb5565b60405180910390f35b3480156103e6575f80fd5b506103ef611614565b6040516103fc9190611926565b60405180910390f35b348015610410575f80fd5b5061041961161a565b6040516104269190611926565b60405180910390f35b34801561043a575f80fd5b5061045560048036038101906104509190611cce565b611620565b6040516104629190611cb5565b60405180910390f35b6005602052805f5260405f205f91509050805f01549080600101805461049090611d39565b80601f01602080910402602001604051908101604052809291908181526020018280546104bc90611d39565b80156105075780601f106104de57610100808354040283529160200191610507565b820191905f5260205f20905b8154815290600101906020018083116104ea57829003601f168201915b505050505090806002015490806003015f9054906101000a900473ffffffffffffffffffffffffffffffffffffffff1690806004015490806005015490806006015f9054906101000a900460ff16905087565b600115155f803373ffffffffffffffffffffffffffffffffffffffff1673ffffffffffffffffffffffffffffffffffffffff1681526020019081526020015f205f9054906101000a900460ff161515146105e9576040517f08c379a00000000000000000000000000000000000000000000000000000000081526004016105e090611db3565b60405180910390fd5b81600754101561062e576040517f08c379a000000000000000000000000000000000000000000000000000000000815260040161062590611e1b565b60405180910390fd5b8160015f3373ffffffffffffffffffffffffffffffffffffffff1673ffffffffffffffffffffffffffffffffffffffff1681526020019081526020015f205410156106ae576040517f08c379a00000000000000000000000000000000000000000000000000000000081526004016106a590611e83565b60405180910390fd5b8160015f3373ffffffffffffffffffffffffffffffffffffffff1673ffffffffffffffffffffffffffffffffffffffff1681526020019081526020015f205f8282546106fa9190611ece565b925050819055505f60015f3373ffffffffffffffffffffffffffffffffffffffff1673ffffffffffffffffffffffffffffffffffffffff1681526020019081526020015f205403610799575f805f3373ffffffffffffffffffffffffffffffffffffffff1673ffffffffffffffffffffffffffffffffffffffff1681526020019081526020015f205f6101000a81548160ff0219169083151502179055505b8160015f8373ffffffffffffffffffffffffffffffffffffffff1673ffffffffffffffffffffffffffffffffffffffff1681526020019081526020015f205f8282546107e59190611f01565b9250508190555060015f808373ffffffffffffffffffffffffffffffffffffffff1673ffffffffffffffffffffffffffffffffffffffff1681526020019081526020015f205f6101000a81548160ff021916908315150217905550600481908060018154018082558091505060019003905f5260205f20015f9091909190916101000a81548173ffffffffffffffffffffffffffffffffffffffff021916908373ffffffffffffffffffffffffffffffffffffffff1602179055505050565b3373ffffffffffffffffffffffffffffffffffffffff16600c5f9054906101000a900473ffffffffffffffffffffffffffffffffffffffff1673ffffffffffffffffffffffffffffffffffffffff1614610933576040517f08c379a000000000000000000000000000000000000000000000000000000000815260040161092a90611f7e565b60405180910390fd5b5f60055f8381526020019081526020015f209050600b546006546064836004015461095e9190611f9c565b610968919061200a565b10156109a9576040517f08c379a00000000000000000000000000000000000000000000000000000000081526004016109a090612084565b60405180910390fd5b6001816006015f6101000a81548160ff0219169083151502179055506109f68160020154826003015f9054906101000a900473ffffffffffffffffffffffffffffffffffffffff1661164a565b5050565b600b5481565b60095481565b60048181548110610a15575f80fd5b905f5260205f20015f915054906101000a900473ffffffffffffffffffffffffffffffffffffffff1681565b60065481565b60075481565b600c5f9054906101000a900473ffffffffffffffffffffffffffffffffffffffff1681565b426008541015610ab7576040517f08c379a0000000000000000000000000000000000000000000000000000000008152600401610aae906120ec565b60405180910390fd5b5f3411610af9576040517f08c379a0000000000000000000000000000000000000000000000000000000008152600401610af090612154565b60405180910390fd5b60015f803373ffffffffffffffffffffffffffffffffffffffff1673ffffffffffffffffffffffffffffffffffffffff1681526020019081526020015f205f6101000a81548160ff0219169083151502179055503460015f3373ffffffffffffffffffffffffffffffffffffffff1673ffffffffffffffffffffffffffffffffffffffff1681526020019081526020015f2054610b969190611f01565b60015f3373ffffffffffffffffffffffffffffffffffffffff1673ffffffffffffffffffffffffffffffffffffffff1681526020019081526020015f20819055503460065f828254610be89190611f01565b925050819055503460075f828254610c009190611f01565b92505081905550600433908060018154018082558091505060019003905f5260205f20015f9091909190916101000a81548173ffffffffffffffffffffffffffffffffffffffff021916908373ffffffffffffffffffffffffffffffffffffffff160217905550565b6001602052805f5260405f205f915090505481565b3373ffffffffffffffffffffffffffffffffffffffff16600c5f9054906101000a900473ffffffffffffffffffffffffffffffffffffffff1673ffffffffffffffffffffffffffffffffffffffff1614610d0d576040517f08c379a0000000000000000000000000000000000000000000000000000000008152600401610d0490611f7e565b60405180910390fd5b816007541015610d52576040517f08c379a0000000000000000000000000000000000000000000000000000000008152600401610d4990611e1b565b60405180910390fd5b6040518060e00160405280600954815260200185858080601f0160208091040260200160405190810160405280939291908181526020018383808284375f81840152601f19601f8201169050808301925050505050505081526020018381526020018273ffffffffffffffffffffffffffffffffffffffff1681526020015f8152602001600a5442610de49190611f01565b81526020015f151581525060055f60095481526020019081526020015f205f820151815f01556020820151816001019081610e1f919061233c565b50604082015181600201556060820151816003015f6101000a81548173ffffffffffffffffffffffffffffffffffffffff021916908373ffffffffffffffffffffffffffffffffffffffff1602179055506080820151816004015560a0820151816005015560c0820151816006015f6101000a81548160ff02191690831515021790555090505060095f815480929190610eb89061240b565b919050555050505050565b60605f6001600954610ed59190611ece565b67ffffffffffffffff811115610eee57610eed612172565b5b604051908082528060200260200182016040528015610f2757816020015b610f14611692565b815260200190600190039081610f0c5790505b5090505f600190505b6009548110156110a75760055f8281526020019081526020015f206040518060e00160405290815f8201548152602001600182018054610f6f90611d39565b80601f0160208091040260200160405190810160405280929190818152602001828054610f9b90611d39565b8015610fe65780601f10610fbd57610100808354040283529160200191610fe6565b820191905f5260205f20905b815481529060010190602001808311610fc957829003601f168201915b5050505050815260200160028201548152602001600382015f9054906101000a900473ffffffffffffffffffffffffffffffffffffffff1673ffffffffffffffffffffffffffffffffffffffff1673ffffffffffffffffffffffffffffffffffffffff1681526020016004820154815260200160058201548152602001600682015f9054906101000a900460ff16151515158152505082828151811061108f5761108e612452565b5b60200260200101819052508080600101915050610f30565b508091505090565b600115155f803373ffffffffffffffffffffffffffffffffffffffff1673ffffffffffffffffffffffffffffffffffffffff1681526020019081526020015f205f9054906101000a900460ff1615151461113e576040517f08c379a000000000000000000000000000000000000000000000000000000000815260040161113590611db3565b60405180910390fd5b5f60055f8381526020019081526020015f2090505f151560025f3373ffffffffffffffffffffffffffffffffffffffff1673ffffffffffffffffffffffffffffffffffffffff1681526020019081526020015f205f8481526020019081526020015f205f9054906101000a900460ff161515146111f0576040517f08c379a00000000000000000000000000000000000000000000000000000000081526004016111e7906124ef565b60405180910390fd5b4281600501541015611237576040517f08c379a000000000000000000000000000000000000000000000000000000000815260040161122e90612557565b60405180910390fd5b5f1515816006015f9054906101000a900460ff1615151461128d576040517f08c379a0000000000000000000000000000000000000000000000000000000008152600401611284906125bf565b60405180910390fd5b600160025f3373ffffffffffffffffffffffffffffffffffffffff1673ffffffffffffffffffffffffffffffffffffffff1681526020019081526020015f205f8481526020019081526020015f205f6101000a81548160ff02191690831515021790555060015f3373ffffffffffffffffffffffffffffffffffffffff1673ffffffffffffffffffffffffffffffffffffffff1681526020019081526020015f2054816004015f8282546113419190611f01565b925050819055505050565b600115155f803373ffffffffffffffffffffffffffffffffffffffff1673ffffffffffffffffffffffffffffffffffffffff1681526020019081526020015f205f9054906101000a900460ff161515146113db576040517f08c379a00000000000000000000000000000000000000000000000000000000081526004016113d290611db3565b60405180910390fd5b8060015f3373ffffffffffffffffffffffffffffffffffffffff1673ffffffffffffffffffffffffffffffffffffffff1681526020019081526020015f2054101561145b576040517f08c379a000000000000000000000000000000000000000000000000000000000815260040161145290612627565b60405180910390fd5b8060075410156114a0576040517f08c379a000000000000000000000000000000000000000000000000000000000815260040161149790611e1b565b60405180910390fd5b8060015f3373ffffffffffffffffffffffffffffffffffffffff1673ffffffffffffffffffffffffffffffffffffffff1681526020019081526020015f205f8282546114ec9190611ece565b925050819055505f60015f3373ffffffffffffffffffffffffffffffffffffffff1673ffffffffffffffffffffffffffffffffffffffff1681526020019081526020015f20540361158b575f805f3373ffffffffffffffffffffffffffffffffffffffff1673ffffffffffffffffffffffffffffffffffffffff1681526020019081526020015f205f6101000a81548160ff0219169083151502179055505b8060075f82825461159c9190611ece565b925050819055503373ffffffffffffffffffffffffffffffffffffffff166108fc8290811502906040515f60405180830381858888f193505050501580156115e6573d5f803e3d5ffd5b5050565b6002602052815f5260405f20602052805f5260405f205f915091509054906101000a900460ff1681565b60085481565b600a5481565b6003602052815f5260405f20602052805f5260405f205f915091509054906101000a900460ff1681565b8073ffffffffffffffffffffffffffffffffffffffff166108fc8390811502906040515f60405180830381858888f1935050505015801561168d573d5f803e3d5ffd5b505050565b6040518060e001604052805f8152602001606081526020015f81526020015f73ffffffffffffffffffffffffffffffffffffffff1681526020015f81526020015f81526020015f151581525090565b5f80fd5b5f80fd5b5f819050919050565b6116fb816116e9565b8114611705575f80fd5b50565b5f81359050611716816116f2565b92915050565b5f60208284031215611731576117306116e1565b5b5f61173e84828501611708565b91505092915050565b611750816116e9565b82525050565b5f81519050919050565b5f82825260208201905092915050565b5f5b8381101561178d578082015181840152602081019050611772565b5f8484015250505050565b5f601f19601f8301169050919050565b5f6117b282611756565b6117bc8185611760565b93506117cc818560208601611770565b6117d581611798565b840191505092915050565b5f73ffffffffffffffffffffffffffffffffffffffff82169050919050565b5f611809826117e0565b9050919050565b611819816117ff565b82525050565b5f8115159050919050565b6118338161181f565b82525050565b5f60e08201905061184c5f83018a611747565b818103602083015261185e81896117a8565b905061186d6040830188611747565b61187a6060830187611810565b6118876080830186611747565b61189460a0830185611747565b6118a160c083018461182a565b98975050505050505050565b5f6118b7826117e0565b9050919050565b6118c7816118ad565b81146118d1575f80fd5b50565b5f813590506118e2816118be565b92915050565b5f80604083850312156118fe576118fd6116e1565b5b5f61190b85828601611708565b925050602061191c858286016118d4565b9150509250929050565b5f6020820190506119395f830184611747565b92915050565b611948816118ad565b82525050565b5f6020820190506119615f83018461193f565b92915050565b5f6020828403121561197c5761197b6116e1565b5b5f611989848285016118d4565b91505092915050565b5f80fd5b5f80fd5b5f80fd5b5f8083601f8401126119b3576119b2611992565b5b8235905067ffffffffffffffff8111156119d0576119cf611996565b5b6020830191508360018202830111156119ec576119eb61199a565b5b9250929050565b6119fc816117ff565b8114611a06575f80fd5b50565b5f81359050611a17816119f3565b92915050565b5f805f8060608587031215611a3557611a346116e1565b5b5f85013567ffffffffffffffff811115611a5257611a516116e5565b5b611a5e8782880161199e565b94509450506020611a7187828801611708565b9250506040611a8287828801611a09565b91505092959194509250565b5f81519050919050565b5f82825260208201905092915050565b5f819050602082019050919050565b611ac0816116e9565b82525050565b5f82825260208201905092915050565b5f611ae082611756565b611aea8185611ac6565b9350611afa818560208601611770565b611b0381611798565b840191505092915050565b611b17816117ff565b82525050565b611b268161181f565b82525050565b5f60e083015f830151611b415f860182611ab7565b5060208301518482036020860152611b598282611ad6565b9150506040830151611b6e6040860182611ab7565b506060830151611b816060860182611b0e565b506080830151611b946080860182611ab7565b5060a0830151611ba760a0860182611ab7565b5060c0830151611bba60c0860182611b1d565b508091505092915050565b5f611bd08383611b2c565b905092915050565b5f602082019050919050565b5f611bee82611a8e565b611bf88185611a98565b935083602082028501611c0a85611aa8565b805f5b85811015611c455784840389528151611c268582611bc5565b9450611c3183611bd8565b925060208a01995050600181019050611c0d565b50829750879550505050505092915050565b5f6020820190508181035f830152611c6f8184611be4565b905092915050565b5f8060408385031215611c8d57611c8c6116e1565b5b5f611c9a858286016118d4565b9250506020611cab85828601611708565b9150509250929050565b5f602082019050611cc85f83018461182a565b92915050565b5f8060408385031215611ce457611ce36116e1565b5b5f611cf1858286016118d4565b9250506020611d02858286016118d4565b9150509250929050565b7f4e487b71000000000000000000000000000000000000000000000000000000005f52602260045260245ffd5b5f6002820490506001821680611d5057607f821691505b602082108103611d6357611d62611d0c565b5b50919050565b7f596f7520617265206e6f7420616e20696e766573746f720000000000000000005f82015250565b5f611d9d601783611760565b9150611da882611d69565b602082019050919050565b5f6020820190508181035f830152611dca81611d91565b9050919050565b7f4e6f7420656e6f7567682066756e6473000000000000000000000000000000005f82015250565b5f611e05601083611760565b9150611e1082611dd1565b602082019050919050565b5f6020820190508181035f830152611e3281611df9565b9050919050565b7f796f7520646f6e74206861766520656e6f7567682073686172657300000000005f82015250565b5f611e6d601b83611760565b9150611e7882611e39565b602082019050919050565b5f6020820190508181035f830152611e9a81611e61565b9050919050565b7f4e487b71000000000000000000000000000000000000000000000000000000005f52601160045260245ffd5b5f611ed8826116e9565b9150611ee3836116e9565b9250828203905081811115611efb57611efa611ea1565b5b92915050565b5f611f0b826116e9565b9150611f16836116e9565b9250828201905080821115611f2e57611f2d611ea1565b5b92915050565b7f596f7520617265206e6f7420616e206d616e61676572000000000000000000005f82015250565b5f611f68601683611760565b9150611f7382611f34565b602082019050919050565b5f6020820190508181035f830152611f9581611f5c565b9050919050565b5f611fa6826116e9565b9150611fb1836116e9565b9250828202611fbf816116e9565b91508282048414831517611fd657611fd5611ea1565b5b5092915050565b7f4e487b71000000000000000000000000000000000000000000000000000000005f52601260045260245ffd5b5f612014826116e9565b915061201f836116e9565b92508261202f5761202e611fdd565b5b828204905092915050565b7f4d616a6f7269747920646f6573206e6f7420737570706f7274000000000000005f82015250565b5f61206e601983611760565b91506120798261203a565b602082019050919050565b5f6020820190508181035f83015261209b81612062565b9050919050565b7f436f6e747269627574696f6e2074696d6520656e6465640000000000000000005f82015250565b5f6120d6601783611760565b91506120e1826120a2565b602082019050919050565b5f6020820190508181035f830152612103816120ca565b9050919050565b7f53656e64206d6f7265207468616e2030206574686572000000000000000000005f82015250565b5f61213e601683611760565b91506121498261210a565b602082019050919050565b5f6020820190508181035f83015261216b81612132565b9050919050565b7f4e487b71000000000000000000000000000000000000000000000000000000005f52604160045260245ffd5b5f819050815f5260205f209050919050565b5f6020601f8301049050919050565b5f82821b905092915050565b5f600883026121fb7fffffffffffffffffffffffffffffffffffffffffffffffffffffffffffffffff826121c0565b61220586836121c0565b95508019841693508086168417925050509392505050565b5f819050919050565b5f61224061223b612236846116e9565b61221d565b6116e9565b9050919050565b5f819050919050565b61225983612226565b61226d61226582612247565b8484546121cc565b825550505050565b5f90565b612281612275565b61228c818484612250565b505050565b5b818110156122af576122a45f82612279565b600181019050612292565b5050565b601f8211156122f4576122c58161219f565b6122ce846121b1565b810160208510156122dd578190505b6122f16122e9856121b1565b830182612291565b50505b505050565b5f82821c905092915050565b5f6123145f19846008026122f9565b1980831691505092915050565b5f61232c8383612305565b9150826002028217905092915050565b61234582611756565b67ffffffffffffffff81111561235e5761235d612172565b5b6123688254611d39565b6123738282856122b3565b5f60209050601f8311600181146123a4575f8415612392578287015190505b61239c8582612321565b865550612403565b601f1984166123b28661219f565b5f5b828110156123d9578489015182556001820191506020850194506020810190506123b4565b868310156123f657848901516123f2601f891682612305565b8355505b6001600288020188555050505b505050505050565b5f612415826116e9565b91507fffffffffffffffffffffffffffffffffffffffffffffffffffffffffffffffff820361244757612446611ea1565b5b600182019050919050565b7f4e487b71000000000000000000000000000000000000000000000000000000005f52603260045260245ffd5b7f596f75206861766520616c726561647920766f74656420666f722074686973205f8201527f70726f706f73616c200000000000000000000000000000000000000000000000602082015250565b5f6124d9602983611760565b91506124e48261247f565b604082019050919050565b5f6020820190508181035f830152612506816124cd565b9050919050565b7f566f74696e672074696d6520656e6465640000000000000000000000000000005f82015250565b5f612541601183611760565b915061254c8261250d565b602082019050919050565b5f6020820190508181035f83015261256e81612535565b9050919050565b7f497420697320616c7265616479206578656375746564000000000000000000005f82015250565b5f6125a9601683611760565b91506125b482612575565b602082019050919050565b5f6020820190508181035f8301526125d68161259d565b9050919050565b7f596f7520646f6e74206861766520656e6f7567682073686172657300000000005f82015250565b5f612611601b83611760565b915061261c826125dd565b602082019050919050565b5f6020820190508181035f83015261263e81612605565b905091905056fea26469706673582212205f0ddc310f67268d84bbf9659c8000c9329d423427f31dc4e5d21af772f7035164736f6c63430008170033",
					"opcodes": "PUSH1 0x80 PUSH1 0x40 MSTORE CALLVALUE DUP1 ISZERO PUSH3 0x10 JUMPI PUSH0 DUP1 REVERT JUMPDEST POP PUSH1 0x40 MLOAD PUSH3 0x28F4 CODESIZE SUB DUP1 PUSH3 0x28F4 DUP4 CODECOPY DUP2 DUP2 ADD PUSH1 0x40 MSTORE DUP2 ADD SWAP1 PUSH3 0x36 SWAP2 SWAP1 PUSH3 0x12D JUMP JUMPDEST PUSH0 DUP2 GT DUP1 ISZERO PUSH3 0x46 JUMPI POP PUSH1 0x64 DUP2 LT JUMPDEST PUSH3 0x88 JUMPI PUSH1 0x40 MLOAD PUSH32 0x8C379A000000000000000000000000000000000000000000000000000000000 DUP2 MSTORE PUSH1 0x4 ADD PUSH3 0x7F SWAP1 PUSH3 0x1E4 JUMP JUMPDEST PUSH1 0x40 MLOAD DUP1 SWAP2 SUB SWAP1 REVERT JUMPDEST DUP3 TIMESTAMP PUSH3 0x96 SWAP2 SWAP1 PUSH3 0x231 JUMP JUMPDEST PUSH1 0x8 DUP2 SWAP1 SSTORE POP DUP2 PUSH1 0xA DUP2 SWAP1 SSTORE POP PUSH1 0xB SLOAD SWAP1 POP CALLER PUSH1 0xC PUSH0 PUSH2 0x100 EXP DUP2 SLOAD DUP2 PUSH20 0xFFFFFFFFFFFFFFFFFFFFFFFFFFFFFFFFFFFFFFFF MUL NOT AND SWAP1 DUP4 PUSH20 0xFFFFFFFFFFFFFFFFFFFFFFFFFFFFFFFFFFFFFFFF AND MUL OR SWAP1 SSTORE POP POP POP POP PUSH3 0x26B JUMP JUMPDEST PUSH0 DUP1 REVERT JUMPDEST PUSH0 DUP2 SWAP1 POP SWAP2 SWAP1 POP JUMP JUMPDEST PUSH3 0x109 DUP2 PUSH3 0xF5 JUMP JUMPDEST DUP2 EQ PUSH3 0x114 JUMPI PUSH0 DUP1 REVERT JUMPDEST POP JUMP JUMPDEST PUSH0 DUP2 MLOAD SWAP1 POP PUSH3 0x127 DUP2 PUSH3 0xFE JUMP JUMPDEST SWAP3 SWAP2 POP POP JUMP JUMPDEST PUSH0 DUP1 PUSH0 PUSH1 0x60 DUP5 DUP7 SUB SLT ISZERO PUSH3 0x147 JUMPI PUSH3 0x146 PUSH3 0xF1 JUMP JUMPDEST JUMPDEST PUSH0 PUSH3 0x156 DUP7 DUP3 DUP8 ADD PUSH3 0x117 JUMP JUMPDEST SWAP4 POP POP PUSH1 0x20 PUSH3 0x169 DUP7 DUP3 DUP8 ADD PUSH3 0x117 JUMP JUMPDEST SWAP3 POP POP PUSH1 0x40 PUSH3 0x17C DUP7 DUP3 DUP8 ADD PUSH3 0x117 JUMP JUMPDEST SWAP2 POP POP SWAP3 POP SWAP3 POP SWAP3 JUMP JUMPDEST PUSH0 DUP3 DUP3 MSTORE PUSH1 0x20 DUP3 ADD SWAP1 POP SWAP3 SWAP2 POP POP JUMP JUMPDEST PUSH32 0x4E6F742056616C69642056616C75657300000000000000000000000000000000 PUSH0 DUP3 ADD MSTORE POP JUMP JUMPDEST PUSH0 PUSH3 0x1CC PUSH1 0x10 DUP4 PUSH3 0x186 JUMP JUMPDEST SWAP2 POP PUSH3 0x1D9 DUP3 PUSH3 0x196 JUMP JUMPDEST PUSH1 0x20 DUP3 ADD SWAP1 POP SWAP2 SWAP1 POP JUMP JUMPDEST PUSH0 PUSH1 0x20 DUP3 ADD SWAP1 POP DUP2 DUP2 SUB PUSH0 DUP4 ADD MSTORE PUSH3 0x1FD DUP2 PUSH3 0x1BE JUMP JUMPDEST SWAP1 POP SWAP2 SWAP1 POP JUMP JUMPDEST PUSH32 0x4E487B7100000000000000000000000000000000000000000000000000000000 PUSH0 MSTORE PUSH1 0x11 PUSH1 0x4 MSTORE PUSH1 0x24 PUSH0 REVERT JUMPDEST PUSH0 PUSH3 0x23D DUP3 PUSH3 0xF5 JUMP JUMPDEST SWAP2 POP PUSH3 0x24A DUP4 PUSH3 0xF5 JUMP JUMPDEST SWAP3 POP DUP3 DUP3 ADD SWAP1 POP DUP1 DUP3 GT ISZERO PUSH3 0x265 JUMPI PUSH3 0x264 PUSH3 0x204 JUMP JUMPDEST JUMPDEST SWAP3 SWAP2 POP POP JUMP JUMPDEST PUSH2 0x267B DUP1 PUSH3 0x279 PUSH0 CODECOPY PUSH0 RETURN INVALID PUSH1 0x80 PUSH1 0x40 MSTORE PUSH1 0x4 CALLDATASIZE LT PUSH2 0x113 JUMPI PUSH0 CALLDATALOAD PUSH1 0xE0 SHR DUP1 PUSH4 0x50520B1F GT PUSH2 0x9F JUMPI DUP1 PUSH4 0x868643DF GT PUSH2 0x63 JUMPI DUP1 PUSH4 0x868643DF EQ PUSH2 0x377 JUMPI DUP1 PUSH4 0x8EE36F05 EQ PUSH2 0x39F JUMPI DUP1 PUSH4 0xAFC8275B EQ PUSH2 0x3DB JUMPI DUP1 PUSH4 0xBCF93DD6 EQ PUSH2 0x405 JUMPI DUP1 PUSH4 0xDD5FEE6F EQ PUSH2 0x42F JUMPI PUSH2 0x113 JUMP JUMPDEST DUP1 PUSH4 0x50520B1F EQ PUSH2 0x2B7 JUMPI DUP1 PUSH4 0x6A907803 EQ PUSH2 0x2C1 JUMPI DUP1 PUSH4 0x6AC1E01F EQ PUSH2 0x2FD JUMPI DUP1 PUSH4 0x6DFC1099 EQ PUSH2 0x325 JUMPI DUP1 PUSH4 0x807896D5 EQ PUSH2 0x34F JUMPI PUSH2 0x113 JUMP JUMPDEST DUP1 PUSH4 0x2AB09D14 GT PUSH2 0xE6 JUMPI DUP1 PUSH4 0x2AB09D14 EQ PUSH2 0x1D3 JUMPI DUP1 PUSH4 0x2CCC8727 EQ PUSH2 0x1FD JUMPI DUP1 PUSH4 0x3A98EF39 EQ PUSH2 0x239 JUMPI DUP1 PUSH4 0x46FCFF4C EQ PUSH2 0x263 JUMPI DUP1 PUSH4 0x481C6A75 EQ PUSH2 0x28D JUMPI PUSH2 0x113 JUMP JUMPDEST DUP1 PUSH4 0x13CF08B EQ PUSH2 0x117 JUMPI DUP1 PUSH4 0x39383E6 EQ PUSH2 0x159 JUMPI DUP1 PUSH4 0xD61B519 EQ PUSH2 0x181 JUMPI DUP1 PUSH4 0x1703A018 EQ PUSH2 0x1A9 JUMPI JUMPDEST PUSH0 DUP1 REVERT JUMPDEST CALLVALUE DUP1 ISZERO PUSH2 0x122 JUMPI PUSH0 DUP1 REVERT JUMPDEST POP PUSH2 0x13D PUSH1 0x4 DUP1 CALLDATASIZE SUB DUP2 ADD SWAP1 PUSH2 0x138 SWAP2 SWAP1 PUSH2 0x171C JUMP JUMPDEST PUSH2 0x46B JUMP JUMPDEST PUSH1 0x40 MLOAD PUSH2 0x150 SWAP8 SWAP7 SWAP6 SWAP5 SWAP4 SWAP3 SWAP2 SWAP1 PUSH2 0x1839 JUMP JUMPDEST PUSH1 0x40 MLOAD DUP1 SWAP2 SUB SWAP1 RETURN JUMPDEST CALLVALUE DUP1 ISZERO PUSH2 0x164 JUMPI PUSH0 DUP1 REVERT JUMPDEST POP PUSH2 0x17F PUSH1 0x4 DUP1 CALLDATASIZE SUB DUP2 ADD SWAP1 PUSH2 0x17A SWAP2 SWAP1 PUSH2 0x18E8 JUMP JUMPDEST PUSH2 0x55A JUMP JUMPDEST STOP JUMPDEST CALLVALUE DUP1 ISZERO PUSH2 0x18C JUMPI PUSH0 DUP1 REVERT JUMPDEST POP PUSH2 0x1A7 PUSH1 0x4 DUP1 CALLDATASIZE SUB DUP2 ADD SWAP1 PUSH2 0x1A2 SWAP2 SWAP1 PUSH2 0x171C JUMP JUMPDEST PUSH2 0x8A4 JUMP JUMPDEST STOP JUMPDEST CALLVALUE DUP1 ISZERO PUSH2 0x1B4 JUMPI PUSH0 DUP1 REVERT JUMPDEST POP PUSH2 0x1BD PUSH2 0x9FA JUMP JUMPDEST PUSH1 0x40 MLOAD PUSH2 0x1CA SWAP2 SWAP1 PUSH2 0x1926 JUMP JUMPDEST PUSH1 0x40 MLOAD DUP1 SWAP2 SUB SWAP1 RETURN JUMPDEST CALLVALUE DUP1 ISZERO PUSH2 0x1DE JUMPI PUSH0 DUP1 REVERT JUMPDEST POP PUSH2 0x1E7 PUSH2 0xA00 JUMP JUMPDEST PUSH1 0x40 MLOAD PUSH2 0x1F4 SWAP2 SWAP1 PUSH2 0x1926 JUMP JUMPDEST PUSH1 0x40 MLOAD DUP1 SWAP2 SUB SWAP1 RETURN JUMPDEST CALLVALUE DUP1 ISZERO PUSH2 0x208 JUMPI PUSH0 DUP1 REVERT JUMPDEST POP PUSH2 0x223 PUSH1 0x4 DUP1 CALLDATASIZE SUB DUP2 ADD SWAP1 PUSH2 0x21E SWAP2 SWAP1 PUSH2 0x171C JUMP JUMPDEST PUSH2 0xA06 JUMP JUMPDEST PUSH1 0x40 MLOAD PUSH2 0x230 SWAP2 SWAP1 PUSH2 0x194E JUMP JUMPDEST PUSH1 0x40 MLOAD DUP1 SWAP2 SUB SWAP1 RETURN JUMPDEST CALLVALUE DUP1 ISZERO PUSH2 0x244 JUMPI PUSH0 DUP1 REVERT JUMPDEST POP PUSH2 0x24D PUSH2 0xA41 JUMP JUMPDEST PUSH1 0x40 MLOAD PUSH2 0x25A SWAP2 SWAP1 PUSH2 0x1926 JUMP JUMPDEST PUSH1 0x40 MLOAD DUP1 SWAP2 SUB SWAP1 RETURN JUMPDEST CALLVALUE DUP1 ISZERO PUSH2 0x26E JUMPI PUSH0 DUP1 REVERT JUMPDEST POP PUSH2 0x277 PUSH2 0xA47 JUMP JUMPDEST PUSH1 0x40 MLOAD PUSH2 0x284 SWAP2 SWAP1 PUSH2 0x1926 JUMP JUMPDEST PUSH1 0x40 MLOAD DUP1 SWAP2 SUB SWAP1 RETURN JUMPDEST CALLVALUE DUP1 ISZERO PUSH2 0x298 JUMPI PUSH0 DUP1 REVERT JUMPDEST POP PUSH2 0x2A1 PUSH2 0xA4D JUMP JUMPDEST PUSH1 0x40 MLOAD PUSH2 0x2AE SWAP2 SWAP1 PUSH2 0x194E JUMP JUMPDEST PUSH1 0x40 MLOAD DUP1 SWAP2 SUB SWAP1 RETURN JUMPDEST PUSH2 0x2BF PUSH2 0xA72 JUMP JUMPDEST STOP JUMPDEST CALLVALUE DUP1 ISZERO PUSH2 0x2CC JUMPI PUSH0 DUP1 REVERT JUMPDEST POP PUSH2 0x2E7 PUSH1 0x4 DUP1 CALLDATASIZE SUB DUP2 ADD SWAP1 PUSH2 0x2E2 SWAP2 SWAP1 PUSH2 0x1967 JUMP JUMPDEST PUSH2 0xC69 JUMP JUMPDEST PUSH1 0x40 MLOAD PUSH2 0x2F4 SWAP2 SWAP1 PUSH2 0x1926 JUMP JUMPDEST PUSH1 0x40 MLOAD DUP1 SWAP2 SUB SWAP1 RETURN JUMPDEST CALLVALUE DUP1 ISZERO PUSH2 0x308 JUMPI PUSH0 DUP1 REVERT JUMPDEST POP PUSH2 0x323 PUSH1 0x4 DUP1 CALLDATASIZE SUB DUP2 ADD SWAP1 PUSH2 0x31E SWAP2 SWAP1 PUSH2 0x1A1D JUMP JUMPDEST PUSH2 0xC7E JUMP JUMPDEST STOP JUMPDEST CALLVALUE DUP1 ISZERO PUSH2 0x330 JUMPI PUSH0 DUP1 REVERT JUMPDEST POP PUSH2 0x339 PUSH2 0xEC3 JUMP JUMPDEST PUSH1 0x40 MLOAD PUSH2 0x346 SWAP2 SWAP1 PUSH2 0x1C57 JUMP JUMPDEST PUSH1 0x40 MLOAD DUP1 SWAP2 SUB SWAP1 RETURN JUMPDEST CALLVALUE DUP1 ISZERO PUSH2 0x35A JUMPI PUSH0 DUP1 REVERT JUMPDEST POP PUSH2 0x375 PUSH1 0x4 DUP1 CALLDATASIZE SUB DUP2 ADD SWAP1 PUSH2 0x370 SWAP2 SWAP1 PUSH2 0x171C JUMP JUMPDEST PUSH2 0x10AF JUMP JUMPDEST STOP JUMPDEST CALLVALUE DUP1 ISZERO PUSH2 0x382 JUMPI PUSH0 DUP1 REVERT JUMPDEST POP PUSH2 0x39D PUSH1 0x4 DUP1 CALLDATASIZE SUB DUP2 ADD SWAP1 PUSH2 0x398 SWAP2 SWAP1 PUSH2 0x171C JUMP JUMPDEST PUSH2 0x134C JUMP JUMPDEST STOP JUMPDEST CALLVALUE DUP1 ISZERO PUSH2 0x3AA JUMPI PUSH0 DUP1 REVERT JUMPDEST POP PUSH2 0x3C5 PUSH1 0x4 DUP1 CALLDATASIZE SUB DUP2 ADD SWAP1 PUSH2 0x3C0 SWAP2 SWAP1 PUSH2 0x1C77 JUMP JUMPDEST PUSH2 0x15EA JUMP JUMPDEST PUSH1 0x40 MLOAD PUSH2 0x3D2 SWAP2 SWAP1 PUSH2 0x1CB5 JUMP JUMPDEST PUSH1 0x40 MLOAD DUP1 SWAP2 SUB SWAP1 RETURN JUMPDEST CALLVALUE DUP1 ISZERO PUSH2 0x3E6 JUMPI PUSH0 DUP1 REVERT JUMPDEST POP PUSH2 0x3EF PUSH2 0x1614 JUMP JUMPDEST PUSH1 0x40 MLOAD PUSH2 0x3FC SWAP2 SWAP1 PUSH2 0x1926 JUMP JUMPDEST PUSH1 0x40 MLOAD DUP1 SWAP2 SUB SWAP1 RETURN JUMPDEST CALLVALUE DUP1 ISZERO PUSH2 0x410 JUMPI PUSH0 DUP1 REVERT JUMPDEST POP PUSH2 0x419 PUSH2 0x161A JUMP JUMPDEST PUSH1 0x40 MLOAD PUSH2 0x426 SWAP2 SWAP1 PUSH2 0x1926 JUMP JUMPDEST PUSH1 0x40 MLOAD DUP1 SWAP2 SUB SWAP1 RETURN JUMPDEST CALLVALUE DUP1 ISZERO PUSH2 0x43A JUMPI PUSH0 DUP1 REVERT JUMPDEST POP PUSH2 0x455 PUSH1 0x4 DUP1 CALLDATASIZE SUB DUP2 ADD SWAP1 PUSH2 0x450 SWAP2 SWAP1 PUSH2 0x1CCE JUMP JUMPDEST PUSH2 0x1620 JUMP JUMPDEST PUSH1 0x40 MLOAD PUSH2 0x462 SWAP2 SWAP1 PUSH2 0x1CB5 JUMP JUMPDEST PUSH1 0x40 MLOAD DUP1 SWAP2 SUB SWAP1 RETURN JUMPDEST PUSH1 0x5 PUSH1 0x20 MSTORE DUP1 PUSH0 MSTORE PUSH1 0x40 PUSH0 KECCAK256 PUSH0 SWAP2 POP SWAP1 POP DUP1 PUSH0 ADD SLOAD SWAP1 DUP1 PUSH1 0x1 ADD DUP1 SLOAD PUSH2 0x490 SWAP1 PUSH2 0x1D39 JUMP JUMPDEST DUP1 PUSH1 0x1F ADD PUSH1 0x20 DUP1 SWAP2 DIV MUL PUSH1 0x20 ADD PUSH1 0x40 MLOAD SWAP1 DUP2 ADD PUSH1 0x40 MSTORE DUP1 SWAP3 SWAP2 SWAP1 DUP2 DUP2 MSTORE PUSH1 0x20 ADD DUP3 DUP1 SLOAD PUSH2 0x4BC SWAP1 PUSH2 0x1D39 JUMP JUMPDEST DUP1 ISZERO PUSH2 0x507 JUMPI DUP1 PUSH1 0x1F LT PUSH2 0x4DE JUMPI PUSH2 0x100 DUP1 DUP4 SLOAD DIV MUL DUP4 MSTORE SWAP2 PUSH1 0x20 ADD SWAP2 PUSH2 0x507 JUMP JUMPDEST DUP3 ADD SWAP2 SWAP1 PUSH0 MSTORE PUSH1 0x20 PUSH0 KECCAK256 SWAP1 JUMPDEST DUP2 SLOAD DUP2 MSTORE SWAP1 PUSH1 0x1 ADD SWAP1 PUSH1 0x20 ADD DUP1 DUP4 GT PUSH2 0x4EA JUMPI DUP3 SWAP1 SUB PUSH1 0x1F AND DUP3 ADD SWAP2 JUMPDEST POP POP POP POP POP SWAP1 DUP1 PUSH1 0x2 ADD SLOAD SWAP1 DUP1 PUSH1 0x3 ADD PUSH0 SWAP1 SLOAD SWAP1 PUSH2 0x100 EXP SWAP1 DIV PUSH20 0xFFFFFFFFFFFFFFFFFFFFFFFFFFFFFFFFFFFFFFFF AND SWAP1 DUP1 PUSH1 0x4 ADD SLOAD SWAP1 DUP1 PUSH1 0x5 ADD SLOAD SWAP1 DUP1 PUSH1 0x6 ADD PUSH0 SWAP1 SLOAD SWAP1 PUSH2 0x100 EXP SWAP1 DIV PUSH1 0xFF AND SWAP1 POP DUP8 JUMP JUMPDEST PUSH1 0x1 ISZERO ISZERO PUSH0 DUP1 CALLER PUSH20 0xFFFFFFFFFFFFFFFFFFFFFFFFFFFFFFFFFFFFFFFF AND PUSH20 0xFFFFFFFFFFFFFFFFFFFFFFFFFFFFFFFFFFFFFFFF AND DUP2 MSTORE PUSH1 0x20 ADD SWAP1 DUP2 MSTORE PUSH1 0x20 ADD PUSH0 KECCAK256 PUSH0 SWAP1 SLOAD SWAP1 PUSH2 0x100 EXP SWAP1 DIV PUSH1 0xFF AND ISZERO ISZERO EQ PUSH2 0x5E9 JUMPI PUSH1 0x40 MLOAD PUSH32 0x8C379A000000000000000000000000000000000000000000000000000000000 DUP2 MSTORE PUSH1 0x4 ADD PUSH2 0x5E0 SWAP1 PUSH2 0x1DB3 JUMP JUMPDEST PUSH1 0x40 MLOAD DUP1 SWAP2 SUB SWAP1 REVERT JUMPDEST DUP2 PUSH1 0x7 SLOAD LT ISZERO PUSH2 0x62E JUMPI PUSH1 0x40 MLOAD PUSH32 0x8C379A000000000000000000000000000000000000000000000000000000000 DUP2 MSTORE PUSH1 0x4 ADD PUSH2 0x625 SWAP1 PUSH2 0x1E1B JUMP JUMPDEST PUSH1 0x40 MLOAD DUP1 SWAP2 SUB SWAP1 REVERT JUMPDEST DUP2 PUSH1 0x1 PUSH0 CALLER PUSH20 0xFFFFFFFFFFFFFFFFFFFFFFFFFFFFFFFFFFFFFFFF AND PUSH20 0xFFFFFFFFFFFFFFFFFFFFFFFFFFFFFFFFFFFFFFFF AND DUP2 MSTORE PUSH1 0x20 ADD SWAP1 DUP2 MSTORE PUSH1 0x20 ADD PUSH0 KECCAK256 SLOAD LT ISZERO PUSH2 0x6AE JUMPI PUSH1 0x40 MLOAD PUSH32 0x8C379A000000000000000000000000000000000000000000000000000000000 DUP2 MSTORE PUSH1 0x4 ADD PUSH2 0x6A5 SWAP1 PUSH2 0x1E83 JUMP JUMPDEST PUSH1 0x40 MLOAD DUP1 SWAP2 SUB SWAP1 REVERT JUMPDEST DUP2 PUSH1 0x1 PUSH0 CALLER PUSH20 0xFFFFFFFFFFFFFFFFFFFFFFFFFFFFFFFFFFFFFFFF AND PUSH20 0xFFFFFFFFFFFFFFFFFFFFFFFFFFFFFFFFFFFFFFFF AND DUP2 MSTORE PUSH1 0x20 ADD SWAP1 DUP2 MSTORE PUSH1 0x20 ADD PUSH0 KECCAK256 PUSH0 DUP3 DUP3 SLOAD PUSH2 0x6FA SWAP2 SWAP1 PUSH2 0x1ECE JUMP JUMPDEST SWAP3 POP POP DUP2 SWAP1 SSTORE POP PUSH0 PUSH1 0x1 PUSH0 CALLER PUSH20 0xFFFFFFFFFFFFFFFFFFFFFFFFFFFFFFFFFFFFFFFF AND PUSH20 0xFFFFFFFFFFFFFFFFFFFFFFFFFFFFFFFFFFFFFFFF AND DUP2 MSTORE PUSH1 0x20 ADD SWAP1 DUP2 MSTORE PUSH1 0x20 ADD PUSH0 KECCAK256 SLOAD SUB PUSH2 0x799 JUMPI PUSH0 DUP1 PUSH0 CALLER PUSH20 0xFFFFFFFFFFFFFFFFFFFFFFFFFFFFFFFFFFFFFFFF AND PUSH20 0xFFFFFFFFFFFFFFFFFFFFFFFFFFFFFFFFFFFFFFFF AND DUP2 MSTORE PUSH1 0x20 ADD SWAP1 DUP2 MSTORE PUSH1 0x20 ADD PUSH0 KECCAK256 PUSH0 PUSH2 0x100 EXP DUP2 SLOAD DUP2 PUSH1 0xFF MUL NOT AND SWAP1 DUP4 ISZERO ISZERO MUL OR SWAP1 SSTORE POP JUMPDEST DUP2 PUSH1 0x1 PUSH0 DUP4 PUSH20 0xFFFFFFFFFFFFFFFFFFFFFFFFFFFFFFFFFFFFFFFF AND PUSH20 0xFFFFFFFFFFFFFFFFFFFFFFFFFFFFFFFFFFFFFFFF AND DUP2 MSTORE PUSH1 0x20 ADD SWAP1 DUP2 MSTORE PUSH1 0x20 ADD PUSH0 KECCAK256 PUSH0 DUP3 DUP3 SLOAD PUSH2 0x7E5 SWAP2 SWAP1 PUSH2 0x1F01 JUMP JUMPDEST SWAP3 POP POP DUP2 SWAP1 SSTORE POP PUSH1 0x1 PUSH0 DUP1 DUP4 PUSH20 0xFFFFFFFFFFFFFFFFFFFFFFFFFFFFFFFFFFFFFFFF AND PUSH20 0xFFFFFFFFFFFFFFFFFFFFFFFFFFFFFFFFFFFFFFFF AND DUP2 MSTORE PUSH1 0x20 ADD SWAP1 DUP2 MSTORE PUSH1 0x20 ADD PUSH0 KECCAK256 PUSH0 PUSH2 0x100 EXP DUP2 SLOAD DUP2 PUSH1 0xFF MUL NOT AND SWAP1 DUP4 ISZERO ISZERO MUL OR SWAP1 SSTORE POP PUSH1 0x4 DUP2 SWAP1 DUP1 PUSH1 0x1 DUP2 SLOAD ADD DUP1 DUP3 SSTORE DUP1 SWAP2 POP POP PUSH1 0x1 SWAP1 SUB SWAP1 PUSH0 MSTORE PUSH1 0x20 PUSH0 KECCAK256 ADD PUSH0 SWAP1 SWAP2 SWAP1 SWAP2 SWAP1 SWAP2 PUSH2 0x100 EXP DUP2 SLOAD DUP2 PUSH20 0xFFFFFFFFFFFFFFFFFFFFFFFFFFFFFFFFFFFFFFFF MUL NOT AND SWAP1 DUP4 PUSH20 0xFFFFFFFFFFFFFFFFFFFFFFFFFFFFFFFFFFFFFFFF AND MUL OR SWAP1 SSTORE POP POP POP JUMP JUMPDEST CALLER PUSH20 0xFFFFFFFFFFFFFFFFFFFFFFFFFFFFFFFFFFFFFFFF AND PUSH1 0xC PUSH0 SWAP1 SLOAD SWAP1 PUSH2 0x100 EXP SWAP1 DIV PUSH20 0xFFFFFFFFFFFFFFFFFFFFFFFFFFFFFFFFFFFFFFFF AND PUSH20 0xFFFFFFFFFFFFFFFFFFFFFFFFFFFFFFFFFFFFFFFF AND EQ PUSH2 0x933 JUMPI PUSH1 0x40 MLOAD PUSH32 0x8C379A000000000000000000000000000000000000000000000000000000000 DUP2 MSTORE PUSH1 0x4 ADD PUSH2 0x92A SWAP1 PUSH2 0x1F7E JUMP JUMPDEST PUSH1 0x40 MLOAD DUP1 SWAP2 SUB SWAP1 REVERT JUMPDEST PUSH0 PUSH1 0x5 PUSH0 DUP4 DUP2 MSTORE PUSH1 0x20 ADD SWAP1 DUP2 MSTORE PUSH1 0x20 ADD PUSH0 KECCAK256 SWAP1 POP PUSH1 0xB SLOAD PUSH1 0x6 SLOAD PUSH1 0x64 DUP4 PUSH1 0x4 ADD SLOAD PUSH2 0x95E SWAP2 SWAP1 PUSH2 0x1F9C JUMP JUMPDEST PUSH2 0x968 SWAP2 SWAP1 PUSH2 0x200A JUMP JUMPDEST LT ISZERO PUSH2 0x9A9 JUMPI PUSH1 0x40 MLOAD PUSH32 0x8C379A000000000000000000000000000000000000000000000000000000000 DUP2 MSTORE PUSH1 0x4 ADD PUSH2 0x9A0 SWAP1 PUSH2 0x2084 JUMP JUMPDEST PUSH1 0x40 MLOAD DUP1 SWAP2 SUB SWAP1 REVERT JUMPDEST PUSH1 0x1 DUP2 PUSH1 0x6 ADD PUSH0 PUSH2 0x100 EXP DUP2 SLOAD DUP2 PUSH1 0xFF MUL NOT AND SWAP1 DUP4 ISZERO ISZERO MUL OR SWAP1 SSTORE POP PUSH2 0x9F6 DUP2 PUSH1 0x2 ADD SLOAD DUP3 PUSH1 0x3 ADD PUSH0 SWAP1 SLOAD SWAP1 PUSH2 0x100 EXP SWAP1 DIV PUSH20 0xFFFFFFFFFFFFFFFFFFFFFFFFFFFFFFFFFFFFFFFF AND PUSH2 0x164A JUMP JUMPDEST POP POP JUMP JUMPDEST PUSH1 0xB SLOAD DUP2 JUMP JUMPDEST PUSH1 0x9 SLOAD DUP2 JUMP JUMPDEST PUSH1 0x4 DUP2 DUP2 SLOAD DUP2 LT PUSH2 0xA15 JUMPI PUSH0 DUP1 REVERT JUMPDEST SWAP1 PUSH0 MSTORE PUSH1 0x20 PUSH0 KECCAK256 ADD PUSH0 SWAP2 POP SLOAD SWAP1 PUSH2 0x100 EXP SWAP1 DIV PUSH20 0xFFFFFFFFFFFFFFFFFFFFFFFFFFFFFFFFFFFFFFFF AND DUP2 JUMP JUMPDEST PUSH1 0x6 SLOAD DUP2 JUMP JUMPDEST PUSH1 0x7 SLOAD DUP2 JUMP JUMPDEST PUSH1 0xC PUSH0 SWAP1 SLOAD SWAP1 PUSH2 0x100 EXP SWAP1 DIV PUSH20 0xFFFFFFFFFFFFFFFFFFFFFFFFFFFFFFFFFFFFFFFF AND DUP2 JUMP JUMPDEST TIMESTAMP PUSH1 0x8 SLOAD LT ISZERO PUSH2 0xAB7 JUMPI PUSH1 0x40 MLOAD PUSH32 0x8C379A000000000000000000000000000000000000000000000000000000000 DUP2 MSTORE PUSH1 0x4 ADD PUSH2 0xAAE SWAP1 PUSH2 0x20EC JUMP JUMPDEST PUSH1 0x40 MLOAD DUP1 SWAP2 SUB SWAP1 REVERT JUMPDEST PUSH0 CALLVALUE GT PUSH2 0xAF9 JUMPI PUSH1 0x40 MLOAD PUSH32 0x8C379A000000000000000000000000000000000000000000000000000000000 DUP2 MSTORE PUSH1 0x4 ADD PUSH2 0xAF0 SWAP1 PUSH2 0x2154 JUMP JUMPDEST PUSH1 0x40 MLOAD DUP1 SWAP2 SUB SWAP1 REVERT JUMPDEST PUSH1 0x1 PUSH0 DUP1 CALLER PUSH20 0xFFFFFFFFFFFFFFFFFFFFFFFFFFFFFFFFFFFFFFFF AND PUSH20 0xFFFFFFFFFFFFFFFFFFFFFFFFFFFFFFFFFFFFFFFF AND DUP2 MSTORE PUSH1 0x20 ADD SWAP1 DUP2 MSTORE PUSH1 0x20 ADD PUSH0 KECCAK256 PUSH0 PUSH2 0x100 EXP DUP2 SLOAD DUP2 PUSH1 0xFF MUL NOT AND SWAP1 DUP4 ISZERO ISZERO MUL OR SWAP1 SSTORE POP CALLVALUE PUSH1 0x1 PUSH0 CALLER PUSH20 0xFFFFFFFFFFFFFFFFFFFFFFFFFFFFFFFFFFFFFFFF AND PUSH20 0xFFFFFFFFFFFFFFFFFFFFFFFFFFFFFFFFFFFFFFFF AND DUP2 MSTORE PUSH1 0x20 ADD SWAP1 DUP2 MSTORE PUSH1 0x20 ADD PUSH0 KECCAK256 SLOAD PUSH2 0xB96 SWAP2 SWAP1 PUSH2 0x1F01 JUMP JUMPDEST PUSH1 0x1 PUSH0 CALLER PUSH20 0xFFFFFFFFFFFFFFFFFFFFFFFFFFFFFFFFFFFFFFFF AND PUSH20 0xFFFFFFFFFFFFFFFFFFFFFFFFFFFFFFFFFFFFFFFF AND DUP2 MSTORE PUSH1 0x20 ADD SWAP1 DUP2 MSTORE PUSH1 0x20 ADD PUSH0 KECCAK256 DUP2 SWAP1 SSTORE POP CALLVALUE PUSH1 0x6 PUSH0 DUP3 DUP3 SLOAD PUSH2 0xBE8 SWAP2 SWAP1 PUSH2 0x1F01 JUMP JUMPDEST SWAP3 POP POP DUP2 SWAP1 SSTORE POP CALLVALUE PUSH1 0x7 PUSH0 DUP3 DUP3 SLOAD PUSH2 0xC00 SWAP2 SWAP1 PUSH2 0x1F01 JUMP JUMPDEST SWAP3 POP POP DUP2 SWAP1 SSTORE POP PUSH1 0x4 CALLER SWAP1 DUP1 PUSH1 0x1 DUP2 SLOAD ADD DUP1 DUP3 SSTORE DUP1 SWAP2 POP POP PUSH1 0x1 SWAP1 SUB SWAP1 PUSH0 MSTORE PUSH1 0x20 PUSH0 KECCAK256 ADD PUSH0 SWAP1 SWAP2 SWAP1 SWAP2 SWAP1 SWAP2 PUSH2 0x100 EXP DUP2 SLOAD DUP2 PUSH20 0xFFFFFFFFFFFFFFFFFFFFFFFFFFFFFFFFFFFFFFFF MUL NOT AND SWAP1 DUP4 PUSH20 0xFFFFFFFFFFFFFFFFFFFFFFFFFFFFFFFFFFFFFFFF AND MUL OR SWAP1 SSTORE POP JUMP JUMPDEST PUSH1 0x1 PUSH1 0x20 MSTORE DUP1 PUSH0 MSTORE PUSH1 0x40 PUSH0 KECCAK256 PUSH0 SWAP2 POP SWAP1 POP SLOAD DUP2 JUMP JUMPDEST CALLER PUSH20 0xFFFFFFFFFFFFFFFFFFFFFFFFFFFFFFFFFFFFFFFF AND PUSH1 0xC PUSH0 SWAP1 SLOAD SWAP1 PUSH2 0x100 EXP SWAP1 DIV PUSH20 0xFFFFFFFFFFFFFFFFFFFFFFFFFFFFFFFFFFFFFFFF AND PUSH20 0xFFFFFFFFFFFFFFFFFFFFFFFFFFFFFFFFFFFFFFFF AND EQ PUSH2 0xD0D JUMPI PUSH1 0x40 MLOAD PUSH32 0x8C379A000000000000000000000000000000000000000000000000000000000 DUP2 MSTORE PUSH1 0x4 ADD PUSH2 0xD04 SWAP1 PUSH2 0x1F7E JUMP JUMPDEST PUSH1 0x40 MLOAD DUP1 SWAP2 SUB SWAP1 REVERT JUMPDEST DUP2 PUSH1 0x7 SLOAD LT ISZERO PUSH2 0xD52 JUMPI PUSH1 0x40 MLOAD PUSH32 0x8C379A000000000000000000000000000000000000000000000000000000000 DUP2 MSTORE PUSH1 0x4 ADD PUSH2 0xD49 SWAP1 PUSH2 0x1E1B JUMP JUMPDEST PUSH1 0x40 MLOAD DUP1 SWAP2 SUB SWAP1 REVERT JUMPDEST PUSH1 0x40 MLOAD DUP1 PUSH1 0xE0 ADD PUSH1 0x40 MSTORE DUP1 PUSH1 0x9 SLOAD DUP2 MSTORE PUSH1 0x20 ADD DUP6 DUP6 DUP1 DUP1 PUSH1 0x1F ADD PUSH1 0x20 DUP1 SWAP2 DIV MUL PUSH1 0x20 ADD PUSH1 0x40 MLOAD SWAP1 DUP2 ADD PUSH1 0x40 MSTORE DUP1 SWAP4 SWAP3 SWAP2 SWAP1 DUP2 DUP2 MSTORE PUSH1 0x20 ADD DUP4 DUP4 DUP1 DUP3 DUP5 CALLDATACOPY PUSH0 DUP2 DUP5 ADD MSTORE PUSH1 0x1F NOT PUSH1 0x1F DUP3 ADD AND SWAP1 POP DUP1 DUP4 ADD SWAP3 POP POP POP POP POP POP POP DUP2 MSTORE PUSH1 0x20 ADD DUP4 DUP2 MSTORE PUSH1 0x20 ADD DUP3 PUSH20 0xFFFFFFFFFFFFFFFFFFFFFFFFFFFFFFFFFFFFFFFF AND DUP2 MSTORE PUSH1 0x20 ADD PUSH0 DUP2 MSTORE PUSH1 0x20 ADD PUSH1 0xA SLOAD TIMESTAMP PUSH2 0xDE4 SWAP2 SWAP1 PUSH2 0x1F01 JUMP JUMPDEST DUP2 MSTORE PUSH1 0x20 ADD PUSH0 ISZERO ISZERO DUP2 MSTORE POP PUSH1 0x5 PUSH0 PUSH1 0x9 SLOAD DUP2 MSTORE PUSH1 0x20 ADD SWAP1 DUP2 MSTORE PUSH1 0x20 ADD PUSH0 KECCAK256 PUSH0 DUP3 ADD MLOAD DUP2 PUSH0 ADD SSTORE PUSH1 0x20 DUP3 ADD MLOAD DUP2 PUSH1 0x1 ADD SWAP1 DUP2 PUSH2 0xE1F SWAP2 SWAP1 PUSH2 0x233C JUMP JUMPDEST POP PUSH1 0x40 DUP3 ADD MLOAD DUP2 PUSH1 0x2 ADD SSTORE PUSH1 0x60 DUP3 ADD MLOAD DUP2 PUSH1 0x3 ADD PUSH0 PUSH2 0x100 EXP DUP2 SLOAD DUP2 PUSH20 0xFFFFFFFFFFFFFFFFFFFFFFFFFFFFFFFFFFFFFFFF MUL NOT AND SWAP1 DUP4 PUSH20 0xFFFFFFFFFFFFFFFFFFFFFFFFFFFFFFFFFFFFFFFF AND MUL OR SWAP1 SSTORE POP PUSH1 0x80 DUP3 ADD MLOAD DUP2 PUSH1 0x4 ADD SSTORE PUSH1 0xA0 DUP3 ADD MLOAD DUP2 PUSH1 0x5 ADD SSTORE PUSH1 0xC0 DUP3 ADD MLOAD DUP2 PUSH1 0x6 ADD PUSH0 PUSH2 0x100 EXP DUP2 SLOAD DUP2 PUSH1 0xFF MUL NOT AND SWAP1 DUP4 ISZERO ISZERO MUL OR SWAP1 SSTORE POP SWAP1 POP POP PUSH1 0x9 PUSH0 DUP2 SLOAD DUP1 SWAP3 SWAP2 SWAP1 PUSH2 0xEB8 SWAP1 PUSH2 0x240B JUMP JUMPDEST SWAP2 SWAP1 POP SSTORE POP POP POP POP POP JUMP JUMPDEST PUSH1 0x60 PUSH0 PUSH1 0x1 PUSH1 0x9 SLOAD PUSH2 0xED5 SWAP2 SWAP1 PUSH2 0x1ECE JUMP JUMPDEST PUSH8 0xFFFFFFFFFFFFFFFF DUP2 GT ISZERO PUSH2 0xEEE JUMPI PUSH2 0xEED PUSH2 0x2172 JUMP JUMPDEST JUMPDEST PUSH1 0x40 MLOAD SWAP1 DUP1 DUP3 MSTORE DUP1 PUSH1 0x20 MUL PUSH1 0x20 ADD DUP3 ADD PUSH1 0x40 MSTORE DUP1 ISZERO PUSH2 0xF27 JUMPI DUP2 PUSH1 0x20 ADD JUMPDEST PUSH2 0xF14 PUSH2 0x1692 JUMP JUMPDEST DUP2 MSTORE PUSH1 0x20 ADD SWAP1 PUSH1 0x1 SWAP1 SUB SWAP1 DUP2 PUSH2 0xF0C JUMPI SWAP1 POP JUMPDEST POP SWAP1 POP PUSH0 PUSH1 0x1 SWAP1 POP JUMPDEST PUSH1 0x9 SLOAD DUP2 LT ISZERO PUSH2 0x10A7 JUMPI PUSH1 0x5 PUSH0 DUP3 DUP2 MSTORE PUSH1 0x20 ADD SWAP1 DUP2 MSTORE PUSH1 0x20 ADD PUSH0 KECCAK256 PUSH1 0x40 MLOAD DUP1 PUSH1 0xE0 ADD PUSH1 0x40 MSTORE SWAP1 DUP2 PUSH0 DUP3 ADD SLOAD DUP2 MSTORE PUSH1 0x20 ADD PUSH1 0x1 DUP3 ADD DUP1 SLOAD PUSH2 0xF6F SWAP1 PUSH2 0x1D39 JUMP JUMPDEST DUP1 PUSH1 0x1F ADD PUSH1 0x20 DUP1 SWAP2 DIV MUL PUSH1 0x20 ADD PUSH1 0x40 MLOAD SWAP1 DUP2 ADD PUSH1 0x40 MSTORE DUP1 SWAP3 SWAP2 SWAP1 DUP2 DUP2 MSTORE PUSH1 0x20 ADD DUP3 DUP1 SLOAD PUSH2 0xF9B SWAP1 PUSH2 0x1D39 JUMP JUMPDEST DUP1 ISZERO PUSH2 0xFE6 JUMPI DUP1 PUSH1 0x1F LT PUSH2 0xFBD JUMPI PUSH2 0x100 DUP1 DUP4 SLOAD DIV MUL DUP4 MSTORE SWAP2 PUSH1 0x20 ADD SWAP2 PUSH2 0xFE6 JUMP JUMPDEST DUP3 ADD SWAP2 SWAP1 PUSH0 MSTORE PUSH1 0x20 PUSH0 KECCAK256 SWAP1 JUMPDEST DUP2 SLOAD DUP2 MSTORE SWAP1 PUSH1 0x1 ADD SWAP1 PUSH1 0x20 ADD DUP1 DUP4 GT PUSH2 0xFC9 JUMPI DUP3 SWAP1 SUB PUSH1 0x1F AND DUP3 ADD SWAP2 JUMPDEST POP POP POP POP POP DUP2 MSTORE PUSH1 0x20 ADD PUSH1 0x2 DUP3 ADD SLOAD DUP2 MSTORE PUSH1 0x20 ADD PUSH1 0x3 DUP3 ADD PUSH0 SWAP1 SLOAD SWAP1 PUSH2 0x100 EXP SWAP1 DIV PUSH20 0xFFFFFFFFFFFFFFFFFFFFFFFFFFFFFFFFFFFFFFFF AND PUSH20 0xFFFFFFFFFFFFFFFFFFFFFFFFFFFFFFFFFFFFFFFF AND PUSH20 0xFFFFFFFFFFFFFFFFFFFFFFFFFFFFFFFFFFFFFFFF AND DUP2 MSTORE PUSH1 0x20 ADD PUSH1 0x4 DUP3 ADD SLOAD DUP2 MSTORE PUSH1 0x20 ADD PUSH1 0x5 DUP3 ADD SLOAD DUP2 MSTORE PUSH1 0x20 ADD PUSH1 0x6 DUP3 ADD PUSH0 SWAP1 SLOAD SWAP1 PUSH2 0x100 EXP SWAP1 DIV PUSH1 0xFF AND ISZERO ISZERO ISZERO ISZERO DUP2 MSTORE POP POP DUP3 DUP3 DUP2 MLOAD DUP2 LT PUSH2 0x108F JUMPI PUSH2 0x108E PUSH2 0x2452 JUMP JUMPDEST JUMPDEST PUSH1 0x20 MUL PUSH1 0x20 ADD ADD DUP2 SWAP1 MSTORE POP DUP1 DUP1 PUSH1 0x1 ADD SWAP2 POP POP PUSH2 0xF30 JUMP JUMPDEST POP DUP1 SWAP2 POP POP SWAP1 JUMP JUMPDEST PUSH1 0x1 ISZERO ISZERO PUSH0 DUP1 CALLER PUSH20 0xFFFFFFFFFFFFFFFFFFFFFFFFFFFFFFFFFFFFFFFF AND PUSH20 0xFFFFFFFFFFFFFFFFFFFFFFFFFFFFFFFFFFFFFFFF AND DUP2 MSTORE PUSH1 0x20 ADD SWAP1 DUP2 MSTORE PUSH1 0x20 ADD PUSH0 KECCAK256 PUSH0 SWAP1 SLOAD SWAP1 PUSH2 0x100 EXP SWAP1 DIV PUSH1 0xFF AND ISZERO ISZERO EQ PUSH2 0x113E JUMPI PUSH1 0x40 MLOAD PUSH32 0x8C379A000000000000000000000000000000000000000000000000000000000 DUP2 MSTORE PUSH1 0x4 ADD PUSH2 0x1135 SWAP1 PUSH2 0x1DB3 JUMP JUMPDEST PUSH1 0x40 MLOAD DUP1 SWAP2 SUB SWAP1 REVERT JUMPDEST PUSH0 PUSH1 0x5 PUSH0 DUP4 DUP2 MSTORE PUSH1 0x20 ADD SWAP1 DUP2 MSTORE PUSH1 0x20 ADD PUSH0 KECCAK256 SWAP1 POP PUSH0 ISZERO ISZERO PUSH1 0x2 PUSH0 CALLER PUSH20 0xFFFFFFFFFFFFFFFFFFFFFFFFFFFFFFFFFFFFFFFF AND PUSH20 0xFFFFFFFFFFFFFFFFFFFFFFFFFFFFFFFFFFFFFFFF AND DUP2 MSTORE PUSH1 0x20 ADD SWAP1 DUP2 MSTORE PUSH1 0x20 ADD PUSH0 KECCAK256 PUSH0 DUP5 DUP2 MSTORE PUSH1 0x20 ADD SWAP1 DUP2 MSTORE PUSH1 0x20 ADD PUSH0 KECCAK256 PUSH0 SWAP1 SLOAD SWAP1 PUSH2 0x100 EXP SWAP1 DIV PUSH1 0xFF AND ISZERO ISZERO EQ PUSH2 0x11F0 JUMPI PUSH1 0x40 MLOAD PUSH32 0x8C379A000000000000000000000000000000000000000000000000000000000 DUP2 MSTORE PUSH1 0x4 ADD PUSH2 0x11E7 SWAP1 PUSH2 0x24EF JUMP JUMPDEST PUSH1 0x40 MLOAD DUP1 SWAP2 SUB SWAP1 REVERT JUMPDEST TIMESTAMP DUP2 PUSH1 0x5 ADD SLOAD LT ISZERO PUSH2 0x1237 JUMPI PUSH1 0x40 MLOAD PUSH32 0x8C379A000000000000000000000000000000000000000000000000000000000 DUP2 MSTORE PUSH1 0x4 ADD PUSH2 0x122E SWAP1 PUSH2 0x2557 JUMP JUMPDEST PUSH1 0x40 MLOAD DUP1 SWAP2 SUB SWAP1 REVERT JUMPDEST PUSH0 ISZERO ISZERO DUP2 PUSH1 0x6 ADD PUSH0 SWAP1 SLOAD SWAP1 PUSH2 0x100 EXP SWAP1 DIV PUSH1 0xFF AND ISZERO ISZERO EQ PUSH2 0x128D JUMPI PUSH1 0x40 MLOAD PUSH32 0x8C379A000000000000000000000000000000000000000000000000000000000 DUP2 MSTORE PUSH1 0x4 ADD PUSH2 0x1284 SWAP1 PUSH2 0x25BF JUMP JUMPDEST PUSH1 0x40 MLOAD DUP1 SWAP2 SUB SWAP1 REVERT JUMPDEST PUSH1 0x1 PUSH1 0x2 PUSH0 CALLER PUSH20 0xFFFFFFFFFFFFFFFFFFFFFFFFFFFFFFFFFFFFFFFF AND PUSH20 0xFFFFFFFFFFFFFFFFFFFFFFFFFFFFFFFFFFFFFFFF AND DUP2 MSTORE PUSH1 0x20 ADD SWAP1 DUP2 MSTORE PUSH1 0x20 ADD PUSH0 KECCAK256 PUSH0 DUP5 DUP2 MSTORE PUSH1 0x20 ADD SWAP1 DUP2 MSTORE PUSH1 0x20 ADD PUSH0 KECCAK256 PUSH0 PUSH2 0x100 EXP DUP2 SLOAD DUP2 PUSH1 0xFF MUL NOT AND SWAP1 DUP4 ISZERO ISZERO MUL OR SWAP1 SSTORE POP PUSH1 0x1 PUSH0 CALLER PUSH20 0xFFFFFFFFFFFFFFFFFFFFFFFFFFFFFFFFFFFFFFFF AND PUSH20 0xFFFFFFFFFFFFFFFFFFFFFFFFFFFFFFFFFFFFFFFF AND DUP2 MSTORE PUSH1 0x20 ADD SWAP1 DUP2 MSTORE PUSH1 0x20 ADD PUSH0 KECCAK256 SLOAD DUP2 PUSH1 0x4 ADD PUSH0 DUP3 DUP3 SLOAD PUSH2 0x1341 SWAP2 SWAP1 PUSH2 0x1F01 JUMP JUMPDEST SWAP3 POP POP DUP2 SWAP1 SSTORE POP POP POP JUMP JUMPDEST PUSH1 0x1 ISZERO ISZERO PUSH0 DUP1 CALLER PUSH20 0xFFFFFFFFFFFFFFFFFFFFFFFFFFFFFFFFFFFFFFFF AND PUSH20 0xFFFFFFFFFFFFFFFFFFFFFFFFFFFFFFFFFFFFFFFF AND DUP2 MSTORE PUSH1 0x20 ADD SWAP1 DUP2 MSTORE PUSH1 0x20 ADD PUSH0 KECCAK256 PUSH0 SWAP1 SLOAD SWAP1 PUSH2 0x100 EXP SWAP1 DIV PUSH1 0xFF AND ISZERO ISZERO EQ PUSH2 0x13DB JUMPI PUSH1 0x40 MLOAD PUSH32 0x8C379A000000000000000000000000000000000000000000000000000000000 DUP2 MSTORE PUSH1 0x4 ADD PUSH2 0x13D2 SWAP1 PUSH2 0x1DB3 JUMP JUMPDEST PUSH1 0x40 MLOAD DUP1 SWAP2 SUB SWAP1 REVERT JUMPDEST DUP1 PUSH1 0x1 PUSH0 CALLER PUSH20 0xFFFFFFFFFFFFFFFFFFFFFFFFFFFFFFFFFFFFFFFF AND PUSH20 0xFFFFFFFFFFFFFFFFFFFFFFFFFFFFFFFFFFFFFFFF AND DUP2 MSTORE PUSH1 0x20 ADD SWAP1 DUP2 MSTORE PUSH1 0x20 ADD PUSH0 KECCAK256 SLOAD LT ISZERO PUSH2 0x145B JUMPI PUSH1 0x40 MLOAD PUSH32 0x8C379A000000000000000000000000000000000000000000000000000000000 DUP2 MSTORE PUSH1 0x4 ADD PUSH2 0x1452 SWAP1 PUSH2 0x2627 JUMP JUMPDEST PUSH1 0x40 MLOAD DUP1 SWAP2 SUB SWAP1 REVERT JUMPDEST DUP1 PUSH1 0x7 SLOAD LT ISZERO PUSH2 0x14A0 JUMPI PUSH1 0x40 MLOAD PUSH32 0x8C379A000000000000000000000000000000000000000000000000000000000 DUP2 MSTORE PUSH1 0x4 ADD PUSH2 0x1497 SWAP1 PUSH2 0x1E1B JUMP JUMPDEST PUSH1 0x40 MLOAD DUP1 SWAP2 SUB SWAP1 REVERT JUMPDEST DUP1 PUSH1 0x1 PUSH0 CALLER PUSH20 0xFFFFFFFFFFFFFFFFFFFFFFFFFFFFFFFFFFFFFFFF AND PUSH20 0xFFFFFFFFFFFFFFFFFFFFFFFFFFFFFFFFFFFFFFFF AND DUP2 MSTORE PUSH1 0x20 ADD SWAP1 DUP2 MSTORE PUSH1 0x20 ADD PUSH0 KECCAK256 PUSH0 DUP3 DUP3 SLOAD PUSH2 0x14EC SWAP2 SWAP1 PUSH2 0x1ECE JUMP JUMPDEST SWAP3 POP POP DUP2 SWAP1 SSTORE POP PUSH0 PUSH1 0x1 PUSH0 CALLER PUSH20 0xFFFFFFFFFFFFFFFFFFFFFFFFFFFFFFFFFFFFFFFF AND PUSH20 0xFFFFFFFFFFFFFFFFFFFFFFFFFFFFFFFFFFFFFFFF AND DUP2 MSTORE PUSH1 0x20 ADD SWAP1 DUP2 MSTORE PUSH1 0x20 ADD PUSH0 KECCAK256 SLOAD SUB PUSH2 0x158B JUMPI PUSH0 DUP1 PUSH0 CALLER PUSH20 0xFFFFFFFFFFFFFFFFFFFFFFFFFFFFFFFFFFFFFFFF AND PUSH20 0xFFFFFFFFFFFFFFFFFFFFFFFFFFFFFFFFFFFFFFFF AND DUP2 MSTORE PUSH1 0x20 ADD SWAP1 DUP2 MSTORE PUSH1 0x20 ADD PUSH0 KECCAK256 PUSH0 PUSH2 0x100 EXP DUP2 SLOAD DUP2 PUSH1 0xFF MUL NOT AND SWAP1 DUP4 ISZERO ISZERO MUL OR SWAP1 SSTORE POP JUMPDEST DUP1 PUSH1 0x7 PUSH0 DUP3 DUP3 SLOAD PUSH2 0x159C SWAP2 SWAP1 PUSH2 0x1ECE JUMP JUMPDEST SWAP3 POP POP DUP2 SWAP1 SSTORE POP CALLER PUSH20 0xFFFFFFFFFFFFFFFFFFFFFFFFFFFFFFFFFFFFFFFF AND PUSH2 0x8FC DUP3 SWAP1 DUP2 ISZERO MUL SWAP1 PUSH1 0x40 MLOAD PUSH0 PUSH1 0x40 MLOAD DUP1 DUP4 SUB DUP2 DUP6 DUP9 DUP9 CALL SWAP4 POP POP POP POP ISZERO DUP1 ISZERO PUSH2 0x15E6 JUMPI RETURNDATASIZE PUSH0 DUP1 RETURNDATACOPY RETURNDATASIZE PUSH0 REVERT JUMPDEST POP POP JUMP JUMPDEST PUSH1 0x2 PUSH1 0x20 MSTORE DUP2 PUSH0 MSTORE PUSH1 0x40 PUSH0 KECCAK256 PUSH1 0x20 MSTORE DUP1 PUSH0 MSTORE PUSH1 0x40 PUSH0 KECCAK256 PUSH0 SWAP2 POP SWAP2 POP SWAP1 SLOAD SWAP1 PUSH2 0x100 EXP SWAP1 DIV PUSH1 0xFF AND DUP2 JUMP JUMPDEST PUSH1 0x8 SLOAD DUP2 JUMP JUMPDEST PUSH1 0xA SLOAD DUP2 JUMP JUMPDEST PUSH1 0x3 PUSH1 0x20 MSTORE DUP2 PUSH0 MSTORE PUSH1 0x40 PUSH0 KECCAK256 PUSH1 0x20 MSTORE DUP1 PUSH0 MSTORE PUSH1 0x40 PUSH0 KECCAK256 PUSH0 SWAP2 POP SWAP2 POP SWAP1 SLOAD SWAP1 PUSH2 0x100 EXP SWAP1 DIV PUSH1 0xFF AND DUP2 JUMP JUMPDEST DUP1 PUSH20 0xFFFFFFFFFFFFFFFFFFFFFFFFFFFFFFFFFFFFFFFF AND PUSH2 0x8FC DUP4 SWAP1 DUP2 ISZERO MUL SWAP1 PUSH1 0x40 MLOAD PUSH0 PUSH1 0x40 MLOAD DUP1 DUP4 SUB DUP2 DUP6 DUP9 DUP9 CALL SWAP4 POP POP POP POP ISZERO DUP1 ISZERO PUSH2 0x168D JUMPI RETURNDATASIZE PUSH0 DUP1 RETURNDATACOPY RETURNDATASIZE PUSH0 REVERT JUMPDEST POP POP POP JUMP JUMPDEST PUSH1 0x40 MLOAD DUP1 PUSH1 0xE0 ADD PUSH1 0x40 MSTORE DUP1 PUSH0 DUP2 MSTORE PUSH1 0x20 ADD PUSH1 0x60 DUP2 MSTORE PUSH1 0x20 ADD PUSH0 DUP2 MSTORE PUSH1 0x20 ADD PUSH0 PUSH20 0xFFFFFFFFFFFFFFFFFFFFFFFFFFFFFFFFFFFFFFFF AND DUP2 MSTORE PUSH1 0x20 ADD PUSH0 DUP2 MSTORE PUSH1 0x20 ADD PUSH0 DUP2 MSTORE PUSH1 0x20 ADD PUSH0 ISZERO ISZERO DUP2 MSTORE POP SWAP1 JUMP JUMPDEST PUSH0 DUP1 REVERT JUMPDEST PUSH0 DUP1 REVERT JUMPDEST PUSH0 DUP2 SWAP1 POP SWAP2 SWAP1 POP JUMP JUMPDEST PUSH2 0x16FB DUP2 PUSH2 0x16E9 JUMP JUMPDEST DUP2 EQ PUSH2 0x1705 JUMPI PUSH0 DUP1 REVERT JUMPDEST POP JUMP JUMPDEST PUSH0 DUP2 CALLDATALOAD SWAP1 POP PUSH2 0x1716 DUP2 PUSH2 0x16F2 JUMP JUMPDEST SWAP3 SWAP2 POP POP JUMP JUMPDEST PUSH0 PUSH1 0x20 DUP3 DUP5 SUB SLT ISZERO PUSH2 0x1731 JUMPI PUSH2 0x1730 PUSH2 0x16E1 JUMP JUMPDEST JUMPDEST PUSH0 PUSH2 0x173E DUP5 DUP3 DUP6 ADD PUSH2 0x1708 JUMP JUMPDEST SWAP2 POP POP SWAP3 SWAP2 POP POP JUMP JUMPDEST PUSH2 0x1750 DUP2 PUSH2 0x16E9 JUMP JUMPDEST DUP3 MSTORE POP POP JUMP JUMPDEST PUSH0 DUP2 MLOAD SWAP1 POP SWAP2 SWAP1 POP JUMP JUMPDEST PUSH0 DUP3 DUP3 MSTORE PUSH1 0x20 DUP3 ADD SWAP1 POP SWAP3 SWAP2 POP POP JUMP JUMPDEST PUSH0 JUMPDEST DUP4 DUP2 LT ISZERO PUSH2 0x178D JUMPI DUP1 DUP3 ADD MLOAD DUP2 DUP5 ADD MSTORE PUSH1 0x20 DUP2 ADD SWAP1 POP PUSH2 0x1772 JUMP JUMPDEST PUSH0 DUP5 DUP5 ADD MSTORE POP POP POP POP JUMP JUMPDEST PUSH0 PUSH1 0x1F NOT PUSH1 0x1F DUP4 ADD AND SWAP1 POP SWAP2 SWAP1 POP JUMP JUMPDEST PUSH0 PUSH2 0x17B2 DUP3 PUSH2 0x1756 JUMP JUMPDEST PUSH2 0x17BC DUP2 DUP6 PUSH2 0x1760 JUMP JUMPDEST SWAP4 POP PUSH2 0x17CC DUP2 DUP6 PUSH1 0x20 DUP7 ADD PUSH2 0x1770 JUMP JUMPDEST PUSH2 0x17D5 DUP2 PUSH2 0x1798 JUMP JUMPDEST DUP5 ADD SWAP2 POP POP SWAP3 SWAP2 POP POP JUMP JUMPDEST PUSH0 PUSH20 0xFFFFFFFFFFFFFFFFFFFFFFFFFFFFFFFFFFFFFFFF DUP3 AND SWAP1 POP SWAP2 SWAP1 POP JUMP JUMPDEST PUSH0 PUSH2 0x1809 DUP3 PUSH2 0x17E0 JUMP JUMPDEST SWAP1 POP SWAP2 SWAP1 POP JUMP JUMPDEST PUSH2 0x1819 DUP2 PUSH2 0x17FF JUMP JUMPDEST DUP3 MSTORE POP POP JUMP JUMPDEST PUSH0 DUP2 ISZERO ISZERO SWAP1 POP SWAP2 SWAP1 POP JUMP JUMPDEST PUSH2 0x1833 DUP2 PUSH2 0x181F JUMP JUMPDEST DUP3 MSTORE POP POP JUMP JUMPDEST PUSH0 PUSH1 0xE0 DUP3 ADD SWAP1 POP PUSH2 0x184C PUSH0 DUP4 ADD DUP11 PUSH2 0x1747 JUMP JUMPDEST DUP2 DUP2 SUB PUSH1 0x20 DUP4 ADD MSTORE PUSH2 0x185E DUP2 DUP10 PUSH2 0x17A8 JUMP JUMPDEST SWAP1 POP PUSH2 0x186D PUSH1 0x40 DUP4 ADD DUP9 PUSH2 0x1747 JUMP JUMPDEST PUSH2 0x187A PUSH1 0x60 DUP4 ADD DUP8 PUSH2 0x1810 JUMP JUMPDEST PUSH2 0x1887 PUSH1 0x80 DUP4 ADD DUP7 PUSH2 0x1747 JUMP JUMPDEST PUSH2 0x1894 PUSH1 0xA0 DUP4 ADD DUP6 PUSH2 0x1747 JUMP JUMPDEST PUSH2 0x18A1 PUSH1 0xC0 DUP4 ADD DUP5 PUSH2 0x182A JUMP JUMPDEST SWAP9 SWAP8 POP POP POP POP POP POP POP POP JUMP JUMPDEST PUSH0 PUSH2 0x18B7 DUP3 PUSH2 0x17E0 JUMP JUMPDEST SWAP1 POP SWAP2 SWAP1 POP JUMP JUMPDEST PUSH2 0x18C7 DUP2 PUSH2 0x18AD JUMP JUMPDEST DUP2 EQ PUSH2 0x18D1 JUMPI PUSH0 DUP1 REVERT JUMPDEST POP JUMP JUMPDEST PUSH0 DUP2 CALLDATALOAD SWAP1 POP PUSH2 0x18E2 DUP2 PUSH2 0x18BE JUMP JUMPDEST SWAP3 SWAP2 POP POP JUMP JUMPDEST PUSH0 DUP1 PUSH1 0x40 DUP4 DUP6 SUB SLT ISZERO PUSH2 0x18FE JUMPI PUSH2 0x18FD PUSH2 0x16E1 JUMP JUMPDEST JUMPDEST PUSH0 PUSH2 0x190B DUP6 DUP3 DUP7 ADD PUSH2 0x1708 JUMP JUMPDEST SWAP3 POP POP PUSH1 0x20 PUSH2 0x191C DUP6 DUP3 DUP7 ADD PUSH2 0x18D4 JUMP JUMPDEST SWAP2 POP POP SWAP3 POP SWAP3 SWAP1 POP JUMP JUMPDEST PUSH0 PUSH1 0x20 DUP3 ADD SWAP1 POP PUSH2 0x1939 PUSH0 DUP4 ADD DUP5 PUSH2 0x1747 JUMP JUMPDEST SWAP3 SWAP2 POP POP JUMP JUMPDEST PUSH2 0x1948 DUP2 PUSH2 0x18AD JUMP JUMPDEST DUP3 MSTORE POP POP JUMP JUMPDEST PUSH0 PUSH1 0x20 DUP3 ADD SWAP1 POP PUSH2 0x1961 PUSH0 DUP4 ADD DUP5 PUSH2 0x193F JUMP JUMPDEST SWAP3 SWAP2 POP POP JUMP JUMPDEST PUSH0 PUSH1 0x20 DUP3 DUP5 SUB SLT ISZERO PUSH2 0x197C JUMPI PUSH2 0x197B PUSH2 0x16E1 JUMP JUMPDEST JUMPDEST PUSH0 PUSH2 0x1989 DUP5 DUP3 DUP6 ADD PUSH2 0x18D4 JUMP JUMPDEST SWAP2 POP POP SWAP3 SWAP2 POP POP JUMP JUMPDEST PUSH0 DUP1 REVERT JUMPDEST PUSH0 DUP1 REVERT JUMPDEST PUSH0 DUP1 REVERT JUMPDEST PUSH0 DUP1 DUP4 PUSH1 0x1F DUP5 ADD SLT PUSH2 0x19B3 JUMPI PUSH2 0x19B2 PUSH2 0x1992 JUMP JUMPDEST JUMPDEST DUP3 CALLDATALOAD SWAP1 POP PUSH8 0xFFFFFFFFFFFFFFFF DUP2 GT ISZERO PUSH2 0x19D0 JUMPI PUSH2 0x19CF PUSH2 0x1996 JUMP JUMPDEST JUMPDEST PUSH1 0x20 DUP4 ADD SWAP2 POP DUP4 PUSH1 0x1 DUP3 MUL DUP4 ADD GT ISZERO PUSH2 0x19EC JUMPI PUSH2 0x19EB PUSH2 0x199A JUMP JUMPDEST JUMPDEST SWAP3 POP SWAP3 SWAP1 POP JUMP JUMPDEST PUSH2 0x19FC DUP2 PUSH2 0x17FF JUMP JUMPDEST DUP2 EQ PUSH2 0x1A06 JUMPI PUSH0 DUP1 REVERT JUMPDEST POP JUMP JUMPDEST PUSH0 DUP2 CALLDATALOAD SWAP1 POP PUSH2 0x1A17 DUP2 PUSH2 0x19F3 JUMP JUMPDEST SWAP3 SWAP2 POP POP JUMP JUMPDEST PUSH0 DUP1 PUSH0 DUP1 PUSH1 0x60 DUP6 DUP8 SUB SLT ISZERO PUSH2 0x1A35 JUMPI PUSH2 0x1A34 PUSH2 0x16E1 JUMP JUMPDEST JUMPDEST PUSH0 DUP6 ADD CALLDATALOAD PUSH8 0xFFFFFFFFFFFFFFFF DUP2 GT ISZERO PUSH2 0x1A52 JUMPI PUSH2 0x1A51 PUSH2 0x16E5 JUMP JUMPDEST JUMPDEST PUSH2 0x1A5E DUP8 DUP3 DUP9 ADD PUSH2 0x199E JUMP JUMPDEST SWAP5 POP SWAP5 POP POP PUSH1 0x20 PUSH2 0x1A71 DUP8 DUP3 DUP9 ADD PUSH2 0x1708 JUMP JUMPDEST SWAP3 POP POP PUSH1 0x40 PUSH2 0x1A82 DUP8 DUP3 DUP9 ADD PUSH2 0x1A09 JUMP JUMPDEST SWAP2 POP POP SWAP3 SWAP6 SWAP2 SWAP5 POP SWAP3 POP JUMP JUMPDEST PUSH0 DUP2 MLOAD SWAP1 POP SWAP2 SWAP1 POP JUMP JUMPDEST PUSH0 DUP3 DUP3 MSTORE PUSH1 0x20 DUP3 ADD SWAP1 POP SWAP3 SWAP2 POP POP JUMP JUMPDEST PUSH0 DUP2 SWAP1 POP PUSH1 0x20 DUP3 ADD SWAP1 POP SWAP2 SWAP1 POP JUMP JUMPDEST PUSH2 0x1AC0 DUP2 PUSH2 0x16E9 JUMP JUMPDEST DUP3 MSTORE POP POP JUMP JUMPDEST PUSH0 DUP3 DUP3 MSTORE PUSH1 0x20 DUP3 ADD SWAP1 POP SWAP3 SWAP2 POP POP JUMP JUMPDEST PUSH0 PUSH2 0x1AE0 DUP3 PUSH2 0x1756 JUMP JUMPDEST PUSH2 0x1AEA DUP2 DUP6 PUSH2 0x1AC6 JUMP JUMPDEST SWAP4 POP PUSH2 0x1AFA DUP2 DUP6 PUSH1 0x20 DUP7 ADD PUSH2 0x1770 JUMP JUMPDEST PUSH2 0x1B03 DUP2 PUSH2 0x1798 JUMP JUMPDEST DUP5 ADD SWAP2 POP POP SWAP3 SWAP2 POP POP JUMP JUMPDEST PUSH2 0x1B17 DUP2 PUSH2 0x17FF JUMP JUMPDEST DUP3 MSTORE POP POP JUMP JUMPDEST PUSH2 0x1B26 DUP2 PUSH2 0x181F JUMP JUMPDEST DUP3 MSTORE POP POP JUMP JUMPDEST PUSH0 PUSH1 0xE0 DUP4 ADD PUSH0 DUP4 ADD MLOAD PUSH2 0x1B41 PUSH0 DUP7 ADD DUP3 PUSH2 0x1AB7 JUMP JUMPDEST POP PUSH1 0x20 DUP4 ADD MLOAD DUP5 DUP3 SUB PUSH1 0x20 DUP7 ADD MSTORE PUSH2 0x1B59 DUP3 DUP3 PUSH2 0x1AD6 JUMP JUMPDEST SWAP2 POP POP PUSH1 0x40 DUP4 ADD MLOAD PUSH2 0x1B6E PUSH1 0x40 DUP7 ADD DUP3 PUSH2 0x1AB7 JUMP JUMPDEST POP PUSH1 0x60 DUP4 ADD MLOAD PUSH2 0x1B81 PUSH1 0x60 DUP7 ADD DUP3 PUSH2 0x1B0E JUMP JUMPDEST POP PUSH1 0x80 DUP4 ADD MLOAD PUSH2 0x1B94 PUSH1 0x80 DUP7 ADD DUP3 PUSH2 0x1AB7 JUMP JUMPDEST POP PUSH1 0xA0 DUP4 ADD MLOAD PUSH2 0x1BA7 PUSH1 0xA0 DUP7 ADD DUP3 PUSH2 0x1AB7 JUMP JUMPDEST POP PUSH1 0xC0 DUP4 ADD MLOAD PUSH2 0x1BBA PUSH1 0xC0 DUP7 ADD DUP3 PUSH2 0x1B1D JUMP JUMPDEST POP DUP1 SWAP2 POP POP SWAP3 SWAP2 POP POP JUMP JUMPDEST PUSH0 PUSH2 0x1BD0 DUP4 DUP4 PUSH2 0x1B2C JUMP JUMPDEST SWAP1 POP SWAP3 SWAP2 POP POP JUMP JUMPDEST PUSH0 PUSH1 0x20 DUP3 ADD SWAP1 POP SWAP2 SWAP1 POP JUMP JUMPDEST PUSH0 PUSH2 0x1BEE DUP3 PUSH2 0x1A8E JUMP JUMPDEST PUSH2 0x1BF8 DUP2 DUP6 PUSH2 0x1A98 JUMP JUMPDEST SWAP4 POP DUP4 PUSH1 0x20 DUP3 MUL DUP6 ADD PUSH2 0x1C0A DUP6 PUSH2 0x1AA8 JUMP JUMPDEST DUP1 PUSH0 JUMPDEST DUP6 DUP2 LT ISZERO PUSH2 0x1C45 JUMPI DUP5 DUP5 SUB DUP10 MSTORE DUP2 MLOAD PUSH2 0x1C26 DUP6 DUP3 PUSH2 0x1BC5 JUMP JUMPDEST SWAP5 POP PUSH2 0x1C31 DUP4 PUSH2 0x1BD8 JUMP JUMPDEST SWAP3 POP PUSH1 0x20 DUP11 ADD SWAP10 POP POP PUSH1 0x1 DUP2 ADD SWAP1 POP PUSH2 0x1C0D JUMP JUMPDEST POP DUP3 SWAP8 POP DUP8 SWAP6 POP POP POP POP POP POP SWAP3 SWAP2 POP POP JUMP JUMPDEST PUSH0 PUSH1 0x20 DUP3 ADD SWAP1 POP DUP2 DUP2 SUB PUSH0 DUP4 ADD MSTORE PUSH2 0x1C6F DUP2 DUP5 PUSH2 0x1BE4 JUMP JUMPDEST SWAP1 POP SWAP3 SWAP2 POP POP JUMP JUMPDEST PUSH0 DUP1 PUSH1 0x40 DUP4 DUP6 SUB SLT ISZERO PUSH2 0x1C8D JUMPI PUSH2 0x1C8C PUSH2 0x16E1 JUMP JUMPDEST JUMPDEST PUSH0 PUSH2 0x1C9A DUP6 DUP3 DUP7 ADD PUSH2 0x18D4 JUMP JUMPDEST SWAP3 POP POP PUSH1 0x20 PUSH2 0x1CAB DUP6 DUP3 DUP7 ADD PUSH2 0x1708 JUMP JUMPDEST SWAP2 POP POP SWAP3 POP SWAP3 SWAP1 POP JUMP JUMPDEST PUSH0 PUSH1 0x20 DUP3 ADD SWAP1 POP PUSH2 0x1CC8 PUSH0 DUP4 ADD DUP5 PUSH2 0x182A JUMP JUMPDEST SWAP3 SWAP2 POP POP JUMP JUMPDEST PUSH0 DUP1 PUSH1 0x40 DUP4 DUP6 SUB SLT ISZERO PUSH2 0x1CE4 JUMPI PUSH2 0x1CE3 PUSH2 0x16E1 JUMP JUMPDEST JUMPDEST PUSH0 PUSH2 0x1CF1 DUP6 DUP3 DUP7 ADD PUSH2 0x18D4 JUMP JUMPDEST SWAP3 POP POP PUSH1 0x20 PUSH2 0x1D02 DUP6 DUP3 DUP7 ADD PUSH2 0x18D4 JUMP JUMPDEST SWAP2 POP POP SWAP3 POP SWAP3 SWAP1 POP JUMP JUMPDEST PUSH32 0x4E487B7100000000000000000000000000000000000000000000000000000000 PUSH0 MSTORE PUSH1 0x22 PUSH1 0x4 MSTORE PUSH1 0x24 PUSH0 REVERT JUMPDEST PUSH0 PUSH1 0x2 DUP3 DIV SWAP1 POP PUSH1 0x1 DUP3 AND DUP1 PUSH2 0x1D50 JUMPI PUSH1 0x7F DUP3 AND SWAP2 POP JUMPDEST PUSH1 0x20 DUP3 LT DUP2 SUB PUSH2 0x1D63 JUMPI PUSH2 0x1D62 PUSH2 0x1D0C JUMP JUMPDEST JUMPDEST POP SWAP2 SWAP1 POP JUMP JUMPDEST PUSH32 0x596F7520617265206E6F7420616E20696E766573746F72000000000000000000 PUSH0 DUP3 ADD MSTORE POP JUMP JUMPDEST PUSH0 PUSH2 0x1D9D PUSH1 0x17 DUP4 PUSH2 0x1760 JUMP JUMPDEST SWAP2 POP PUSH2 0x1DA8 DUP3 PUSH2 0x1D69 JUMP JUMPDEST PUSH1 0x20 DUP3 ADD SWAP1 POP SWAP2 SWAP1 POP JUMP JUMPDEST PUSH0 PUSH1 0x20 DUP3 ADD SWAP1 POP DUP2 DUP2 SUB PUSH0 DUP4 ADD MSTORE PUSH2 0x1DCA DUP2 PUSH2 0x1D91 JUMP JUMPDEST SWAP1 POP SWAP2 SWAP1 POP JUMP JUMPDEST PUSH32 0x4E6F7420656E6F7567682066756E647300000000000000000000000000000000 PUSH0 DUP3 ADD MSTORE POP JUMP JUMPDEST PUSH0 PUSH2 0x1E05 PUSH1 0x10 DUP4 PUSH2 0x1760 JUMP JUMPDEST SWAP2 POP PUSH2 0x1E10 DUP3 PUSH2 0x1DD1 JUMP JUMPDEST PUSH1 0x20 DUP3 ADD SWAP1 POP SWAP2 SWAP1 POP JUMP JUMPDEST PUSH0 PUSH1 0x20 DUP3 ADD SWAP1 POP DUP2 DUP2 SUB PUSH0 DUP4 ADD MSTORE PUSH2 0x1E32 DUP2 PUSH2 0x1DF9 JUMP JUMPDEST SWAP1 POP SWAP2 SWAP1 POP JUMP JUMPDEST PUSH32 0x796F7520646F6E74206861766520656E6F756768207368617265730000000000 PUSH0 DUP3 ADD MSTORE POP JUMP JUMPDEST PUSH0 PUSH2 0x1E6D PUSH1 0x1B DUP4 PUSH2 0x1760 JUMP JUMPDEST SWAP2 POP PUSH2 0x1E78 DUP3 PUSH2 0x1E39 JUMP JUMPDEST PUSH1 0x20 DUP3 ADD SWAP1 POP SWAP2 SWAP1 POP JUMP JUMPDEST PUSH0 PUSH1 0x20 DUP3 ADD SWAP1 POP DUP2 DUP2 SUB PUSH0 DUP4 ADD MSTORE PUSH2 0x1E9A DUP2 PUSH2 0x1E61 JUMP JUMPDEST SWAP1 POP SWAP2 SWAP1 POP JUMP JUMPDEST PUSH32 0x4E487B7100000000000000000000000000000000000000000000000000000000 PUSH0 MSTORE PUSH1 0x11 PUSH1 0x4 MSTORE PUSH1 0x24 PUSH0 REVERT JUMPDEST PUSH0 PUSH2 0x1ED8 DUP3 PUSH2 0x16E9 JUMP JUMPDEST SWAP2 POP PUSH2 0x1EE3 DUP4 PUSH2 0x16E9 JUMP JUMPDEST SWAP3 POP DUP3 DUP3 SUB SWAP1 POP DUP2 DUP2 GT ISZERO PUSH2 0x1EFB JUMPI PUSH2 0x1EFA PUSH2 0x1EA1 JUMP JUMPDEST JUMPDEST SWAP3 SWAP2 POP POP JUMP JUMPDEST PUSH0 PUSH2 0x1F0B DUP3 PUSH2 0x16E9 JUMP JUMPDEST SWAP2 POP PUSH2 0x1F16 DUP4 PUSH2 0x16E9 JUMP JUMPDEST SWAP3 POP DUP3 DUP3 ADD SWAP1 POP DUP1 DUP3 GT ISZERO PUSH2 0x1F2E JUMPI PUSH2 0x1F2D PUSH2 0x1EA1 JUMP JUMPDEST JUMPDEST SWAP3 SWAP2 POP POP JUMP JUMPDEST PUSH32 0x596F7520617265206E6F7420616E206D616E6167657200000000000000000000 PUSH0 DUP3 ADD MSTORE POP JUMP JUMPDEST PUSH0 PUSH2 0x1F68 PUSH1 0x16 DUP4 PUSH2 0x1760 JUMP JUMPDEST SWAP2 POP PUSH2 0x1F73 DUP3 PUSH2 0x1F34 JUMP JUMPDEST PUSH1 0x20 DUP3 ADD SWAP1 POP SWAP2 SWAP1 POP JUMP JUMPDEST PUSH0 PUSH1 0x20 DUP3 ADD SWAP1 POP DUP2 DUP2 SUB PUSH0 DUP4 ADD MSTORE PUSH2 0x1F95 DUP2 PUSH2 0x1F5C JUMP JUMPDEST SWAP1 POP SWAP2 SWAP1 POP JUMP JUMPDEST PUSH0 PUSH2 0x1FA6 DUP3 PUSH2 0x16E9 JUMP JUMPDEST SWAP2 POP PUSH2 0x1FB1 DUP4 PUSH2 0x16E9 JUMP JUMPDEST SWAP3 POP DUP3 DUP3 MUL PUSH2 0x1FBF DUP2 PUSH2 0x16E9 JUMP JUMPDEST SWAP2 POP DUP3 DUP3 DIV DUP5 EQ DUP4 ISZERO OR PUSH2 0x1FD6 JUMPI PUSH2 0x1FD5 PUSH2 0x1EA1 JUMP JUMPDEST JUMPDEST POP SWAP3 SWAP2 POP POP JUMP JUMPDEST PUSH32 0x4E487B7100000000000000000000000000000000000000000000000000000000 PUSH0 MSTORE PUSH1 0x12 PUSH1 0x4 MSTORE PUSH1 0x24 PUSH0 REVERT JUMPDEST PUSH0 PUSH2 0x2014 DUP3 PUSH2 0x16E9 JUMP JUMPDEST SWAP2 POP PUSH2 0x201F DUP4 PUSH2 0x16E9 JUMP JUMPDEST SWAP3 POP DUP3 PUSH2 0x202F JUMPI PUSH2 0x202E PUSH2 0x1FDD JUMP JUMPDEST JUMPDEST DUP3 DUP3 DIV SWAP1 POP SWAP3 SWAP2 POP POP JUMP JUMPDEST PUSH32 0x4D616A6F7269747920646F6573206E6F7420737570706F727400000000000000 PUSH0 DUP3 ADD MSTORE POP JUMP JUMPDEST PUSH0 PUSH2 0x206E PUSH1 0x19 DUP4 PUSH2 0x1760 JUMP JUMPDEST SWAP2 POP PUSH2 0x2079 DUP3 PUSH2 0x203A JUMP JUMPDEST PUSH1 0x20 DUP3 ADD SWAP1 POP SWAP2 SWAP1 POP JUMP JUMPDEST PUSH0 PUSH1 0x20 DUP3 ADD SWAP1 POP DUP2 DUP2 SUB PUSH0 DUP4 ADD MSTORE PUSH2 0x209B DUP2 PUSH2 0x2062 JUMP JUMPDEST SWAP1 POP SWAP2 SWAP1 POP JUMP JUMPDEST PUSH32 0x436F6E747269627574696F6E2074696D6520656E646564000000000000000000 PUSH0 DUP3 ADD MSTORE POP JUMP JUMPDEST PUSH0 PUSH2 0x20D6 PUSH1 0x17 DUP4 PUSH2 0x1760 JUMP JUMPDEST SWAP2 POP PUSH2 0x20E1 DUP3 PUSH2 0x20A2 JUMP JUMPDEST PUSH1 0x20 DUP3 ADD SWAP1 POP SWAP2 SWAP1 POP JUMP JUMPDEST PUSH0 PUSH1 0x20 DUP3 ADD SWAP1 POP DUP2 DUP2 SUB PUSH0 DUP4 ADD MSTORE PUSH2 0x2103 DUP2 PUSH2 0x20CA JUMP JUMPDEST SWAP1 POP SWAP2 SWAP1 POP JUMP JUMPDEST PUSH32 0x53656E64206D6F7265207468616E203020657468657200000000000000000000 PUSH0 DUP3 ADD MSTORE POP JUMP JUMPDEST PUSH0 PUSH2 0x213E PUSH1 0x16 DUP4 PUSH2 0x1760 JUMP JUMPDEST SWAP2 POP PUSH2 0x2149 DUP3 PUSH2 0x210A JUMP JUMPDEST PUSH1 0x20 DUP3 ADD SWAP1 POP SWAP2 SWAP1 POP JUMP JUMPDEST PUSH0 PUSH1 0x20 DUP3 ADD SWAP1 POP DUP2 DUP2 SUB PUSH0 DUP4 ADD MSTORE PUSH2 0x216B DUP2 PUSH2 0x2132 JUMP JUMPDEST SWAP1 POP SWAP2 SWAP1 POP JUMP JUMPDEST PUSH32 0x4E487B7100000000000000000000000000000000000000000000000000000000 PUSH0 MSTORE PUSH1 0x41 PUSH1 0x4 MSTORE PUSH1 0x24 PUSH0 REVERT JUMPDEST PUSH0 DUP2 SWAP1 POP DUP2 PUSH0 MSTORE PUSH1 0x20 PUSH0 KECCAK256 SWAP1 POP SWAP2 SWAP1 POP JUMP JUMPDEST PUSH0 PUSH1 0x20 PUSH1 0x1F DUP4 ADD DIV SWAP1 POP SWAP2 SWAP1 POP JUMP JUMPDEST PUSH0 DUP3 DUP3 SHL SWAP1 POP SWAP3 SWAP2 POP POP JUMP JUMPDEST PUSH0 PUSH1 0x8 DUP4 MUL PUSH2 0x21FB PUSH32 0xFFFFFFFFFFFFFFFFFFFFFFFFFFFFFFFFFFFFFFFFFFFFFFFFFFFFFFFFFFFFFFFF DUP3 PUSH2 0x21C0 JUMP JUMPDEST PUSH2 0x2205 DUP7 DUP4 PUSH2 0x21C0 JUMP JUMPDEST SWAP6 POP DUP1 NOT DUP5 AND SWAP4 POP DUP1 DUP7 AND DUP5 OR SWAP3 POP POP POP SWAP4 SWAP3 POP POP POP JUMP JUMPDEST PUSH0 DUP2 SWAP1 POP SWAP2 SWAP1 POP JUMP JUMPDEST PUSH0 PUSH2 0x2240 PUSH2 0x223B PUSH2 0x2236 DUP5 PUSH2 0x16E9 JUMP JUMPDEST PUSH2 0x221D JUMP JUMPDEST PUSH2 0x16E9 JUMP JUMPDEST SWAP1 POP SWAP2 SWAP1 POP JUMP JUMPDEST PUSH0 DUP2 SWAP1 POP SWAP2 SWAP1 POP JUMP JUMPDEST PUSH2 0x2259 DUP4 PUSH2 0x2226 JUMP JUMPDEST PUSH2 0x226D PUSH2 0x2265 DUP3 PUSH2 0x2247 JUMP JUMPDEST DUP5 DUP5 SLOAD PUSH2 0x21CC JUMP JUMPDEST DUP3 SSTORE POP POP POP POP JUMP JUMPDEST PUSH0 SWAP1 JUMP JUMPDEST PUSH2 0x2281 PUSH2 0x2275 JUMP JUMPDEST PUSH2 0x228C DUP2 DUP5 DUP5 PUSH2 0x2250 JUMP JUMPDEST POP POP POP JUMP JUMPDEST JUMPDEST DUP2 DUP2 LT ISZERO PUSH2 0x22AF JUMPI PUSH2 0x22A4 PUSH0 DUP3 PUSH2 0x2279 JUMP JUMPDEST PUSH1 0x1 DUP2 ADD SWAP1 POP PUSH2 0x2292 JUMP JUMPDEST POP POP JUMP JUMPDEST PUSH1 0x1F DUP3 GT ISZERO PUSH2 0x22F4 JUMPI PUSH2 0x22C5 DUP2 PUSH2 0x219F JUMP JUMPDEST PUSH2 0x22CE DUP5 PUSH2 0x21B1 JUMP JUMPDEST DUP2 ADD PUSH1 0x20 DUP6 LT ISZERO PUSH2 0x22DD JUMPI DUP2 SWAP1 POP JUMPDEST PUSH2 0x22F1 PUSH2 0x22E9 DUP6 PUSH2 0x21B1 JUMP JUMPDEST DUP4 ADD DUP3 PUSH2 0x2291 JUMP JUMPDEST POP POP JUMPDEST POP POP POP JUMP JUMPDEST PUSH0 DUP3 DUP3 SHR SWAP1 POP SWAP3 SWAP2 POP POP JUMP JUMPDEST PUSH0 PUSH2 0x2314 PUSH0 NOT DUP5 PUSH1 0x8 MUL PUSH2 0x22F9 JUMP JUMPDEST NOT DUP1 DUP4 AND SWAP2 POP POP SWAP3 SWAP2 POP POP JUMP JUMPDEST PUSH0 PUSH2 0x232C DUP4 DUP4 PUSH2 0x2305 JUMP JUMPDEST SWAP2 POP DUP3 PUSH1 0x2 MUL DUP3 OR SWAP1 POP SWAP3 SWAP2 POP POP JUMP JUMPDEST PUSH2 0x2345 DUP3 PUSH2 0x1756 JUMP JUMPDEST PUSH8 0xFFFFFFFFFFFFFFFF DUP2 GT ISZERO PUSH2 0x235E JUMPI PUSH2 0x235D PUSH2 0x2172 JUMP JUMPDEST JUMPDEST PUSH2 0x2368 DUP3 SLOAD PUSH2 0x1D39 JUMP JUMPDEST PUSH2 0x2373 DUP3 DUP3 DUP6 PUSH2 0x22B3 JUMP JUMPDEST PUSH0 PUSH1 0x20 SWAP1 POP PUSH1 0x1F DUP4 GT PUSH1 0x1 DUP2 EQ PUSH2 0x23A4 JUMPI PUSH0 DUP5 ISZERO PUSH2 0x2392 JUMPI DUP3 DUP8 ADD MLOAD SWAP1 POP JUMPDEST PUSH2 0x239C DUP6 DUP3 PUSH2 0x2321 JUMP JUMPDEST DUP7 SSTORE POP PUSH2 0x2403 JUMP JUMPDEST PUSH1 0x1F NOT DUP5 AND PUSH2 0x23B2 DUP7 PUSH2 0x219F JUMP JUMPDEST PUSH0 JUMPDEST DUP3 DUP2 LT ISZERO PUSH2 0x23D9 JUMPI DUP5 DUP10 ADD MLOAD DUP3 SSTORE PUSH1 0x1 DUP3 ADD SWAP2 POP PUSH1 0x20 DUP6 ADD SWAP5 POP PUSH1 0x20 DUP2 ADD SWAP1 POP PUSH2 0x23B4 JUMP JUMPDEST DUP7 DUP4 LT ISZERO PUSH2 0x23F6 JUMPI DUP5 DUP10 ADD MLOAD PUSH2 0x23F2 PUSH1 0x1F DUP10 AND DUP3 PUSH2 0x2305 JUMP JUMPDEST DUP4 SSTORE POP JUMPDEST PUSH1 0x1 PUSH1 0x2 DUP9 MUL ADD DUP9 SSTORE POP POP POP JUMPDEST POP POP POP POP POP POP JUMP JUMPDEST PUSH0 PUSH2 0x2415 DUP3 PUSH2 0x16E9 JUMP JUMPDEST SWAP2 POP PUSH32 0xFFFFFFFFFFFFFFFFFFFFFFFFFFFFFFFFFFFFFFFFFFFFFFFFFFFFFFFFFFFFFFFF DUP3 SUB PUSH2 0x2447 JUMPI PUSH2 0x2446 PUSH2 0x1EA1 JUMP JUMPDEST JUMPDEST PUSH1 0x1 DUP3 ADD SWAP1 POP SWAP2 SWAP1 POP JUMP JUMPDEST PUSH32 0x4E487B7100000000000000000000000000000000000000000000000000000000 PUSH0 MSTORE PUSH1 0x32 PUSH1 0x4 MSTORE PUSH1 0x24 PUSH0 REVERT JUMPDEST PUSH32 0x596F75206861766520616C726561647920766F74656420666F72207468697320 PUSH0 DUP3 ADD MSTORE PUSH32 0x70726F706F73616C200000000000000000000000000000000000000000000000 PUSH1 0x20 DUP3 ADD MSTORE POP JUMP JUMPDEST PUSH0 PUSH2 0x24D9 PUSH1 0x29 DUP4 PUSH2 0x1760 JUMP JUMPDEST SWAP2 POP PUSH2 0x24E4 DUP3 PUSH2 0x247F JUMP JUMPDEST PUSH1 0x40 DUP3 ADD SWAP1 POP SWAP2 SWAP1 POP JUMP JUMPDEST PUSH0 PUSH1 0x20 DUP3 ADD SWAP1 POP DUP2 DUP2 SUB PUSH0 DUP4 ADD MSTORE PUSH2 0x2506 DUP2 PUSH2 0x24CD JUMP JUMPDEST SWAP1 POP SWAP2 SWAP1 POP JUMP JUMPDEST PUSH32 0x566F74696E672074696D6520656E646564000000000000000000000000000000 PUSH0 DUP3 ADD MSTORE POP JUMP JUMPDEST PUSH0 PUSH2 0x2541 PUSH1 0x11 DUP4 PUSH2 0x1760 JUMP JUMPDEST SWAP2 POP PUSH2 0x254C DUP3 PUSH2 0x250D JUMP JUMPDEST PUSH1 0x20 DUP3 ADD SWAP1 POP SWAP2 SWAP1 POP JUMP JUMPDEST PUSH0 PUSH1 0x20 DUP3 ADD SWAP1 POP DUP2 DUP2 SUB PUSH0 DUP4 ADD MSTORE PUSH2 0x256E DUP2 PUSH2 0x2535 JUMP JUMPDEST SWAP1 POP SWAP2 SWAP1 POP JUMP JUMPDEST PUSH32 0x497420697320616C726561647920657865637574656400000000000000000000 PUSH0 DUP3 ADD MSTORE POP JUMP JUMPDEST PUSH0 PUSH2 0x25A9 PUSH1 0x16 DUP4 PUSH2 0x1760 JUMP JUMPDEST SWAP2 POP PUSH2 0x25B4 DUP3 PUSH2 0x2575 JUMP JUMPDEST PUSH1 0x20 DUP3 ADD SWAP1 POP SWAP2 SWAP1 POP JUMP JUMPDEST PUSH0 PUSH1 0x20 DUP3 ADD SWAP1 POP DUP2 DUP2 SUB PUSH0 DUP4 ADD MSTORE PUSH2 0x25D6 DUP2 PUSH2 0x259D JUMP JUMPDEST SWAP1 POP SWAP2 SWAP1 POP JUMP JUMPDEST PUSH32 0x596F7520646F6E74206861766520656E6F756768207368617265730000000000 PUSH0 DUP3 ADD MSTORE POP JUMP JUMPDEST PUSH0 PUSH2 0x2611 PUSH1 0x1B DUP4 PUSH2 0x1760 JUMP JUMPDEST SWAP2 POP PUSH2 0x261C DUP3 PUSH2 0x25DD JUMP JUMPDEST PUSH1 0x20 DUP3 ADD SWAP1 POP SWAP2 SWAP1 POP JUMP JUMPDEST PUSH0 PUSH1 0x20 DUP3 ADD SWAP1 POP DUP2 DUP2 SUB PUSH0 DUP4 ADD MSTORE PUSH2 0x263E DUP2 PUSH2 0x2605 JUMP JUMPDEST SWAP1 POP SWAP2 SWAP1 POP JUMP INVALID LOG2 PUSH5 0x6970667358 0x22 SLT KECCAK256 PUSH0 0xD 0xDC BALANCE 0xF PUSH8 0x268D84BBF9659C80 STOP 0xC9 ORIGIN SWAP14 TIMESTAMP CALLVALUE 0x27 RETURN SAR 0xC4 0xE5 0xD2 BYTE 0xF7 PUSH19 0xF7035164736F6C634300081700330000000000 "
				},
				"gasEstimates": {
					"creation": {
						"codeDepositCost": "1970200",
						"executionCost": "infinite",
						"totalCost": "infinite"
					},
					"external": {
						"ProposalList()": "infinite",
						"availableFunds()": "2514",
						"contribution()": "infinite",
						"contributionTimeEnd()": "2491",
						"createProposal(string,uint256,address)": "infinite",
						"executeProposal(uint256)": "infinite",
						"investorsList(uint256)": "4989",
						"isVoted(address,uint256)": "3115",
						"manager()": "2619",
						"nextProposalId()": "2448",
						"numOfShares(address)": "2847",
						"proposals(uint256)": "infinite",
						"quorum()": "2515",
						"redeemShare(uint256)": "infinite",
						"totalShares()": "2492",
						"transferShare(uint256,address)": "infinite",
						"voteProposal(uint256)": "infinite",
						"voteTime()": "2513",
						"withdrawlStatus(address,address)": "infinite"
					},
					"internal": {
						"_transfer(uint256,address payable)": "infinite"
					}
				},
				"methodIdentifiers": {
					"ProposalList()": "6dfc1099",
					"availableFunds()": "46fcff4c",
					"contribution()": "50520b1f",
					"contributionTimeEnd()": "afc8275b",
					"createProposal(string,uint256,address)": "6ac1e01f",
					"executeProposal(uint256)": "0d61b519",
					"investorsList(uint256)": "2ccc8727",
					"isVoted(address,uint256)": "8ee36f05",
					"manager()": "481c6a75",
					"nextProposalId()": "2ab09d14",
					"numOfShares(address)": "6a907803",
					"proposals(uint256)": "013cf08b",
					"quorum()": "1703a018",
					"redeemShare(uint256)": "868643df",
					"totalShares()": "3a98ef39",
					"transferShare(uint256,address)": "039383e6",
					"voteProposal(uint256)": "807896d5",
					"voteTime()": "bcf93dd6",
					"withdrawlStatus(address,address)": "dd5fee6f"
				}
			},
			"storageLayout": {
				"storage": [
					{
						"astId": 20,
						"contract": "DAO/DAO.sol:Dao",
						"label": "isInvestor",
						"offset": 0,
						"slot": "0",
						"type": "t_mapping(t_address,t_bool)"
					},
					{
						"astId": 24,
						"contract": "DAO/DAO.sol:Dao",
						"label": "numOfShares",
						"offset": 0,
						"slot": "1",
						"type": "t_mapping(t_address,t_uint256)"
					},
					{
						"astId": 30,
						"contract": "DAO/DAO.sol:Dao",
						"label": "isVoted",
						"offset": 0,
						"slot": "2",
						"type": "t_mapping(t_address,t_mapping(t_uint256,t_bool))"
					},
					{
						"astId": 36,
						"contract": "DAO/DAO.sol:Dao",
						"label": "withdrawlStatus",
						"offset": 0,
						"slot": "3",
						"type": "t_mapping(t_address,t_mapping(t_address,t_bool))"
					},
					{
						"astId": 39,
						"contract": "DAO/DAO.sol:Dao",
						"label": "investorsList",
						"offset": 0,
						"slot": "4",
						"type": "t_array(t_address)dyn_storage"
					},
					{
						"astId": 44,
						"contract": "DAO/DAO.sol:Dao",
						"label": "proposals",
						"offset": 0,
						"slot": "5",
						"type": "t_mapping(t_uint256,t_struct(Proposal)16_storage)"
					},
					{
						"astId": 46,
						"contract": "DAO/DAO.sol:Dao",
						"label": "totalShares",
						"offset": 0,
						"slot": "6",
						"type": "t_uint256"
					},
					{
						"astId": 48,
						"contract": "DAO/DAO.sol:Dao",
						"label": "availableFunds",
						"offset": 0,
						"slot": "7",
						"type": "t_uint256"
					},
					{
						"astId": 50,
						"contract": "DAO/DAO.sol:Dao",
						"label": "contributionTimeEnd",
						"offset": 0,
						"slot": "8",
						"type": "t_uint256"
					},
					{
						"astId": 52,
						"contract": "DAO/DAO.sol:Dao",
						"label": "nextProposalId",
						"offset": 0,
						"slot": "9",
						"type": "t_uint256"
					},
					{
						"astId": 54,
						"contract": "DAO/DAO.sol:Dao",
						"label": "voteTime",
						"offset": 0,
						"slot": "10",
						"type": "t_uint256"
					},
					{
						"astId": 56,
						"contract": "DAO/DAO.sol:Dao",
						"label": "quorum",
						"offset": 0,
						"slot": "11",
						"type": "t_uint256"
					},
					{
						"astId": 58,
						"contract": "DAO/DAO.sol:Dao",
						"label": "manager",
						"offset": 0,
						"slot": "12",
						"type": "t_address"
					}
				],
				"types": {
					"t_address": {
						"encoding": "inplace",
						"label": "address",
						"numberOfBytes": "20"
					},
					"t_address_payable": {
						"encoding": "inplace",
						"label": "address payable",
						"numberOfBytes": "20"
					},
					"t_array(t_address)dyn_storage": {
						"base": "t_address",
						"encoding": "dynamic_array",
						"label": "address[]",
						"numberOfBytes": "32"
					},
					"t_bool": {
						"encoding": "inplace",
						"label": "bool",
						"numberOfBytes": "1"
					},
					"t_mapping(t_address,t_bool)": {
						"encoding": "mapping",
						"key": "t_address",
						"label": "mapping(address => bool)",
						"numberOfBytes": "32",
						"value": "t_bool"
					},
					"t_mapping(t_address,t_mapping(t_address,t_bool))": {
						"encoding": "mapping",
						"key": "t_address",
						"label": "mapping(address => mapping(address => bool))",
						"numberOfBytes": "32",
						"value": "t_mapping(t_address,t_bool)"
					},
					"t_mapping(t_address,t_mapping(t_uint256,t_bool))": {
						"encoding": "mapping",
						"key": "t_address",
						"label": "mapping(address => mapping(uint256 => bool))",
						"numberOfBytes": "32",
						"value": "t_mapping(t_uint256,t_bool)"
					},
					"t_mapping(t_address,t_uint256)": {
						"encoding": "mapping",
						"key": "t_address",
						"label": "mapping(address => uint256)",
						"numberOfBytes": "32",
						"value": "t_uint256"
					},
					"t_mapping(t_uint256,t_bool)": {
						"encoding": "mapping",
						"key": "t_uint256",
						"label": "mapping(uint256 => bool)",
						"numberOfBytes": "32",
						"value": "t_bool"
					},
					"t_mapping(t_uint256,t_struct(Proposal)16_storage)": {
						"encoding": "mapping",
						"key": "t_uint256",
						"label": "mapping(uint256 => struct Dao.Proposal)",
						"numberOfBytes": "32",
						"value": "t_struct(Proposal)16_storage"
					},
					"t_string_storage": {
						"encoding": "bytes",
						"label": "string",
						"numberOfBytes": "32"
					},
					"t_struct(Proposal)16_storage": {
						"encoding": "inplace",
						"label": "struct Dao.Proposal",
						"members": [
							{
								"astId": 3,
								"contract": "DAO/DAO.sol:Dao",
								"label": "id",
								"offset": 0,
								"slot": "0",
								"type": "t_uint256"
							},
							{
								"astId": 5,
								"contract": "DAO/DAO.sol:Dao",
								"label": "description",
								"offset": 0,
								"slot": "1",
								"type": "t_string_storage"
							},
							{
								"astId": 7,
								"contract": "DAO/DAO.sol:Dao",
								"label": "amount",
								"offset": 0,
								"slot": "2",
								"type": "t_uint256"
							},
							{
								"astId": 9,
								"contract": "DAO/DAO.sol:Dao",
								"label": "receipient",
								"offset": 0,
								"slot": "3",
								"type": "t_address_payable"
							},
							{
								"astId": 11,
								"contract": "DAO/DAO.sol:Dao",
								"label": "votes",
								"offset": 0,
								"slot": "4",
								"type": "t_uint256"
							},
							{
								"astId": 13,
								"contract": "DAO/DAO.sol:Dao",
								"label": "end",
								"offset": 0,
								"slot": "5",
								"type": "t_uint256"
							},
							{
								"astId": 15,
								"contract": "DAO/DAO.sol:Dao",
								"label": "isExecuted",
								"offset": 0,
								"slot": "6",
								"type": "t_bool"
							}
						],
						"numberOfBytes": "224"
					},
					"t_uint256": {
						"encoding": "inplace",
						"label": "uint256",
						"numberOfBytes": "32"
					}
				}
			},
			"userdoc": {
				"kind": "user",
				"methods": {},
				"version": 1
			}
		}
	}
}